{
  "contractName": "BetaOracleNetswap",
  "abi": [
    {
      "inputs": [
        {
          "internalType": "address",
          "name": "_weth",
          "type": "address"
        },
        {
          "internalType": "address",
          "name": "_factory",
          "type": "address"
        },
        {
          "internalType": "uint32",
          "name": "_minTwapTime",
          "type": "uint32"
        }
      ],
      "stateMutability": "nonpayable",
      "type": "constructor"
    },
    {
      "anonymous": false,
      "inputs": [
        {
          "indexed": false,
          "internalType": "address",
          "name": "token",
          "type": "address"
        }
      ],
      "name": "Initialize",
      "type": "event"
    },
    {
      "anonymous": false,
      "inputs": [
        {
          "indexed": true,
          "internalType": "address",
          "name": "token",
          "type": "address"
        },
        {
          "indexed": false,
          "internalType": "uint224",
          "name": "price",
          "type": "uint224"
        }
      ],
      "name": "Observe",
      "type": "event"
    },
    {
      "anonymous": false,
      "inputs": [
        {
          "indexed": true,
          "internalType": "address",
          "name": "token",
          "type": "address"
        },
        {
          "indexed": false,
          "internalType": "address",
          "name": "ext",
          "type": "address"
        }
      ],
      "name": "SetExternal",
      "type": "event"
    },
    {
      "anonymous": false,
      "inputs": [
        {
          "indexed": false,
          "internalType": "address",
          "name": "governor",
          "type": "address"
        }
      ],
      "name": "SetGovernor",
      "type": "event"
    },
    {
      "anonymous": false,
      "inputs": [
        {
          "indexed": false,
          "internalType": "address",
          "name": "pendingGovernor",
          "type": "address"
        }
      ],
      "name": "SetPendingGovernor",
      "type": "event"
    },
    {
      "inputs": [
        {
          "internalType": "address",
          "name": "",
          "type": "address"
        }
      ],
      "name": "exts",
      "outputs": [
        {
          "internalType": "address",
          "name": "",
          "type": "address"
        }
      ],
      "stateMutability": "view",
      "type": "function"
    },
    {
      "inputs": [],
      "name": "factory",
      "outputs": [
        {
          "internalType": "address",
          "name": "",
          "type": "address"
        }
      ],
      "stateMutability": "view",
      "type": "function"
    },
    {
      "inputs": [],
      "name": "governor",
      "outputs": [
        {
          "internalType": "address",
          "name": "",
          "type": "address"
        }
      ],
      "stateMutability": "view",
      "type": "function"
    },
    {
      "inputs": [],
      "name": "minTwapTime",
      "outputs": [
        {
          "internalType": "uint32",
          "name": "",
          "type": "uint32"
        }
      ],
      "stateMutability": "view",
      "type": "function"
    },
    {
      "inputs": [
        {
          "internalType": "address",
          "name": "",
          "type": "address"
        }
      ],
      "name": "observations",
      "outputs": [
        {
          "internalType": "uint256",
          "name": "lastCumu",
          "type": "uint256"
        },
        {
          "internalType": "uint224",
          "name": "lastPrice",
          "type": "uint224"
        },
        {
          "internalType": "uint32",
          "name": "timestamp",
          "type": "uint32"
        }
      ],
      "stateMutability": "view",
      "type": "function"
    },
    {
      "inputs": [],
      "name": "pendingGovernor",
      "outputs": [
        {
          "internalType": "address",
          "name": "",
          "type": "address"
        }
      ],
      "stateMutability": "view",
      "type": "function"
    },
    {
      "inputs": [],
      "name": "weth",
      "outputs": [
        {
          "internalType": "address",
          "name": "",
          "type": "address"
        }
      ],
      "stateMutability": "view",
      "type": "function"
    },
    {
      "inputs": [
        {
          "internalType": "address",
          "name": "_pendingGovernor",
          "type": "address"
        }
      ],
      "name": "setPendingGovernor",
      "outputs": [],
      "stateMutability": "nonpayable",
      "type": "function"
    },
    {
      "inputs": [],
      "name": "acceptGovernor",
      "outputs": [],
      "stateMutability": "nonpayable",
      "type": "function"
    },
    {
      "inputs": [
        {
          "internalType": "address[]",
          "name": "_tokens",
          "type": "address[]"
        },
        {
          "internalType": "address",
          "name": "_ext",
          "type": "address"
        }
      ],
      "name": "setExternalOracle",
      "outputs": [],
      "stateMutability": "nonpayable",
      "type": "function"
    },
    {
      "inputs": [
        {
          "internalType": "address",
          "name": "token",
          "type": "address"
        }
      ],
      "name": "initPriceFromPair",
      "outputs": [],
      "stateMutability": "nonpayable",
      "type": "function"
    },
    {
      "inputs": [
        {
          "internalType": "address[]",
          "name": "tokens",
          "type": "address[]"
        }
      ],
      "name": "massInitPriceFromPair",
      "outputs": [],
      "stateMutability": "nonpayable",
      "type": "function"
    },
    {
      "inputs": [
        {
          "internalType": "address",
          "name": "token",
          "type": "address"
        }
      ],
      "name": "updatePriceFromPair",
      "outputs": [
        {
          "internalType": "uint256",
          "name": "",
          "type": "uint256"
        }
      ],
      "stateMutability": "nonpayable",
      "type": "function"
    },
    {
      "inputs": [
        {
          "internalType": "address[]",
          "name": "tokens",
          "type": "address[]"
        }
      ],
      "name": "massUpdatePriceFromPair",
      "outputs": [
        {
          "internalType": "uint256[]",
          "name": "prices",
          "type": "uint256[]"
        }
      ],
      "stateMutability": "nonpayable",
      "type": "function"
    },
    {
      "inputs": [
        {
          "internalType": "address",
          "name": "token",
          "type": "address"
        }
      ],
      "name": "getAssetETHPrice",
      "outputs": [
        {
          "internalType": "uint256",
          "name": "",
          "type": "uint256"
        }
      ],
      "stateMutability": "nonpayable",
      "type": "function"
    },
    {
      "inputs": [
        {
          "internalType": "address",
          "name": "token",
          "type": "address"
        },
        {
          "internalType": "uint256",
          "name": "amount",
          "type": "uint256"
        }
      ],
      "name": "getAssetETHValue",
      "outputs": [
        {
          "internalType": "uint256",
          "name": "",
          "type": "uint256"
        }
      ],
      "stateMutability": "nonpayable",
      "type": "function"
    },
    {
      "inputs": [
        {
          "internalType": "address",
          "name": "from",
          "type": "address"
        },
        {
          "internalType": "address",
          "name": "to",
          "type": "address"
        },
        {
          "internalType": "uint256",
          "name": "amount",
          "type": "uint256"
        }
      ],
      "name": "convert",
      "outputs": [
        {
          "internalType": "uint256",
          "name": "",
          "type": "uint256"
        }
      ],
      "stateMutability": "nonpayable",
      "type": "function"
    },
    {
      "inputs": [
        {
          "internalType": "address",
          "name": "pair",
          "type": "address"
        }
      ],
      "name": "currentPrice0Cumu",
      "outputs": [
        {
          "internalType": "uint256",
          "name": "price0Cumu",
          "type": "uint256"
        }
      ],
      "stateMutability": "view",
      "type": "function"
    },
    {
      "inputs": [
        {
          "internalType": "address",
          "name": "pair",
          "type": "address"
        }
      ],
      "name": "currentPrice1Cumu",
      "outputs": [
        {
          "internalType": "uint256",
          "name": "price1Cumu",
          "type": "uint256"
        }
      ],
      "stateMutability": "view",
      "type": "function"
    }
  ],
  "bytecode": "0x60e06040523480156200001157600080fd5b5060405162001591380380620015918339810160408190526200003491620001e3565b6001600160a01b038316620000905760405162461bcd60e51b815260206004820152601d60248201527f636f6e7374727563746f722f776574682d7a65726f2d6164647265737300000060448201526064015b60405180910390fd5b6001600160a01b038216620000e85760405162461bcd60e51b815260206004820181905260248201527f636f6e7374727563746f722f666163746f72792d7a65726f2d61646472657373604482015260640162000087565b63ffffffff8116620001495760405162461bcd60e51b8152602060048201526024808201527f636f6e7374727563746f722f6d696e2d747761702d74696d652d7a65726f2d76604482015263616c756560e01b606482015260840162000087565b6001600160601b0319606084811b821660805283901b1660a0526001600160e01b031960e082901b1660c052600080546001600160a01b031916339081179091556040519081527fbce074c8369e26e70e1ae2f14fc944da352cfe6f52e2de9572f0c9942a24b7fc9060200160405180910390a150505062000239565b80516001600160a01b0381168114620001de57600080fd5b919050565b600080600060608486031215620001f957600080fd5b6200020484620001c6565b92506200021460208501620001c6565b9150604084015163ffffffff811681146200022e57600080fd5b809150509250925092565b60805160601c60a05160601c60c05160e01c6112e7620002aa6000396000818161026b0152610ab40152600081816102e0015281816106f60152610b5b01526000818161018001528181610725015281816107a101528181610b8a01528181610c080152610d1401526112e76000f3fe608060405234801561001057600080fd5b50600436106100f15760003560e01c80630c340a24146100f6578063144ff1941461011f5780631e61991114610140578063248391ff1461015557806327b113ca146101685780633fc8cef31461017b578063460d5ffa146101a25780636378aa32146101b557806372b71361146101d55780638a04ff3c146101fe5780639a462f8f14610266578063ae27980d146102a2578063bc388242146102b5578063bd424684146102c8578063c45a0155146102db578063d4f4dfe414610302578063e3056a3414610315578063e58bb63914610328578063f235757f14610330575b600080fd5b600054610109906001600160a01b031681565b6040516101169190611173565b60405180910390f35b61013261012d366004610fd7565b610343565b604051908152602001610116565b61015361014e3660046110bf565b61048b565b005b610132610163366004611011565b6105d1565b61015361017636600461107e565b61060b565b6101097f000000000000000000000000000000000000000000000000000000000000000081565b6101536101b0366004610fd7565b610657565b6101c86101c336600461107e565b610840565b60405161011691906111a1565b6101096101e3366004610fd7565b6003602052600090815260409020546001600160a01b031681565b61023d61020c366004610fd7565b600260205260009081526040902080546001909101546001600160e01b03811690600160e01b900463ffffffff1683565b604080519384526001600160e01b03909216602084015263ffffffff1690820152606001610116565b61028d7f000000000000000000000000000000000000000000000000000000000000000081565b60405163ffffffff9091168152602001610116565b6101326102b0366004610fd7565b6108f1565b6101326102c3366004610fd7565b610a28565b6101326102d6366004611052565b610cec565b6101097f000000000000000000000000000000000000000000000000000000000000000081565b610132610310366004610fd7565b610d10565b600154610109906001600160a01b031681565b610153610e04565b61015361033e366004610fd7565b610ec0565b600080429050826001600160a01b0316635a3d54936040518163ffffffff1660e01b815260040160206040518083038186803b15801561038257600080fd5b505afa158015610396573d6000803e3d6000fd5b505050506040513d601f19601f820116820180604052508101906103ba919061115a565b91506000806000856001600160a01b0316630902f1ac6040518163ffffffff1660e01b815260040160606040518083038186803b1580156103fa57600080fd5b505afa15801561040e573d6000803e3d6000fd5b505050506040513d601f19601f820116820180604052508101906104329190611115565b92506001600160701b031692506001600160701b031692508363ffffffff168163ffffffff16146104825780840363ffffffff811683607086901b8161047a5761047a611257565b040286019550505b50505050919050565b6000546001600160a01b031633146104ea5760405162461bcd60e51b815260206004820152601e60248201527f73657445787465726e616c4f7261636c652f6e6f742d676f7665726e6f72000060448201526064015b60405180910390fd5b60005b828110156105cb57816003600086868581811061050c5761050c61126d565b90506020020160208101906105219190610fd7565b6001600160a01b039081168252602082019290925260400160002080546001600160a01b031916929091169190911790558383828181106105645761056461126d565b90506020020160208101906105799190610fd7565b6001600160a01b03167f6a238cbf889fd9e18ec5a852b4354006cdd576b0f80d18a64e1e87d96d4ddd6d836040516105b19190611173565b60405180910390a2806105c381611226565b9150506104ed565b50505050565b6000806105dd85610d10565b905060006105ea85610d10565b9050806105f78386611207565b61060191906111e5565b9695505050505050565b60005b818110156106525761064083838381811061062b5761062b61126d565b90506020020160208101906101b09190610fd7565b8061064a81611226565b91505061060e565b505050565b6001600160a01b03811660009081526002602052604090206001810154600160e01b900463ffffffff16156106dc5760405162461bcd60e51b815260206004820152602560248201527f696e6974507269636546726f6d506169722f616c72656164792d696e697469616044820152641b1a5e995960da1b60648201526084016104e1565b60405163e6a4390560e01b81526000906001600160a01b037f0000000000000000000000000000000000000000000000000000000000000000169063e6a439059061074d9086907f000000000000000000000000000000000000000000000000000000000000000090600401611187565b60206040518083038186803b15801561076557600080fd5b505afa158015610779573d6000803e3d6000fd5b505050506040513d601f19601f8201168201806040525081019061079d9190610ff4565b90507f00000000000000000000000000000000000000000000000000000000000000006001600160a01b0316836001600160a01b0316106107e6576107e181610343565b6107ef565b6107ef816108f1565b825563ffffffff4216600160e01b0260018301556040517f36b1453565f45af7b509b59d5e2eac8f1948ea9e3e193db6663b4101afb6382c90610833908590611173565b60405180910390a1505050565b6060816001600160401b0381111561085a5761085a611283565b604051908082528060200260200182016040528015610883578160200160208202803683370190505b50905060005b828110156108ea576108bb8484838181106108a6576108a661126d565b90506020020160208101906102c39190610fd7565b8282815181106108cd576108cd61126d565b6020908102919091010152806108e281611226565b915050610889565b5092915050565b600080429050826001600160a01b0316635909c0d56040518163ffffffff1660e01b815260040160206040518083038186803b15801561093057600080fd5b505afa158015610944573d6000803e3d6000fd5b505050506040513d601f19601f82011682018060405250810190610968919061115a565b91506000806000856001600160a01b0316630902f1ac6040518163ffffffff1660e01b815260040160606040518083038186803b1580156109a857600080fd5b505afa1580156109bc573d6000803e3d6000fd5b505050506040513d601f19601f820116820180604052508101906109e09190611115565b92506001600160701b031692506001600160701b031692508363ffffffff168163ffffffff16146104825780840363ffffffff811684607085901b8161047a5761047a611257565b6001600160a01b03811660009081526002602052604081206001810154600160e01b900463ffffffff1680610aa95760405162461bcd60e51b815260206004820152602160248201527f757064617465507269636546726f6d506169722f756e696e697469616c697a656044820152601960fa1b60648201526084016104e1565b4281900363ffffffff7f000000000000000000000000000000000000000000000000000000000000000081169082161015610b415760018301546001600160e01b031680610b385760405162461bcd60e51b815260206004820152601c60248201527b757064617465507269636546726f6d506169722f6e6f2d707269636560201b60448201526064016104e1565b95945050505050565b60405163e6a4390560e01b81526000906001600160a01b037f0000000000000000000000000000000000000000000000000000000000000000169063e6a4390590610bb29089907f000000000000000000000000000000000000000000000000000000000000000090600401611187565b60206040518083038186803b158015610bca57600080fd5b505afa158015610bde573d6000803e3d6000fd5b505050506040513d601f19601f82011682018060405250810190610c029190610ff4565b905060007f00000000000000000000000000000000000000000000000000000000000000006001600160a01b0316876001600160a01b031610610c4d57610c4882610343565b610c56565b610c56826108f1565b905060008363ffffffff168660000154830381610c7557610c75611257565b838855046001600160e01b038116600160e01b4263ffffffff1602811760018901556040519081529091506001600160a01b038916907f37063826a3cfcf7bacee74232fe1dbc1526d6b89bbefbb982a7e2d727cd2f28c9060200160405180910390a26001600160e01b0316979650505050505050565b600080610cf884610d10565b90506070610d068483611207565b901c949350505050565b60007f00000000000000000000000000000000000000000000000000000000000000006001600160a01b0316826001600160a01b03161415610d575750600160701b919050565b6001600160a01b03808316600090815260036020526040902054168015610dfb576040516355cd56ff60e11b81526001600160a01b0382169063ab9aadfe90610da4908690600401611173565b60206040518083038186803b158015610dbc57600080fd5b505afa158015610dd0573d6000803e3d6000fd5b505050506040513d601f19601f82011682018060405250810190610df4919061115a565b9392505050565b610df483610a28565b6001546001600160a01b03163314610e6a5760405162461bcd60e51b815260206004820152602360248201527f616363657074476f7665726e6f722f6e6f742d70656e64696e672d676f7665726044820152623737b960e91b60648201526084016104e1565b600180546001600160a01b031990811690915560008054339216821790556040517fbce074c8369e26e70e1ae2f14fc944da352cfe6f52e2de9572f0c9942a24b7fc91610eb691611173565b60405180910390a1565b6000546001600160a01b03163314610f1a5760405162461bcd60e51b815260206004820152601f60248201527f73657450656e64696e67476f7665726e6f722f6e6f742d676f7665726e6f720060448201526064016104e1565b600180546001600160a01b0319166001600160a01b0383161790556040517f964dea888b00b2ab53f13dfe7ca334b46e99338c222ae232d98547a1da019f6090610f65908390611173565b60405180910390a150565b60008083601f840112610f8257600080fd5b5081356001600160401b03811115610f9957600080fd5b6020830191508360208260051b8501011115610fb457600080fd5b9250929050565b80516001600160701b0381168114610fd257600080fd5b919050565b600060208284031215610fe957600080fd5b8135610df481611299565b60006020828403121561100657600080fd5b8151610df481611299565b60008060006060848603121561102657600080fd5b833561103181611299565b9250602084013561104181611299565b929592945050506040919091013590565b6000806040838503121561106557600080fd5b823561107081611299565b946020939093013593505050565b6000806020838503121561109157600080fd5b82356001600160401b038111156110a757600080fd5b6110b385828601610f70565b90969095509350505050565b6000806000604084860312156110d457600080fd5b83356001600160401b038111156110ea57600080fd5b6110f686828701610f70565b909450925050602084013561110a81611299565b809150509250925092565b60008060006060848603121561112a57600080fd5b61113384610fbb565b925061114160208501610fbb565b9150604084015163ffffffff8116811461110a57600080fd5b60006020828403121561116c57600080fd5b5051919050565b6001600160a01b0391909116815260200190565b6001600160a01b0392831681529116602082015260400190565b6020808252825182820181905260009190848201906040850190845b818110156111d9578351835292840192918401916001016111bd565b50909695505050505050565b60008261120257634e487b7160e01b600052601260045260246000fd5b500490565b600081600019048311821515161561122157611221611241565b500290565b600060001982141561123a5761123a611241565b5060010190565b634e487b7160e01b600052601160045260246000fd5b634e487b7160e01b600052601260045260246000fd5b634e487b7160e01b600052603260045260246000fd5b634e487b7160e01b600052604160045260246000fd5b6001600160a01b03811681146112ae57600080fd5b5056fea2646970667358221220ac393a129ae30fa5694f76b0c7633f3b964a92d6ad39f1d8d0c80a81f2d43d5164736f6c63430008060033",
  "immutableReferences": {
    "7598": [
      {
        "length": 32,
        "start": 384
      },
      {
        "length": 32,
        "start": 1829
      },
      {
        "length": 32,
        "start": 1953
      },
      {
        "length": 32,
        "start": 2954
      },
      {
        "length": 32,
        "start": 3080
      },
      {
        "length": 32,
        "start": 3348
      }
    ],
    "7600": [
      {
        "length": 32,
        "start": 736
      },
      {
        "length": 32,
        "start": 1782
      },
      {
        "length": 32,
        "start": 2907
      }
    ],
    "7602": [
      {
        "length": 32,
        "start": 619
      },
      {
        "length": 32,
        "start": 2740
      }
    ]
  },
  "source": "// SPDX-License-Identifier: BUSL-1.1\r\npragma solidity 0.8.6;\r\n\r\nimport '../interfaces/INetswapFactory.sol';\r\nimport '../interfaces/INetswapPair.sol';\r\nimport '../interfaces/IExternalOracle.sol';\r\nimport '../interfaces/IBetaOracle.sol';\r\n\r\ncontract BetaOracleNetswap is IBetaOracle {\r\n  event SetGovernor(address governor);\r\n  event SetPendingGovernor(address pendingGovernor);\r\n  event Initialize(address token);\r\n  event Observe(address indexed token, uint224 price);\r\n  event SetExternal(address indexed token, address ext);\r\n\r\n  struct Observation {\r\n    uint lastCumu;\r\n    uint224 lastPrice;\r\n    uint32 timestamp;\r\n  }\r\n\r\n  address public immutable weth;\r\n  address public immutable factory;\r\n  uint32 public immutable minTwapTime;\r\n\r\n  address public governor;\r\n  address public pendingGovernor;\r\n  mapping(address => Observation) public observations;\r\n  mapping(address => address) public exts;\r\n\r\n  /// @dev Initializes the oracle contract.\r\n  /// @param _weth WETH address.\r\n  /// @param _factory Uniswap V2 factory address.\r\n  /// @param _minTwapTime Minimum interval for TWAP time (in seconds).\r\n  constructor(\r\n    address _weth,\r\n    address _factory,\r\n    uint32 _minTwapTime\r\n  ) {\r\n    require(_weth != address(0), 'constructor/weth-zero-address');\r\n    require(_factory != address(0), 'constructor/factory-zero-address');\r\n    require(_minTwapTime != 0, 'constructor/min-twap-time-zero-value');\r\n    weth = _weth;\r\n    factory = _factory;\r\n    minTwapTime = _minTwapTime;\r\n    governor = msg.sender;\r\n    emit SetGovernor(msg.sender);\r\n  }\r\n\r\n  /// @dev Sets the next governor, which will be in effect when they accept.\r\n  /// @param _pendingGovernor The next governor address.\r\n  function setPendingGovernor(address _pendingGovernor) external {\r\n    require(msg.sender == governor, 'setPendingGovernor/not-governor');\r\n    pendingGovernor = _pendingGovernor;\r\n    emit SetPendingGovernor(_pendingGovernor);\r\n  }\r\n\r\n  /// @dev Accepts to become the next governor. Must only be called by the pending governor.\r\n  function acceptGovernor() external {\r\n    require(msg.sender == pendingGovernor, 'acceptGovernor/not-pending-governor');\r\n    pendingGovernor = address(0);\r\n    governor = msg.sender;\r\n    emit SetGovernor(msg.sender);\r\n  }\r\n\r\n  /// @dev Updates the external feed contract address for the given tokens by the governor.\r\n  /// @param _tokens The tokens to update external price oracle contract.\r\n  /// @param _ext The external price oracle contract.\r\n  function setExternalOracle(address[] calldata _tokens, address _ext) external {\r\n    require(msg.sender == governor, 'setExternalOracle/not-governor');\r\n    for (uint idx = 0; idx < _tokens.length; idx++) {\r\n      exts[_tokens[idx]] = _ext;\r\n      emit SetExternal(_tokens[idx], _ext);\r\n    }\r\n  }\r\n\r\n  /// @dev Initializes data points for price from pair for the given token.\r\n  /// @param token The token to initialize the price.\r\n  function initPriceFromPair(address token) public {\r\n    Observation storage obs = observations[token];\r\n    require(obs.timestamp == 0, 'initPriceFromPair/already-initialized');\r\n    address pair = INetswapFactory(factory).getPair(token, weth);\r\n    obs.lastCumu = token < weth ? currentPrice0Cumu(pair) : currentPrice1Cumu(pair);\r\n    obs.lastPrice = 0;\r\n    obs.timestamp = uint32(block.timestamp);\r\n    emit Initialize(token);\r\n  }\r\n\r\n  /// @dev Utility functions to initialize multiple pair prices at once.\r\n  /// @param tokens Token list to mass initialize the prices.\r\n  function massInitPriceFromPair(address[] calldata tokens) external {\r\n    for (uint idx = 0; idx < tokens.length; idx++) {\r\n      initPriceFromPair(tokens[idx]);\r\n    }\r\n  }\r\n\r\n  /// @dev Updates price info for the given token and returns the last price.\r\n  /// @param token The token to update token-WETH pair price.\r\n  function updatePriceFromPair(address token) public returns (uint) {\r\n    Observation storage obs = observations[token];\r\n    uint32 lastObserved = obs.timestamp;\r\n    require(lastObserved > 0, 'updatePriceFromPair/uninitialized');\r\n    unchecked {\r\n      uint32 timeElapsed = uint32(block.timestamp) - lastObserved; // overflow is desired\r\n      if (timeElapsed < minTwapTime) {\r\n        uint lastPrice = obs.lastPrice;\r\n        require(lastPrice > 0, 'updatePriceFromPair/no-price');\r\n        return lastPrice;\r\n      }\r\n      address pair = INetswapFactory(factory).getPair(token, weth);\r\n      uint currCumu = token < weth ? currentPrice0Cumu(pair) : currentPrice1Cumu(pair);\r\n      uint224 price = uint224((currCumu - obs.lastCumu) / timeElapsed); // overflow is desired\r\n      obs.lastPrice = price;\r\n      obs.lastCumu = currCumu;\r\n      obs.timestamp = uint32(block.timestamp);\r\n      emit Observe(token, price);\r\n      return price;\r\n    }\r\n  }\r\n\r\n  /// @dev Utility functions to update multiple pair prices at once.\r\n  /// @param tokens Token list to mass update prices.\r\n  function massUpdatePriceFromPair(address[] calldata tokens)\r\n    external\r\n    returns (uint[] memory prices)\r\n  {\r\n    prices = new uint[](tokens.length);\r\n    for (uint idx = 0; idx < tokens.length; idx++) {\r\n      prices[idx] = updatePriceFromPair(tokens[idx]);\r\n    }\r\n  }\r\n\r\n  /// @dev Returns the price of the given asset in terms of ETH (wei), multiplied by 2**112.\r\n  /// @param token The token to get asset price of.\r\n  function getAssetETHPrice(address token) public override returns (uint) {\r\n    if (token == weth) {\r\n      return (1 << 112);\r\n    }\r\n    address ext = exts[token];\r\n    if (ext != address(0)) {\r\n      return IExternalOracle(ext).getETHPx(token); \r\n    }\r\n    return updatePriceFromPair(token);\r\n  }\r\n\r\n  /// @dev Returns the given asset value in ETH (wei)\r\n  /// @param token The token to query for asset value\r\n  /// @param amount The amount of token to query\r\n  function getAssetETHValue(address token, uint amount) external override returns (uint) {\r\n    uint price = getAssetETHPrice(token);\r\n    return (price * amount) >> 112;\r\n  }\r\n\r\n  /// @dev Returns the conversion from amount of from` to `to`.\r\n  /// @param from The source token to convert.\r\n  /// @param to The destination token to convert.\r\n  /// @param amount The amount of token for conversion.\r\n  function convert(\r\n    address from,\r\n    address to,\r\n    uint amount\r\n  ) external override returns (uint) {\r\n    uint fromPrice = getAssetETHPrice(from);\r\n    uint toPrice = getAssetETHPrice(to);\r\n    return (amount * fromPrice) / toPrice;\r\n  }\r\n\r\n  /// @dev Return the current price0 cumulative value on uniswap.\r\n  /// @param pair The uniswap pair to query for price0 cumulative value.\r\n  function currentPrice0Cumu(address pair) public view returns (uint price0Cumu) {\r\n    uint32 currTime = uint32(block.timestamp);\r\n    price0Cumu = INetswapPair(pair).price0CumulativeLast();\r\n    // can use reserves without flash-manipulated risks because cumu changes if reserves change\r\n    (uint reserve0, uint reserve1, uint32 lastTime) = INetswapPair(pair).getReserves();\r\n    if (lastTime != currTime) {\r\n      unchecked {\r\n        uint32 timeElapsed = currTime - lastTime; // overflow is desired\r\n        price0Cumu += uint((reserve1 << 112) / reserve0) * timeElapsed; // overflow is desired\r\n      }\r\n    }\r\n  }\r\n\r\n  /// @dev Return the current price1 cumulative value on uniswap.\r\n  /// @param pair The uniswap pair to query for price1 cumulative value.\r\n  function currentPrice1Cumu(address pair) public view returns (uint price1Cumu) {\r\n    uint32 currTime = uint32(block.timestamp);\r\n    price1Cumu = INetswapPair(pair).price1CumulativeLast();\r\n    // can use reserves without flash-manipulated risks because cumu changes if reserves change\r\n    (uint reserve0, uint reserve1, uint32 lastTime) = INetswapPair(pair).getReserves();\r\n    if (lastTime != currTime) {\r\n      unchecked {\r\n        uint32 timeElapsed = currTime - lastTime; // overflow is desired\r\n        price1Cumu += uint((reserve0 << 112) / reserve1) * timeElapsed; // overflow is desired\r\n      }\r\n    }\r\n  }\r\n}\r\n",
  "sourcePath": "C:\\Users\\HP\\PoolContract\\contracts\\BetaOracleNetswap.sol",
  "compiler": {
    "name": "solc",
    "version": "0.8.6+commit.11564f7e.Emscripten.clang"
  },
  "schemaVersion": "3.4.4",
  "updatedAt": "2022-03-12T18:46:58.009Z",
  "devdoc": {
    "kind": "dev",
    "methods": {
      "acceptGovernor()": {
        "details": "Accepts to become the next governor. Must only be called by the pending governor."
      },
      "constructor": {
        "details": "Initializes the oracle contract.",
        "params": {
          "_factory": "Uniswap V2 factory address.",
          "_minTwapTime": "Minimum interval for TWAP time (in seconds).",
          "_weth": "WETH address."
        }
      },
      "convert(address,address,uint256)": {
        "details": "Returns the conversion from amount of from` to `to`.",
        "params": {
          "amount": "The amount of token for conversion.",
          "from": "The source token to convert.",
          "to": "The destination token to convert."
        }
      },
      "currentPrice0Cumu(address)": {
        "details": "Return the current price0 cumulative value on uniswap.",
        "params": {
          "pair": "The uniswap pair to query for price0 cumulative value."
        }
      },
      "currentPrice1Cumu(address)": {
        "details": "Return the current price1 cumulative value on uniswap.",
        "params": {
          "pair": "The uniswap pair to query for price1 cumulative value."
        }
      },
      "getAssetETHPrice(address)": {
        "details": "Returns the price of the given asset in terms of ETH (wei), multiplied by 2**112.",
        "params": {
          "token": "The token to get asset price of."
        }
      },
      "getAssetETHValue(address,uint256)": {
        "details": "Returns the given asset value in ETH (wei)",
        "params": {
          "amount": "The amount of token to query",
          "token": "The token to query for asset value"
        }
      },
      "initPriceFromPair(address)": {
        "details": "Initializes data points for price from pair for the given token.",
        "params": {
          "token": "The token to initialize the price."
        }
      },
      "massInitPriceFromPair(address[])": {
        "details": "Utility functions to initialize multiple pair prices at once.",
        "params": {
          "tokens": "Token list to mass initialize the prices."
        }
      },
      "massUpdatePriceFromPair(address[])": {
        "details": "Utility functions to update multiple pair prices at once.",
        "params": {
          "tokens": "Token list to mass update prices."
        }
      },
      "setExternalOracle(address[],address)": {
        "details": "Updates the external feed contract address for the given tokens by the governor.",
        "params": {
          "_ext": "The external price oracle contract.",
          "_tokens": "The tokens to update external price oracle contract."
        }
      },
      "setPendingGovernor(address)": {
        "details": "Sets the next governor, which will be in effect when they accept.",
        "params": {
          "_pendingGovernor": "The next governor address."
        }
      },
      "updatePriceFromPair(address)": {
        "details": "Updates price info for the given token and returns the last price.",
        "params": {
          "token": "The token to update token-WETH pair price."
        }
      }
    },
    "version": 1
  },
  "userdoc": {
    "kind": "user",
    "methods": {},
    "version": 1
  }
}