{
  "contractName": "BetaInterestModelV1",
  "abi": [
    {
      "inputs": [
        {
          "internalType": "uint256",
          "name": "_initialRate",
          "type": "uint256"
        },
        {
          "internalType": "uint256",
          "name": "_minRate",
          "type": "uint256"
        },
        {
          "internalType": "uint256",
          "name": "_maxRate",
          "type": "uint256"
        },
        {
          "internalType": "uint256",
          "name": "_adjustRate",
          "type": "uint256"
        }
      ],
      "stateMutability": "nonpayable",
      "type": "constructor"
    },
    {
      "inputs": [],
      "name": "adjustRate",
      "outputs": [
        {
          "internalType": "uint256",
          "name": "",
          "type": "uint256"
        }
      ],
      "stateMutability": "view",
      "type": "function"
    },
    {
      "inputs": [],
      "name": "initialRate",
      "outputs": [
        {
          "internalType": "uint256",
          "name": "",
          "type": "uint256"
        }
      ],
      "stateMutability": "view",
      "type": "function"
    },
    {
      "inputs": [],
      "name": "maxRate",
      "outputs": [
        {
          "internalType": "uint256",
          "name": "",
          "type": "uint256"
        }
      ],
      "stateMutability": "view",
      "type": "function"
    },
    {
      "inputs": [],
      "name": "minRate",
      "outputs": [
        {
          "internalType": "uint256",
          "name": "",
          "type": "uint256"
        }
      ],
      "stateMutability": "view",
      "type": "function"
    },
    {
      "inputs": [
        {
          "internalType": "uint256",
          "name": "prevRate",
          "type": "uint256"
        },
        {
          "internalType": "uint256",
          "name": "totalAvailable",
          "type": "uint256"
        },
        {
          "internalType": "uint256",
          "name": "totalLoan",
          "type": "uint256"
        },
        {
          "internalType": "uint256",
          "name": "timePassed",
          "type": "uint256"
        }
      ],
      "name": "getNextInterestRate",
      "outputs": [
        {
          "internalType": "uint256",
          "name": "",
          "type": "uint256"
        }
      ],
      "stateMutability": "view",
      "type": "function"
    }
  ],
  "bytecode": "0x61010060405234801561001157600080fd5b5060405161066b38038061066b833981016040819052610030916100f2565b8183106100845760405162461bcd60e51b815260206004820152601c60248201527f636f6e7374727563746f722f6261642d6d696e2d6d61782d726174650000000060448201526064015b60405180910390fd5b670de0b6b3a764000081106100db5760405162461bcd60e51b815260206004820152601b60248201527f636f6e7374727563746f722f6261642d61646a7573742d726174650000000000604482015260640161007b565b60809390935260a09190915260c05260e052610128565b6000806000806080858703121561010857600080fd5b505082516020840151604085015160609095015191969095509092509050565b60805160a05160c05160e0516104eb6101806000396000818160e8015281816101830152818161020f01526102bb01526000818160c101526103a10152600081816061015261037b01526000609a01526104eb6000f3fe608060405234801561001057600080fd5b50600436106100575760003560e01c80630cb604431461005c5780639e51051f14610095578063ece1d6e5146100bc578063f467d759146100e3578063fae7f00d1461010a575b600080fd5b6100837f000000000000000000000000000000000000000000000000000000000000000081565b60405190815260200160405180910390f35b6100837f000000000000000000000000000000000000000000000000000000000000000081565b6100837f000000000000000000000000000000000000000000000000000000000000000081565b6100837f000000000000000000000000000000000000000000000000000000000000000081565b6100836101183660046103fd565b600080610125848661042f565b90508061013557859150506103cd565b60008161014a86670de0b6b3a7640000610469565b6101549190610447565b9050600061016585620151806103d5565b905060006706f05b59d3b200008310156101ca57620151806101a7837f0000000000000000000000000000000000000000000000000000000000000000610469565b6101b19190610447565b6101c390670de0b6b3a7640000610488565b9050610351565b6709b6e64a8ec6000083101561026b5760006101ee846709b6e64a8ec60000610488565b6101f9906005610469565b9050670de0b6b3a76400006201518084610233847f0000000000000000000000000000000000000000000000000000000000000000610469565b61023d9190610469565b6102479190610447565b6102519190610447565b61026390670de0b6b3a7640000610488565b915050610351565b670b1a2bc2ec50000083101561028a5750670de0b6b3a7640000610351565b600061029e670b1a2bc2ec50000085610488565b6102a9906005610469565b90506000670de0b6b3a76400006102e07f000000000000000000000000000000000000000000000000000000000000000082610488565b6102f8906a0c097ce7bc90715b34b9f160241b610447565b6103029190610488565b9050670de0b6b3a7640000620151808561031c8585610469565b6103269190610469565b6103309190610447565b61033a9190610447565b61034c90670de0b6b3a764000061042f565b925050505b6000670de0b6b3a7640000610366838c610469565b6103709190610447565b90506103c561039f827f00000000000000000000000000000000000000000000000000000000000000006103ed565b7f00000000000000000000000000000000000000000000000000000000000000006103d5565b955050505050505b949350505050565b60008183106103e457816103e6565b825b9392505050565b6000818310156103e457816103e6565b6000806000806080858703121561041357600080fd5b5050823594602084013594506040840135936060013592509050565b600082198211156104425761044261049f565b500190565b60008261046457634e487b7160e01b600052601260045260246000fd5b500490565b60008160001904831182151516156104835761048361049f565b500290565b60008282101561049a5761049a61049f565b500390565b634e487b7160e01b600052601160045260246000fdfea26469706673582212207e2164ec3e16fbf853574b4d147eb9d1a32220f037046967696cabc004916ddb64736f6c63430008060033",
  "immutableReferences": {
    "7350": [
      {
        "length": 32,
        "start": 154
      }
    ],
    "7352": [
      {
        "length": 32,
        "start": 97
      },
      {
        "length": 32,
        "start": 891
      }
    ],
    "7354": [
      {
        "length": 32,
        "start": 193
      },
      {
        "length": 32,
        "start": 929
      }
    ],
    "7356": [
      {
        "length": 32,
        "start": 232
      },
      {
        "length": 32,
        "start": 387
      },
      {
        "length": 32,
        "start": 527
      },
      {
        "length": 32,
        "start": 699
      }
    ]
  },
  "source": "// SPDX-License-Identifier: BUSL-1.1\r\npragma solidity 0.8.6;\r\n\r\nimport \"@openzeppelin/contracts/utils/math/Math.sol\";\r\n\r\nimport '../interfaces/IBetaInterestModel.sol';\r\n\r\ncontract BetaInterestModelV1 is IBetaInterestModel {\r\n  uint public immutable override initialRate;\r\n  uint public immutable minRate;\r\n  uint public immutable maxRate;\r\n  uint public immutable adjustRate; // between 0 and 1e18, the higher the more aggressive\r\n\r\n  constructor(\r\n    uint _initialRate,\r\n    uint _minRate,\r\n    uint _maxRate,\r\n    uint _adjustRate\r\n  ) {\r\n    require(_minRate < _maxRate, 'constructor/bad-min-max-rate');\r\n    require(_adjustRate < 1e18, 'constructor/bad-adjust-rate');\r\n    initialRate = _initialRate;\r\n    minRate = _minRate;\r\n    maxRate = _maxRate;\r\n    adjustRate = _adjustRate;\r\n  }\r\n\r\n  /// @dev Returns the next interest rate for the market.\r\n  /// @param prevRate The current interest rate.\r\n  /// @param totalAvailable The current available liquidity.\r\n  /// @param totalLoan The current outstanding loan.\r\n  /// @param timePassed The time passed since last interest rate rebase in seconds.\r\n  /// @notice At utilization 0-50%, the interest rate will decrease at half-per-day rate\r\n  ///         At utilization 50-70%, the interest rate will decrease linearly from 0 to half-per-day rate\r\n  ///         At utilization 70-80%, the interest rate will stay the same.\r\n  ///         At utilization 80-100%, the interest rate will increase linearly from 0 to twice-per-day rate.\r\n  function getNextInterestRate(\r\n    uint prevRate,\r\n    uint totalAvailable,\r\n    uint totalLoan,\r\n    uint timePassed\r\n  ) external view override returns (uint) {\r\n    uint totalLiquidity = totalAvailable + totalLoan;\r\n    if (totalLiquidity == 0) {\r\n      return prevRate;\r\n    }\r\n    uint utilRate = (totalLoan * 1e18) / totalLiquidity;\r\n    uint cappedtimePassed = Math.min(timePassed, 1 days);\r\n    uint multRate;\r\n    if (utilRate < 0.5e18) {\r\n      // utilization 0-50%, decrease at half-per-day rate\r\n      multRate = 1e18 - (adjustRate * cappedtimePassed) / 1 days;\r\n    } else if (utilRate < 0.7e18) {\r\n      // utilization 50-70%, decrease linearly from 0 to half-per-day rate, depending on how far the utilization is from 70%\r\n      uint downScale = (0.7e18 - utilRate) * 5; // *5 is equivalent to /0.2\r\n      multRate = 1e18 - (adjustRate * downScale * cappedtimePassed) / 1 days / 1e18;\r\n    } else if (utilRate < 0.8e18) {\r\n      // utilization 70-80%, stay the same\r\n      multRate = 1e18;\r\n    } else {\r\n      // utilization 80-100%, increase linearly from 0 to twice-per-day rate, depending on how far the utilization is from 80%\r\n      uint upScale = (utilRate - 0.8e18) * 5; // *5 is equivalent to /0.2\r\n      uint upMaxRate = 1e36 / (1e18 - adjustRate) - 1e18;\r\n      multRate = 1e18 + (upMaxRate * upScale * cappedtimePassed) / 1 days / 1e18;\r\n    }\r\n    uint targetRate = (prevRate * multRate) / 1e18;\r\n    return Math.min(Math.max(targetRate, minRate), maxRate);\r\n  }\r\n}\r\n",
  "sourcePath": "C:\\Users\\HP\\PoolContract\\contracts\\BetaInterestModelV1.sol",
  "compiler": {
    "name": "solc",
    "version": "0.8.6+commit.11564f7e.Emscripten.clang"
  },
  "schemaVersion": "3.4.4",
  "updatedAt": "2022-03-11T12:18:17.847Z",
  "devdoc": {
    "kind": "dev",
    "methods": {
      "getNextInterestRate(uint256,uint256,uint256,uint256)": {
        "details": "Returns the next interest rate for the market.",
        "params": {
          "prevRate": "The current interest rate.",
          "timePassed": "The time passed since last interest rate rebase in seconds.",
          "totalAvailable": "The current available liquidity.",
          "totalLoan": "The current outstanding loan."
        }
      }
    },
    "stateVariables": {
      "initialRate": {
        "details": "Returns the initial interest rate per year (times 1e18)."
      }
    },
    "version": 1
  },
  "userdoc": {
    "kind": "user",
    "methods": {
      "getNextInterestRate(uint256,uint256,uint256,uint256)": {
        "notice": "At utilization 0-50%, the interest rate will decrease at half-per-day rate         At utilization 50-70%, the interest rate will decrease linearly from 0 to half-per-day rate         At utilization 70-80%, the interest rate will stay the same.         At utilization 80-100%, the interest rate will increase linearly from 0 to twice-per-day rate."
      }
    },
    "version": 1
  }
}