{
  "contractName": "BetaConfig",
  "abi": [
    {
      "inputs": [
        {
          "internalType": "address",
          "name": "_reserveBeneficiary",
          "type": "address"
        },
        {
          "internalType": "uint256",
          "name": "_reserveRate",
          "type": "uint256"
        }
      ],
      "stateMutability": "nonpayable",
      "type": "constructor"
    },
    {
      "anonymous": false,
      "inputs": [
        {
          "indexed": true,
          "internalType": "address",
          "name": "token",
          "type": "address"
        },
        {
          "indexed": false,
          "internalType": "uint256",
          "name": "factor",
          "type": "uint256"
        },
        {
          "indexed": false,
          "internalType": "uint256",
          "name": "maxAmount",
          "type": "uint256"
        }
      ],
      "name": "SetCollInfo",
      "type": "event"
    },
    {
      "anonymous": false,
      "inputs": [
        {
          "indexed": false,
          "internalType": "address",
          "name": "governor",
          "type": "address"
        }
      ],
      "name": "SetGovernor",
      "type": "event"
    },
    {
      "anonymous": false,
      "inputs": [
        {
          "indexed": false,
          "internalType": "address",
          "name": "pendingGovernor",
          "type": "address"
        }
      ],
      "name": "SetPendingGovernor",
      "type": "event"
    },
    {
      "anonymous": false,
      "inputs": [
        {
          "indexed": true,
          "internalType": "address",
          "name": "beneficiary",
          "type": "address"
        },
        {
          "indexed": false,
          "internalType": "uint256",
          "name": "rate",
          "type": "uint256"
        }
      ],
      "name": "SetReserveInfo",
      "type": "event"
    },
    {
      "anonymous": false,
      "inputs": [
        {
          "indexed": true,
          "internalType": "uint256",
          "name": "level",
          "type": "uint256"
        },
        {
          "indexed": false,
          "internalType": "uint64",
          "name": "safetyLTV",
          "type": "uint64"
        },
        {
          "indexed": false,
          "internalType": "uint64",
          "name": "liquidationLTV",
          "type": "uint64"
        },
        {
          "indexed": false,
          "internalType": "uint64",
          "name": "killBountyRate",
          "type": "uint64"
        }
      ],
      "name": "SetRiskConfig",
      "type": "event"
    },
    {
      "anonymous": false,
      "inputs": [
        {
          "indexed": true,
          "internalType": "address",
          "name": "token",
          "type": "address"
        },
        {
          "indexed": false,
          "internalType": "uint256",
          "name": "level",
          "type": "uint256"
        }
      ],
      "name": "SetRiskLevel",
      "type": "event"
    },
    {
      "inputs": [
        {
          "internalType": "address",
          "name": "",
          "type": "address"
        }
      ],
      "name": "cFactors",
      "outputs": [
        {
          "internalType": "uint256",
          "name": "",
          "type": "uint256"
        }
      ],
      "stateMutability": "view",
      "type": "function"
    },
    {
      "inputs": [
        {
          "internalType": "address",
          "name": "",
          "type": "address"
        }
      ],
      "name": "cMaxAmounts",
      "outputs": [
        {
          "internalType": "uint256",
          "name": "",
          "type": "uint256"
        }
      ],
      "stateMutability": "view",
      "type": "function"
    },
    {
      "inputs": [],
      "name": "governor",
      "outputs": [
        {
          "internalType": "address",
          "name": "",
          "type": "address"
        }
      ],
      "stateMutability": "view",
      "type": "function"
    },
    {
      "inputs": [],
      "name": "pendingGovernor",
      "outputs": [
        {
          "internalType": "address",
          "name": "",
          "type": "address"
        }
      ],
      "stateMutability": "view",
      "type": "function"
    },
    {
      "inputs": [
        {
          "internalType": "uint256",
          "name": "",
          "type": "uint256"
        }
      ],
      "name": "rConfigs",
      "outputs": [
        {
          "internalType": "uint64",
          "name": "safetyLTV",
          "type": "uint64"
        },
        {
          "internalType": "uint64",
          "name": "liquidationLTV",
          "type": "uint64"
        },
        {
          "internalType": "uint64",
          "name": "killBountyRate",
          "type": "uint64"
        }
      ],
      "stateMutability": "view",
      "type": "function"
    },
    {
      "inputs": [
        {
          "internalType": "address",
          "name": "",
          "type": "address"
        }
      ],
      "name": "rLevels",
      "outputs": [
        {
          "internalType": "uint256",
          "name": "",
          "type": "uint256"
        }
      ],
      "stateMutability": "view",
      "type": "function"
    },
    {
      "inputs": [],
      "name": "reserveBeneficiary",
      "outputs": [
        {
          "internalType": "address",
          "name": "",
          "type": "address"
        }
      ],
      "stateMutability": "view",
      "type": "function"
    },
    {
      "inputs": [],
      "name": "reserveRate",
      "outputs": [
        {
          "internalType": "uint256",
          "name": "",
          "type": "uint256"
        }
      ],
      "stateMutability": "view",
      "type": "function"
    },
    {
      "inputs": [
        {
          "internalType": "address",
          "name": "_pendingGovernor",
          "type": "address"
        }
      ],
      "name": "setPendingGovernor",
      "outputs": [],
      "stateMutability": "nonpayable",
      "type": "function"
    },
    {
      "inputs": [],
      "name": "acceptGovernor",
      "outputs": [],
      "stateMutability": "nonpayable",
      "type": "function"
    },
    {
      "inputs": [
        {
          "internalType": "address[]",
          "name": "tokens",
          "type": "address[]"
        },
        {
          "internalType": "uint256[]",
          "name": "factors",
          "type": "uint256[]"
        },
        {
          "internalType": "uint256[]",
          "name": "maxAmounts",
          "type": "uint256[]"
        }
      ],
      "name": "setCollInfos",
      "outputs": [],
      "stateMutability": "nonpayable",
      "type": "function"
    },
    {
      "inputs": [
        {
          "internalType": "address[]",
          "name": "tokens",
          "type": "address[]"
        },
        {
          "internalType": "uint256[]",
          "name": "levels",
          "type": "uint256[]"
        }
      ],
      "name": "setRiskLevels",
      "outputs": [],
      "stateMutability": "nonpayable",
      "type": "function"
    },
    {
      "inputs": [
        {
          "internalType": "uint256[]",
          "name": "levels",
          "type": "uint256[]"
        },
        {
          "components": [
            {
              "internalType": "uint64",
              "name": "safetyLTV",
              "type": "uint64"
            },
            {
              "internalType": "uint64",
              "name": "liquidationLTV",
              "type": "uint64"
            },
            {
              "internalType": "uint64",
              "name": "killBountyRate",
              "type": "uint64"
            }
          ],
          "internalType": "struct BetaConfig.RiskConfig[]",
          "name": "configs",
          "type": "tuple[]"
        }
      ],
      "name": "setRiskConfigs",
      "outputs": [],
      "stateMutability": "nonpayable",
      "type": "function"
    },
    {
      "inputs": [
        {
          "internalType": "address",
          "name": "_reserveBeneficiary",
          "type": "address"
        },
        {
          "internalType": "uint256",
          "name": "_reserveRate",
          "type": "uint256"
        }
      ],
      "name": "setReserveInfo",
      "outputs": [],
      "stateMutability": "nonpayable",
      "type": "function"
    },
    {
      "inputs": [
        {
          "internalType": "address",
          "name": "_token",
          "type": "address"
        }
      ],
      "name": "getCollFactor",
      "outputs": [
        {
          "internalType": "uint256",
          "name": "",
          "type": "uint256"
        }
      ],
      "stateMutability": "view",
      "type": "function"
    },
    {
      "inputs": [
        {
          "internalType": "address",
          "name": "_token",
          "type": "address"
        }
      ],
      "name": "getCollMaxAmount",
      "outputs": [
        {
          "internalType": "uint256",
          "name": "",
          "type": "uint256"
        }
      ],
      "stateMutability": "view",
      "type": "function"
    },
    {
      "inputs": [
        {
          "internalType": "address",
          "name": "_token",
          "type": "address"
        }
      ],
      "name": "getRiskLevel",
      "outputs": [
        {
          "internalType": "uint256",
          "name": "",
          "type": "uint256"
        }
      ],
      "stateMutability": "view",
      "type": "function"
    },
    {
      "inputs": [
        {
          "internalType": "address",
          "name": "_token",
          "type": "address"
        }
      ],
      "name": "getSafetyLTV",
      "outputs": [
        {
          "internalType": "uint256",
          "name": "",
          "type": "uint256"
        }
      ],
      "stateMutability": "view",
      "type": "function"
    },
    {
      "inputs": [
        {
          "internalType": "address",
          "name": "_token",
          "type": "address"
        }
      ],
      "name": "getLiquidationLTV",
      "outputs": [
        {
          "internalType": "uint256",
          "name": "",
          "type": "uint256"
        }
      ],
      "stateMutability": "view",
      "type": "function"
    },
    {
      "inputs": [
        {
          "internalType": "address",
          "name": "_token",
          "type": "address"
        }
      ],
      "name": "getKillBountyRate",
      "outputs": [
        {
          "internalType": "uint256",
          "name": "",
          "type": "uint256"
        }
      ],
      "stateMutability": "view",
      "type": "function"
    }
  ],
  "bytecode": "0x60806040523480156200001157600080fd5b50604051620017bb380380620017bb8339810160408190526200003491620001fb565b600080546001600160a01b031916339081179091556040519081527fbce074c8369e26e70e1ae2f14fc944da352cfe6f52e2de9572f0c9942a24b7fc9060200160405180910390a162000088828262000090565b505062000237565b6000546001600160a01b03163314620000f05760405162461bcd60e51b815260206004820152601b60248201527f73657452657365727665496e666f2f6e6f742d676f7665726e6f72000000000060448201526064015b60405180910390fd5b670de0b6b3a76400008110620001495760405162461bcd60e51b815260206004820152601760248201527f73657452657365727665496e666f2f6261642d726174650000000000000000006044820152606401620000e7565b6001600160a01b038216620001a15760405162461bcd60e51b815260206004820152601e60248201527f73657452657365727665496e666f2f6261642d62656e656669636961727900006044820152606401620000e7565b600280546001600160a01b0319166001600160a01b03841690811790915560038290556040518281527f8d3f97a5040a370cef457e245abf5657ef6611ff7b94eff72aaa107bdca8cdd69060200160405180910390a25050565b600080604083850312156200020f57600080fd5b82516001600160a01b03811681146200022757600080fd5b6020939093015192949293505050565b61157480620002476000396000f3fe608060405234801561001057600080fd5b50600436106100fc5760003560e01c80630c340a24146101015780630f4733f11461012a5780631615f2d41461015857806317b793c61461016b578063232b9bb914610180578063232cd46f146101a057806337ea6093146101ee57806358d7bf8014610201578063665e2e531461020a57806373e0835a1461021d57806390ddf2b214610230578063914870eb146102435780639bb2d34414610256578063e3056a3414610269578063e58bb6391461027c578063e84e6c3314610284578063eb94ee1014610297578063eecce599146102aa578063f235757f146102ca578063f6bd51f6146102dd575b600080fd5b600054610114906001600160a01b031681565b60405161012191906113ed565b60405180910390f35b61014a6101383660046111ce565b60046020526000908152604090205481565b604051908152602001610121565b61014a6101663660046111ce565b6102f0565b61017e6101793660046111f0565b610364565b005b61014a61018e3660046111ce565b60056020526000908152604090205481565b6101df6101ae3660046113b7565b6007602052600090815260409020546001600160401b0380821691600160401b8104821691600160801b9091041683565b60405161012193929190611432565b61014a6101fc3660046111ce565b6104bd565b61014a60035481565b61014a6102183660046111ce565b61052c565b61014a61022b3660046111ce565b6105a1565b61014a61023e3660046111ce565b61061d565b600254610114906001600160a01b031681565b61017e61026436600461121a565b61068e565b600154610114906001600160a01b031681565b61017e610832565b61017e610292366004611285565b6108ee565b61014a6102a53660046111ce565b610be8565b61014a6102b83660046111ce565b60066020526000908152604090205481565b61017e6102d83660046111ce565b610c63565b61017e6102eb36600461131e565b610d13565b6001600160a01b03811660009081526006602052604081205460001981141561035e5760405162461bcd60e51b815260206004820152601b60248201527a19d95d149a5cdad3195d995b0bd898590b5c9a5cdacb5b195d995b602a1b60448201526064015b60405180910390fd5b92915050565b6000546001600160a01b031633146103bc5760405162461bcd60e51b815260206004820152601b60248201527a39b2ba2932b9b2b93b32a4b7333797b737ba16b3b7bb32b93737b960291b6044820152606401610355565b670de0b6b3a7640000811061040d5760405162461bcd60e51b815260206004820152601760248201527673657452657365727665496e666f2f6261642d7261746560481b6044820152606401610355565b6001600160a01b0382166104635760405162461bcd60e51b815260206004820152601e60248201527f73657452657365727665496e666f2f6261642d62656e656669636961727900006044820152606401610355565b600280546001600160a01b0319166001600160a01b03841690811790915560038290556040518281527f8d3f97a5040a370cef457e245abf5657ef6611ff7b94eff72aaa107bdca8cdd69060200160405180910390a25050565b600080600760006104cd856102f0565b81526020810191909152604001600020546001600160401b031690508061035e5760405162461bcd60e51b815260206004820152601360248201527233b2ba29b0b332ba3ca62a2b17b73796b63a3b60691b6044820152606401610355565b6001600160a01b0381166000908152600560205260408120548061035e5760405162461bcd60e51b815260206004820152602660248201527f676574436f6c6c466163746f722f6e6f2d636f6c6c61746572616c2d6d61782d604482015265185b5bdd5b9d60d21b6064820152608401610355565b600080600760006105b1856102f0565b8152602081019190915260400160002054600160801b90046001600160401b031690508061035e5760405162461bcd60e51b81526020600482015260196024820152786765744b696c6c426f756e7479526174652f6e6f2d7261746560381b6044820152606401610355565b6001600160a01b0381166000908152600460205260408120548061035e5760405162461bcd60e51b815260206004820152602260248201527f676574436f6c6c466163746f722f6e6f2d636f6c6c61746572616c2d6661637460448201526137b960f11b6064820152608401610355565b6000546001600160a01b031633146106e55760405162461bcd60e51b815260206004820152601a60248201527939b2ba2934b9b5a632bb32b63997b737ba16b3b7bb32b93737b960311b6044820152606401610355565b82811461072f5760405162461bcd60e51b81526020600482015260186024820152770e6cae8a4d2e6d698caeccad8e65ec4c2c85ad8cadccee8d60431b6044820152606401610355565b60005b8381101561082b5782828281811061074c5761074c61147e565b90506020020135600660008787858181106107695761076961147e565b905060200201602081019061077e91906111ce565b6001600160a01b031681526020810191909152604001600020558484828181106107aa576107aa61147e565b90506020020160208101906107bf91906111ce565b6001600160a01b03167f22e68e256794fc1693f9bae59dd2c7162c98fa6979d5716f52b9b26f8a5d27538484848181106107fb576107fb61147e565b9050602002013560405161081191815260200190565b60405180910390a28061082381611455565b915050610732565b5050505050565b6001546001600160a01b031633146108985760405162461bcd60e51b815260206004820152602360248201527f616363657074476f7665726e6f722f6e6f742d70656e64696e672d676f7665726044820152623737b960e91b6064820152608401610355565b600180546001600160a01b031990811690915560008054339216821790556040517fbce074c8369e26e70e1ae2f14fc944da352cfe6f52e2de9572f0c9942a24b7fc916108e4916113ed565b60405180910390a1565b6000546001600160a01b031633146109445760405162461bcd60e51b815260206004820152601960248201527839b2ba21b7b63624b73337b997b737ba16b3b7bb32b93737b960391b6044820152606401610355565b8483146109635760405162461bcd60e51b815260040161035590611401565b8481146109825760405162461bcd60e51b815260040161035590611401565b60005b85811015610bdf57670de0b6b3a76400008585838181106109a8576109a861147e565b9050602002013511156109fd5760405162461bcd60e51b815260206004820152601d60248201527f736574436f6c6c496e666f732f6261642d666163746f722d76616c75650000006044820152606401610355565b6000838383818110610a1157610a1161147e565b9050602002013511610a6f5760405162461bcd60e51b815260206004820152602160248201527f736574436f6c6c496e666f732f6261642d6d61782d616d6f756e742d76616c756044820152606560f81b6064820152608401610355565b848482818110610a8157610a8161147e565b9050602002013560046000898985818110610a9e57610a9e61147e565b9050602002016020810190610ab391906111ce565b6001600160a01b03168152602081019190915260400160002055828282818110610adf57610adf61147e565b9050602002013560056000898985818110610afc57610afc61147e565b9050602002016020810190610b1191906111ce565b6001600160a01b03168152602081019190915260400160002055868682818110610b3d57610b3d61147e565b9050602002016020810190610b5291906111ce565b6001600160a01b03167f0187d64934611c40d0a1b72a984b2c8c48600ce966abb5ce82138542e85d2a72868684818110610b8e57610b8e61147e565b90506020020135858585818110610ba757610ba761147e565b90506020020135604051610bc5929190918252602082015260400190565b60405180910390a280610bd781611455565b915050610985565b50505050505050565b60008060076000610bf8856102f0565b8152602081019190915260400160002054600160401b90046001600160401b031690508061035e5760405162461bcd60e51b815260206004820152601860248201527733b2ba2634b8bab4b230ba34b7b7262a2b17b73796b63a3b60411b6044820152606401610355565b6000546001600160a01b03163314610cbd5760405162461bcd60e51b815260206004820152601f60248201527f73657450656e64696e67476f7665726e6f722f6e6f742d676f7665726e6f72006044820152606401610355565b600180546001600160a01b0319166001600160a01b0383161790556040517f964dea888b00b2ab53f13dfe7ca334b46e99338c222ae232d98547a1da019f6090610d089083906113ed565b60405180910390a150565b6000546001600160a01b03163314610d6b5760405162461bcd60e51b815260206004820152601b60248201527a39b2ba2934b9b5a1b7b73334b3b997b737ba16b3b7bb32b93737b960291b6044820152606401610355565b828114610db65760405162461bcd60e51b81526020600482015260196024820152780e6cae8a4d2e6d686dedcccd2cee65ec4c2c85ad8cadccee8d603b1b6044820152606401610355565b60005b8381101561082b57670de0b6b3a7640000838383818110610ddc57610ddc61147e565b610df292602060609092020190810191506113d0565b6001600160401b03161115610e495760405162461bcd60e51b815260206004820152601d60248201527f7365745269736b436f6e666967732f6261642d7361666574792d6c74760000006044820152606401610355565b670de0b6b3a7640000838383818110610e6457610e6461147e565b9050606002016020016020810190610e7c91906113d0565b6001600160401b03161115610ede5760405162461bcd60e51b815260206004820152602260248201527f7365745269736b436f6e666967732f6261642d6c69717569646174696f6e2d6c6044820152613a3b60f11b6064820152608401610355565b828282818110610ef057610ef061147e565b9050606002016020016020810190610f0891906113d0565b6001600160401b0316838383818110610f2357610f2361147e565b610f3992602060609092020190810191506113d0565b6001600160401b031610610f9e5760405162461bcd60e51b815260206004820152602660248201527f7365745269736b436f6e666967732f696e636f6e73697374656e742d6c74762d60448201526576616c75657360d01b6064820152608401610355565b670de0b6b3a7640000838383818110610fb957610fb961147e565b9050606002016040016020810190610fd191906113d0565b6001600160401b031611156110365760405162461bcd60e51b815260206004820152602560248201527f7365745269736b436f6e666967732f6261642d6b696c6c2d7265776172642d6660448201526430b1ba37b960d91b6064820152608401610355565b8282828181106110485761104861147e565b905060600201600760008787858181106110645761106461147e565b90506020020135815260200190815260200160002081816110859190611494565b90505084848281811061109a5761109a61147e565b905060200201357f1c6d6a932ad9df0dbd134f8198babe5d3471d49ea2706ef89010f165604ed37c8484848181106110d4576110d461147e565b6110ea92602060609092020190810191506113d0565b8585858181106110fc576110fc61147e565b905060600201602001602081019061111491906113d0565b8686868181106111265761112661147e565b905060600201604001602081019061113e91906113d0565b60405161114d93929190611432565b60405180910390a28061115f81611455565b915050610db9565b80356001600160a01b038116811461117e57600080fd5b919050565b60008083601f84011261119557600080fd5b5081356001600160401b038111156111ac57600080fd5b6020830191508360208260051b85010111156111c757600080fd5b9250929050565b6000602082840312156111e057600080fd5b6111e982611167565b9392505050565b6000806040838503121561120357600080fd5b61120c83611167565b946020939093013593505050565b6000806000806040858703121561123057600080fd5b84356001600160401b038082111561124757600080fd5b61125388838901611183565b9096509450602087013591508082111561126c57600080fd5b5061127987828801611183565b95989497509550505050565b6000806000806000806060878903121561129e57600080fd5b86356001600160401b03808211156112b557600080fd5b6112c18a838b01611183565b909850965060208901359150808211156112da57600080fd5b6112e68a838b01611183565b909650945060408901359150808211156112ff57600080fd5b5061130c89828a01611183565b979a9699509497509295939492505050565b6000806000806040858703121561133457600080fd5b84356001600160401b038082111561134b57600080fd5b61135788838901611183565b9096509450602087013591508082111561137057600080fd5b818701915087601f83011261138457600080fd5b81358181111561139357600080fd5b8860206060830285010111156113a857600080fd5b95989497505060200194505050565b6000602082840312156113c957600080fd5b5035919050565b6000602082840312156113e257600080fd5b81356111e981611526565b6001600160a01b0391909116815260200190565b6020808252601790820152760e6cae886ded8d892dcccdee65ec4c2c85ad8cadccee8d604b1b604082015260600190565b6001600160401b0393841681529183166020830152909116604082015260600190565b600060001982141561147757634e487b7160e01b600052601160045260246000fd5b5060010190565b634e487b7160e01b600052603260045260246000fd5b813561149f81611526565b81546001600160401b031981166001600160401b0392909216918217835560208401356114cb81611526565b600160401b600160801b03604091821b166001600160801b03198316841781178555908501356114fa81611526565b6001600160c01b0319929092169092179190911760809190911b600160801b600160c01b031617905550565b6001600160401b038116811461153b57600080fd5b5056fea26469706673582212201236abde588183b6d915b8e595f4032421210fe747abfc563a2be8c5b94c90cc64736f6c63430008060033",
  "immutableReferences": {},
  "source": "// SPDX-License-Identifier: BUSL-1.1\r\npragma solidity 0.8.6;\r\n\r\nimport '../interfaces/IBetaConfig.sol';\r\n\r\ncontract BetaConfig is IBetaConfig {\r\n  struct RiskConfig {\r\n    uint64 safetyLTV;\r\n    uint64 liquidationLTV;\r\n    uint64 killBountyRate;\r\n  }\r\n\r\n  event SetGovernor(address governor);\r\n  event SetPendingGovernor(address pendingGovernor);\r\n  event SetCollInfo(address indexed token, uint factor, uint maxAmount);\r\n  event SetRiskLevel(address indexed token, uint level);\r\n  event SetRiskConfig(\r\n    uint indexed level,\r\n    uint64 safetyLTV,\r\n    uint64 liquidationLTV,\r\n    uint64 killBountyRate\r\n  );\r\n  event SetReserveInfo(address indexed beneficiary, uint rate);\r\n\r\n  address public governor;\r\n  address public pendingGovernor;\r\n  address public override reserveBeneficiary;\r\n  uint public override reserveRate;\r\n\r\n  mapping(address => uint) public cFactors; // collateral factors\r\n  mapping(address => uint) public cMaxAmounts; // collateral max amounts\r\n  mapping(address => uint) public rLevels; // risk levels\r\n  mapping(uint => RiskConfig) public rConfigs; // risk configurations\r\n\r\n  constructor(address _reserveBeneficiary, uint _reserveRate) {\r\n    governor = msg.sender;\r\n    emit SetGovernor(msg.sender);\r\n    setReserveInfo(_reserveBeneficiary, _reserveRate);\r\n  }\r\n\r\n  /// @dev Sets the next governor, which will be in effect when they accept.\r\n  /// @param _pendingGovernor The next governor address.\r\n  function setPendingGovernor(address _pendingGovernor) external {\r\n    require(msg.sender == governor, 'setPendingGovernor/not-governor');\r\n    pendingGovernor = _pendingGovernor;\r\n    emit SetPendingGovernor(_pendingGovernor);\r\n  }\r\n\r\n  /// @dev Accepts to become the next governor. Must only be called by the pending governor.\r\n  function acceptGovernor() external {\r\n    require(msg.sender == pendingGovernor, 'acceptGovernor/not-pending-governor');\r\n    pendingGovernor = address(0);\r\n    governor = msg.sender;\r\n    emit SetGovernor(msg.sender);\r\n  }\r\n\r\n  /// @dev Updates collateral information of the given tokens.\r\n  function setCollInfos(\r\n    address[] calldata tokens,\r\n    uint[] calldata factors,\r\n    uint[] calldata maxAmounts\r\n  ) external {\r\n    require(msg.sender == governor, 'setCollInfos/not-governor');\r\n    require(tokens.length == factors.length, 'setCollInfos/bad-length');\r\n    require(tokens.length == maxAmounts.length, 'setCollInfos/bad-length');\r\n    for (uint idx = 0; idx < tokens.length; idx++) {\r\n      require(factors[idx] <= 1e18, 'setCollInfos/bad-factor-value');\r\n      require(maxAmounts[idx] > 0, 'setCollInfos/bad-max-amount-value');\r\n      cFactors[tokens[idx]] = factors[idx];\r\n      cMaxAmounts[tokens[idx]] = maxAmounts[idx];\r\n      emit SetCollInfo(tokens[idx], factors[idx], maxAmounts[idx]);\r\n    }\r\n  }\r\n\r\n  /// @dev Sets the risk levels of the given tokens.\r\n  function setRiskLevels(address[] calldata tokens, uint[] calldata levels) external {\r\n    require(msg.sender == governor, 'setRiskLevels/not-governor');\r\n    require(tokens.length == levels.length, 'setRiskLevels/bad-length');\r\n    for (uint idx = 0; idx < tokens.length; idx++) {\r\n      rLevels[tokens[idx]] = levels[idx];\r\n      emit SetRiskLevel(tokens[idx], levels[idx]);\r\n    }\r\n  }\r\n\r\n  /// @dev Sets the risk configurations of the given levels.\r\n  function setRiskConfigs(uint[] calldata levels, RiskConfig[] calldata configs) external {\r\n    require(msg.sender == governor, 'setRiskConfigs/not-governor');\r\n    require(levels.length == configs.length, 'setRiskConfigs/bad-length');\r\n    for (uint idx = 0; idx < levels.length; idx++) {\r\n      require(configs[idx].safetyLTV <= 1e18, 'setRiskConfigs/bad-safety-ltv');\r\n      require(configs[idx].liquidationLTV <= 1e18, 'setRiskConfigs/bad-liquidation-ltv');\r\n      require(\r\n        configs[idx].safetyLTV < configs[idx].liquidationLTV,\r\n        'setRiskConfigs/inconsistent-ltv-values'\r\n      );\r\n      require(configs[idx].killBountyRate <= 1e18, 'setRiskConfigs/bad-kill-reward-factor');\r\n      rConfigs[levels[idx]] = configs[idx];\r\n      emit SetRiskConfig(\r\n        levels[idx],\r\n        configs[idx].safetyLTV,\r\n        configs[idx].liquidationLTV,\r\n        configs[idx].killBountyRate\r\n      );\r\n    }\r\n  }\r\n\r\n  /// @dev Sets the global reserve information.\r\n  function setReserveInfo(address _reserveBeneficiary, uint _reserveRate) public {\r\n    require(msg.sender == governor, 'setReserveInfo/not-governor');\r\n    require(_reserveRate < 1e18, 'setReserveInfo/bad-rate');\r\n    require(_reserveBeneficiary != address(0), 'setReserveInfo/bad-beneficiary');\r\n    reserveBeneficiary = _reserveBeneficiary;\r\n    reserveRate = _reserveRate;\r\n    emit SetReserveInfo(_reserveBeneficiary, _reserveRate);\r\n  }\r\n\r\n  /// @dev Returns the collateral factor of the given token. Must be greater than zero.\r\n  function getCollFactor(address _token) external view override returns (uint) {\r\n    uint factor = cFactors[_token];\r\n    require(factor > 0, 'getCollFactor/no-collateral-factor');\r\n    return factor;\r\n  }\r\n\r\n  /// @dev Returns the collateral max amount of the given token. Must be greater than zero.\r\n  function getCollMaxAmount(address _token) external view override returns (uint) {\r\n    uint maxAmount = cMaxAmounts[_token];\r\n    require(maxAmount > 0, 'getCollFactor/no-collateral-max-amount');\r\n    return maxAmount;\r\n  }\r\n\r\n  /// @dev Returns the risk level of the given token. Zero is the default value of all tokens.\r\n  function getRiskLevel(address _token) public view override returns (uint) {\r\n    uint level = rLevels[_token];\r\n    require(level != type(uint).max, 'getRiskLevel/bad-risk-level');\r\n    return level;\r\n  }\r\n\r\n  /// @dev Returns the safety LTV of the given token. Must be greater than zero.\r\n  function getSafetyLTV(address _token) external view override returns (uint) {\r\n    uint ltv = rConfigs[getRiskLevel(_token)].safetyLTV;\r\n    require(ltv > 0, 'getSafetyLTV/no-ltv');\r\n    return ltv;\r\n  }\r\n\r\n  /// @dev Returns the liquidation LTV of the given token. Must be greater than zero.\r\n  function getLiquidationLTV(address _token) external view override returns (uint) {\r\n    uint ltv = rConfigs[getRiskLevel(_token)].liquidationLTV;\r\n    require(ltv > 0, 'getLiquidationLTV/no-ltv');\r\n    return ltv;\r\n  }\r\n\r\n  /// @dev Returns the kill bounty rate of the given token. Must be greater than zero.\r\n  function getKillBountyRate(address _token) external view override returns (uint) {\r\n    uint rate = rConfigs[getRiskLevel(_token)].killBountyRate;\r\n    require(rate > 0, 'getKillBountyRate/no-rate');\r\n    return rate;\r\n  }\r\n}\r\n",
  "sourcePath": "C:\\Users\\HP\\PoolContract\\contracts\\BetaConfig.sol",
  "compiler": {
    "name": "solc",
    "version": "0.8.6+commit.11564f7e.Emscripten.clang"
  },
  "schemaVersion": "3.4.4",
  "updatedAt": "2022-03-11T12:18:17.832Z",
  "devdoc": {
    "kind": "dev",
    "methods": {
      "acceptGovernor()": {
        "details": "Accepts to become the next governor. Must only be called by the pending governor."
      },
      "getCollFactor(address)": {
        "details": "Returns the collateral factor of the given token. Must be greater than zero."
      },
      "getCollMaxAmount(address)": {
        "details": "Returns the collateral max amount of the given token. Must be greater than zero."
      },
      "getKillBountyRate(address)": {
        "details": "Returns the kill bounty rate of the given token. Must be greater than zero."
      },
      "getLiquidationLTV(address)": {
        "details": "Returns the liquidation LTV of the given token. Must be greater than zero."
      },
      "getRiskLevel(address)": {
        "details": "Returns the risk level of the given token. Zero is the default value of all tokens."
      },
      "getSafetyLTV(address)": {
        "details": "Returns the safety LTV of the given token. Must be greater than zero."
      },
      "setCollInfos(address[],uint256[],uint256[])": {
        "details": "Updates collateral information of the given tokens."
      },
      "setPendingGovernor(address)": {
        "details": "Sets the next governor, which will be in effect when they accept.",
        "params": {
          "_pendingGovernor": "The next governor address."
        }
      },
      "setReserveInfo(address,uint256)": {
        "details": "Sets the global reserve information."
      },
      "setRiskConfigs(uint256[],(uint64,uint64,uint64)[])": {
        "details": "Sets the risk configurations of the given levels."
      },
      "setRiskLevels(address[],uint256[])": {
        "details": "Sets the risk levels of the given tokens."
      }
    },
    "stateVariables": {
      "reserveBeneficiary": {
        "details": "Returns the beneficiary to receive a portion interest rate for the protocol."
      },
      "reserveRate": {
        "details": "Returns the rate of interest collected to be distributed to the protocol reserve."
      }
    },
    "version": 1
  },
  "userdoc": {
    "kind": "user",
    "methods": {},
    "version": 1
  }
}