{
  "contractName": "BetaBank",
  "abi": [
    {
      "anonymous": false,
      "inputs": [
        {
          "indexed": true,
          "internalType": "address",
          "name": "owner",
          "type": "address"
        },
        {
          "indexed": true,
          "internalType": "uint256",
          "name": "pid",
          "type": "uint256"
        },
        {
          "indexed": false,
          "internalType": "uint256",
          "name": "amount",
          "type": "uint256"
        },
        {
          "indexed": false,
          "internalType": "uint256",
          "name": "share",
          "type": "uint256"
        },
        {
          "indexed": false,
          "internalType": "address",
          "name": "borrower",
          "type": "address"
        }
      ],
      "name": "Borrow",
      "type": "event"
    },
    {
      "anonymous": false,
      "inputs": [
        {
          "indexed": true,
          "internalType": "address",
          "name": "underlying",
          "type": "address"
        },
        {
          "indexed": false,
          "internalType": "address",
          "name": "bToken",
          "type": "address"
        }
      ],
      "name": "Create",
      "type": "event"
    },
    {
      "anonymous": false,
      "inputs": [
        {
          "indexed": true,
          "internalType": "address",
          "name": "owner",
          "type": "address"
        },
        {
          "indexed": true,
          "internalType": "uint256",
          "name": "pid",
          "type": "uint256"
        },
        {
          "indexed": false,
          "internalType": "uint256",
          "name": "amount",
          "type": "uint256"
        },
        {
          "indexed": false,
          "internalType": "uint256",
          "name": "share",
          "type": "uint256"
        },
        {
          "indexed": false,
          "internalType": "uint256",
          "name": "reward",
          "type": "uint256"
        },
        {
          "indexed": false,
          "internalType": "address",
          "name": "caller",
          "type": "address"
        }
      ],
      "name": "Liquidate",
      "type": "event"
    },
    {
      "anonymous": false,
      "inputs": [
        {
          "indexed": true,
          "internalType": "address",
          "name": "owner",
          "type": "address"
        },
        {
          "indexed": true,
          "internalType": "uint256",
          "name": "pid",
          "type": "uint256"
        },
        {
          "indexed": false,
          "internalType": "address",
          "name": "bToken",
          "type": "address"
        },
        {
          "indexed": false,
          "internalType": "address",
          "name": "collateral",
          "type": "address"
        }
      ],
      "name": "Open",
      "type": "event"
    },
    {
      "anonymous": false,
      "inputs": [
        {
          "indexed": false,
          "internalType": "address",
          "name": "account",
          "type": "address"
        }
      ],
      "name": "Paused",
      "type": "event"
    },
    {
      "anonymous": false,
      "inputs": [
        {
          "indexed": true,
          "internalType": "address",
          "name": "owner",
          "type": "address"
        },
        {
          "indexed": true,
          "internalType": "uint256",
          "name": "pid",
          "type": "uint256"
        },
        {
          "indexed": false,
          "internalType": "uint256",
          "name": "amount",
          "type": "uint256"
        },
        {
          "indexed": false,
          "internalType": "address",
          "name": "payer",
          "type": "address"
        }
      ],
      "name": "Put",
      "type": "event"
    },
    {
      "anonymous": false,
      "inputs": [
        {
          "indexed": true,
          "internalType": "address",
          "name": "owner",
          "type": "address"
        },
        {
          "indexed": true,
          "internalType": "uint256",
          "name": "pid",
          "type": "uint256"
        },
        {
          "indexed": false,
          "internalType": "uint256",
          "name": "amount",
          "type": "uint256"
        },
        {
          "indexed": false,
          "internalType": "uint256",
          "name": "share",
          "type": "uint256"
        },
        {
          "indexed": false,
          "internalType": "address",
          "name": "payer",
          "type": "address"
        }
      ],
      "name": "Repay",
      "type": "event"
    },
    {
      "anonymous": false,
      "inputs": [
        {
          "indexed": true,
          "internalType": "address",
          "name": "owner",
          "type": "address"
        },
        {
          "indexed": true,
          "internalType": "uint256",
          "name": "pid",
          "type": "uint256"
        },
        {
          "indexed": false,
          "internalType": "uint256",
          "name": "amount",
          "type": "uint256"
        },
        {
          "indexed": false,
          "internalType": "uint256",
          "name": "share",
          "type": "uint256"
        },
        {
          "indexed": false,
          "internalType": "address",
          "name": "caller",
          "type": "address"
        }
      ],
      "name": "SelflessLiquidate",
      "type": "event"
    },
    {
      "anonymous": false,
      "inputs": [
        {
          "indexed": false,
          "internalType": "bool",
          "name": "ok",
          "type": "bool"
        }
      ],
      "name": "SetAllowPublicCreate",
      "type": "event"
    },
    {
      "anonymous": false,
      "inputs": [
        {
          "indexed": false,
          "internalType": "address",
          "name": "config",
          "type": "address"
        }
      ],
      "name": "SetConfig",
      "type": "event"
    },
    {
      "anonymous": false,
      "inputs": [
        {
          "indexed": false,
          "internalType": "address",
          "name": "governor",
          "type": "address"
        }
      ],
      "name": "SetGovernor",
      "type": "event"
    },
    {
      "anonymous": false,
      "inputs": [
        {
          "indexed": false,
          "internalType": "address",
          "name": "interestModel",
          "type": "address"
        }
      ],
      "name": "SetInterestModel",
      "type": "event"
    },
    {
      "anonymous": false,
      "inputs": [
        {
          "indexed": false,
          "internalType": "address",
          "name": "oracle",
          "type": "address"
        }
      ],
      "name": "SetOracle",
      "type": "event"
    },
    {
      "anonymous": false,
      "inputs": [
        {
          "indexed": true,
          "internalType": "address",
          "name": "owner",
          "type": "address"
        },
        {
          "indexed": false,
          "internalType": "bool",
          "name": "ok",
          "type": "bool"
        }
      ],
      "name": "SetOwnerWhitelist",
      "type": "event"
    },
    {
      "anonymous": false,
      "inputs": [
        {
          "indexed": false,
          "internalType": "address",
          "name": "pendingGovernor",
          "type": "address"
        }
      ],
      "name": "SetPendingGovernor",
      "type": "event"
    },
    {
      "anonymous": false,
      "inputs": [
        {
          "indexed": true,
          "internalType": "address",
          "name": "runner",
          "type": "address"
        },
        {
          "indexed": false,
          "internalType": "bool",
          "name": "ok",
          "type": "bool"
        }
      ],
      "name": "SetRunnerWhitelist",
      "type": "event"
    },
    {
      "anonymous": false,
      "inputs": [
        {
          "indexed": true,
          "internalType": "address",
          "name": "owner",
          "type": "address"
        },
        {
          "indexed": true,
          "internalType": "uint256",
          "name": "pid",
          "type": "uint256"
        },
        {
          "indexed": false,
          "internalType": "uint256",
          "name": "amount",
          "type": "uint256"
        },
        {
          "indexed": false,
          "internalType": "address",
          "name": "to",
          "type": "address"
        }
      ],
      "name": "Take",
      "type": "event"
    },
    {
      "anonymous": false,
      "inputs": [
        {
          "indexed": false,
          "internalType": "address",
          "name": "account",
          "type": "address"
        }
      ],
      "name": "Unpaused",
      "type": "event"
    },
    {
      "inputs": [],
      "name": "allowPublicCreate",
      "outputs": [
        {
          "internalType": "bool",
          "name": "",
          "type": "bool"
        }
      ],
      "stateMutability": "view",
      "type": "function"
    },
    {
      "inputs": [
        {
          "internalType": "address",
          "name": "",
          "type": "address"
        }
      ],
      "name": "bTokens",
      "outputs": [
        {
          "internalType": "address",
          "name": "",
          "type": "address"
        }
      ],
      "stateMutability": "view",
      "type": "function"
    },
    {
      "inputs": [],
      "name": "config",
      "outputs": [
        {
          "internalType": "address",
          "name": "",
          "type": "address"
        }
      ],
      "stateMutability": "view",
      "type": "function"
    },
    {
      "inputs": [],
      "name": "deployer",
      "outputs": [
        {
          "internalType": "address",
          "name": "",
          "type": "address"
        }
      ],
      "stateMutability": "view",
      "type": "function"
    },
    {
      "inputs": [],
      "name": "governor",
      "outputs": [
        {
          "internalType": "address",
          "name": "",
          "type": "address"
        }
      ],
      "stateMutability": "view",
      "type": "function"
    },
    {
      "inputs": [],
      "name": "interestModel",
      "outputs": [
        {
          "internalType": "address",
          "name": "",
          "type": "address"
        }
      ],
      "stateMutability": "view",
      "type": "function"
    },
    {
      "inputs": [
        {
          "internalType": "address",
          "name": "",
          "type": "address"
        }
      ],
      "name": "nextPositionIds",
      "outputs": [
        {
          "internalType": "uint256",
          "name": "",
          "type": "uint256"
        }
      ],
      "stateMutability": "view",
      "type": "function"
    },
    {
      "inputs": [],
      "name": "oracle",
      "outputs": [
        {
          "internalType": "address",
          "name": "",
          "type": "address"
        }
      ],
      "stateMutability": "view",
      "type": "function"
    },
    {
      "inputs": [
        {
          "internalType": "address",
          "name": "",
          "type": "address"
        }
      ],
      "name": "ownerWhitelists",
      "outputs": [
        {
          "internalType": "bool",
          "name": "",
          "type": "bool"
        }
      ],
      "stateMutability": "view",
      "type": "function"
    },
    {
      "inputs": [],
      "name": "paused",
      "outputs": [
        {
          "internalType": "bool",
          "name": "",
          "type": "bool"
        }
      ],
      "stateMutability": "view",
      "type": "function"
    },
    {
      "inputs": [],
      "name": "pendingGovernor",
      "outputs": [
        {
          "internalType": "address",
          "name": "",
          "type": "address"
        }
      ],
      "stateMutability": "view",
      "type": "function"
    },
    {
      "inputs": [
        {
          "internalType": "address",
          "name": "",
          "type": "address"
        },
        {
          "internalType": "uint256",
          "name": "",
          "type": "uint256"
        }
      ],
      "name": "positions",
      "outputs": [
        {
          "internalType": "uint32",
          "name": "blockBorrowPut",
          "type": "uint32"
        },
        {
          "internalType": "uint32",
          "name": "blockRepayTake",
          "type": "uint32"
        },
        {
          "internalType": "address",
          "name": "bToken",
          "type": "address"
        },
        {
          "internalType": "address",
          "name": "collateral",
          "type": "address"
        },
        {
          "internalType": "uint256",
          "name": "collateralSize",
          "type": "uint256"
        },
        {
          "internalType": "uint256",
          "name": "debtShare",
          "type": "uint256"
        }
      ],
      "stateMutability": "view",
      "type": "function"
    },
    {
      "inputs": [
        {
          "internalType": "address",
          "name": "",
          "type": "address"
        }
      ],
      "name": "runnerWhitelists",
      "outputs": [
        {
          "internalType": "bool",
          "name": "",
          "type": "bool"
        }
      ],
      "stateMutability": "view",
      "type": "function"
    },
    {
      "inputs": [
        {
          "internalType": "address",
          "name": "",
          "type": "address"
        }
      ],
      "name": "totalCollaterals",
      "outputs": [
        {
          "internalType": "uint256",
          "name": "",
          "type": "uint256"
        }
      ],
      "stateMutability": "view",
      "type": "function"
    },
    {
      "inputs": [
        {
          "internalType": "address",
          "name": "",
          "type": "address"
        }
      ],
      "name": "underlyings",
      "outputs": [
        {
          "internalType": "address",
          "name": "",
          "type": "address"
        }
      ],
      "stateMutability": "view",
      "type": "function"
    },
    {
      "inputs": [
        {
          "internalType": "address",
          "name": "_governor",
          "type": "address"
        },
        {
          "internalType": "address",
          "name": "_deployer",
          "type": "address"
        },
        {
          "internalType": "address",
          "name": "_oracle",
          "type": "address"
        },
        {
          "internalType": "address",
          "name": "_config",
          "type": "address"
        },
        {
          "internalType": "address",
          "name": "_interestModel",
          "type": "address"
        }
      ],
      "name": "initialize",
      "outputs": [],
      "stateMutability": "nonpayable",
      "type": "function"
    },
    {
      "inputs": [
        {
          "internalType": "address",
          "name": "_pendingGovernor",
          "type": "address"
        }
      ],
      "name": "setPendingGovernor",
      "outputs": [],
      "stateMutability": "nonpayable",
      "type": "function"
    },
    {
      "inputs": [],
      "name": "acceptGovernor",
      "outputs": [],
      "stateMutability": "nonpayable",
      "type": "function"
    },
    {
      "inputs": [
        {
          "internalType": "address",
          "name": "_oracle",
          "type": "address"
        }
      ],
      "name": "setOracle",
      "outputs": [],
      "stateMutability": "nonpayable",
      "type": "function"
    },
    {
      "inputs": [
        {
          "internalType": "address",
          "name": "_config",
          "type": "address"
        }
      ],
      "name": "setConfig",
      "outputs": [],
      "stateMutability": "nonpayable",
      "type": "function"
    },
    {
      "inputs": [
        {
          "internalType": "address",
          "name": "_interestModel",
          "type": "address"
        }
      ],
      "name": "setInterestModel",
      "outputs": [],
      "stateMutability": "nonpayable",
      "type": "function"
    },
    {
      "inputs": [
        {
          "internalType": "address[]",
          "name": "_runners",
          "type": "address[]"
        },
        {
          "internalType": "bool",
          "name": "ok",
          "type": "bool"
        }
      ],
      "name": "setRunnerWhitelists",
      "outputs": [],
      "stateMutability": "nonpayable",
      "type": "function"
    },
    {
      "inputs": [
        {
          "internalType": "address[]",
          "name": "_owners",
          "type": "address[]"
        },
        {
          "internalType": "bool",
          "name": "ok",
          "type": "bool"
        }
      ],
      "name": "setOwnerWhitelists",
      "outputs": [],
      "stateMutability": "nonpayable",
      "type": "function"
    },
    {
      "inputs": [],
      "name": "pause",
      "outputs": [],
      "stateMutability": "nonpayable",
      "type": "function"
    },
    {
      "inputs": [],
      "name": "unpause",
      "outputs": [],
      "stateMutability": "nonpayable",
      "type": "function"
    },
    {
      "inputs": [
        {
          "internalType": "bool",
          "name": "_ok",
          "type": "bool"
        }
      ],
      "name": "setAllowPublicCreate",
      "outputs": [],
      "stateMutability": "nonpayable",
      "type": "function"
    },
    {
      "inputs": [
        {
          "internalType": "address",
          "name": "_underlying",
          "type": "address"
        }
      ],
      "name": "create",
      "outputs": [
        {
          "internalType": "address",
          "name": "bToken",
          "type": "address"
        }
      ],
      "stateMutability": "nonpayable",
      "type": "function"
    },
    {
      "inputs": [
        {
          "internalType": "address",
          "name": "_owner",
          "type": "address"
        },
        {
          "internalType": "address",
          "name": "_sender",
          "type": "address"
        }
      ],
      "name": "isPermittedCaller",
      "outputs": [
        {
          "internalType": "bool",
          "name": "",
          "type": "bool"
        }
      ],
      "stateMutability": "view",
      "type": "function"
    },
    {
      "inputs": [
        {
          "internalType": "address",
          "name": "_owner",
          "type": "address"
        },
        {
          "internalType": "uint256",
          "name": "_pid",
          "type": "uint256"
        }
      ],
      "name": "getPositionTokens",
      "outputs": [
        {
          "internalType": "address",
          "name": "_collateral",
          "type": "address"
        },
        {
          "internalType": "address",
          "name": "_bToken",
          "type": "address"
        }
      ],
      "stateMutability": "view",
      "type": "function"
    },
    {
      "inputs": [
        {
          "internalType": "address",
          "name": "_owner",
          "type": "address"
        },
        {
          "internalType": "uint256",
          "name": "_pid",
          "type": "uint256"
        }
      ],
      "name": "fetchPositionDebt",
      "outputs": [
        {
          "internalType": "uint256",
          "name": "",
          "type": "uint256"
        }
      ],
      "stateMutability": "nonpayable",
      "type": "function"
    },
    {
      "inputs": [
        {
          "internalType": "address",
          "name": "_owner",
          "type": "address"
        },
        {
          "internalType": "uint256",
          "name": "_pid",
          "type": "uint256"
        }
      ],
      "name": "fetchPositionLTV",
      "outputs": [
        {
          "internalType": "uint256",
          "name": "",
          "type": "uint256"
        }
      ],
      "stateMutability": "nonpayable",
      "type": "function"
    },
    {
      "inputs": [
        {
          "internalType": "address",
          "name": "_owner",
          "type": "address"
        },
        {
          "internalType": "address",
          "name": "_underlying",
          "type": "address"
        },
        {
          "internalType": "address",
          "name": "_collateral",
          "type": "address"
        }
      ],
      "name": "open",
      "outputs": [
        {
          "internalType": "uint256",
          "name": "pid",
          "type": "uint256"
        }
      ],
      "stateMutability": "nonpayable",
      "type": "function"
    },
    {
      "inputs": [
        {
          "internalType": "address",
          "name": "_owner",
          "type": "address"
        },
        {
          "internalType": "uint256",
          "name": "_pid",
          "type": "uint256"
        },
        {
          "internalType": "uint256",
          "name": "_amount",
          "type": "uint256"
        }
      ],
      "name": "borrow",
      "outputs": [],
      "stateMutability": "nonpayable",
      "type": "function"
    },
    {
      "inputs": [
        {
          "internalType": "address",
          "name": "_owner",
          "type": "address"
        },
        {
          "internalType": "uint256",
          "name": "_pid",
          "type": "uint256"
        },
        {
          "internalType": "uint256",
          "name": "_amount",
          "type": "uint256"
        }
      ],
      "name": "repay",
      "outputs": [],
      "stateMutability": "nonpayable",
      "type": "function"
    },
    {
      "inputs": [
        {
          "internalType": "address",
          "name": "_owner",
          "type": "address"
        },
        {
          "internalType": "uint256",
          "name": "_pid",
          "type": "uint256"
        },
        {
          "internalType": "uint256",
          "name": "_amount",
          "type": "uint256"
        }
      ],
      "name": "put",
      "outputs": [],
      "stateMutability": "nonpayable",
      "type": "function"
    },
    {
      "inputs": [
        {
          "internalType": "address",
          "name": "_owner",
          "type": "address"
        },
        {
          "internalType": "uint256",
          "name": "_pid",
          "type": "uint256"
        },
        {
          "internalType": "uint256",
          "name": "_amount",
          "type": "uint256"
        }
      ],
      "name": "take",
      "outputs": [],
      "stateMutability": "nonpayable",
      "type": "function"
    },
    {
      "inputs": [
        {
          "internalType": "address",
          "name": "_owner",
          "type": "address"
        },
        {
          "internalType": "uint256",
          "name": "_pid",
          "type": "uint256"
        },
        {
          "internalType": "uint256",
          "name": "_amount",
          "type": "uint256"
        }
      ],
      "name": "liquidate",
      "outputs": [],
      "stateMutability": "nonpayable",
      "type": "function"
    },
    {
      "inputs": [
        {
          "internalType": "address",
          "name": "_owner",
          "type": "address"
        },
        {
          "internalType": "uint256",
          "name": "_pid",
          "type": "uint256"
        },
        {
          "internalType": "uint256",
          "name": "_amount",
          "type": "uint256"
        }
      ],
      "name": "selflessLiquidate",
      "outputs": [],
      "stateMutability": "nonpayable",
      "type": "function"
    },
    {
      "inputs": [
        {
          "internalType": "address",
          "name": "_bToken",
          "type": "address"
        },
        {
          "internalType": "address",
          "name": "_token",
          "type": "address"
        },
        {
          "internalType": "uint256",
          "name": "_amount",
          "type": "uint256"
        }
      ],
      "name": "recover",
      "outputs": [],
      "stateMutability": "nonpayable",
      "type": "function"
    }
  ],
  "bytecode": "0x608060405234801561001057600080fd5b506000805462ff000019169055613e3b8061002c6000396000f3fe608060405234801561001057600080fd5b50600436106101cc5760003560e01c8062187482146101d15780630710285c146101f75780630c340a241461020c5780631459457a1461022c5780631ec82cb81461023f57806320e3dbd4146102525780632ba4391a1461026557806333e1cf5d146102785780633f4ba83a1461028b5780634e16cf421461029357806351a491ad146102a657806351ea519a146102c95780635c975abb146102f2578063679a8da8146102fa5780636e3f5d521461032357806379502c55146103365780637adbf973146103495780637dc0d1d01461035c578063827620621461036f5780638456cb59146103825780638cd2e0c71461038a578063904271161461039d5780639413126a146103c05780639ed93318146103e3578063ab01040e146103f6578063ac165d7a14610416578063b0886fe414610429578063b5beb20b1461043d578063bf1f53b614610450578063c1bce0b714610470578063c1be667714610483578063c640e9bf1461052a578063c9c8eb6c1461053d578063d5f3948814610550578063e3056a3414610563578063e507470914610576578063e58bb63914610597578063f235757f1461059f578063f71fd596146105b2575b600080fd5b6101e46101df366004613953565b6105c5565b6040519081526020015b60405180910390f35b61020a61020536600461397f565b6106bb565b005b60065461021f906001600160a01b031681565b6040516101ee9190613a9d565b61020a61023a3660046138a1565b610cb5565b61020a61024d366004613912565b611023565b61020a6102603660046137e3565b61113b565b61020a61027336600461397f565b6111f8565b61020a610286366004613a2e565b611652565b61020a6116c9565b61020a6102a13660046139b4565b611721565b6102b96102b436600461381d565b61182d565b60405190151581526020016101ee565b61021f6102d73660046137e3565b6008602052600090815260409020546001600160a01b031681565b6102b96118a5565b61021f6103083660046137e3565b6009602052600090815260409020546001600160a01b031681565b61020a6103313660046137e3565b6118b4565b60045461021f906001600160a01b031681565b61020a6103573660046137e3565b61196d565b60035461021f906001600160a01b031681565b6101e461037d366004613953565b611a1f565b61020a611ae5565b61020a61039836600461397f565b611b3c565b6102b96103ab3660046137e3565b600b6020526000908152604090205460ff1681565b6102b96103ce3660046137e3565b600a6020526000908152604090205460ff1681565b61021f6103f13660046137e3565b611dcb565b6101e46104043660046137e3565b600d6020526000908152604090205481565b60055461021f906001600160a01b031681565b6007546102b990600160a01b900460ff1681565b61020a61044b3660046139b4565b612162565b6101e461045e3660046137e3565b600e6020526000908152604090205481565b61020a61047e36600461397f565b612268565b6104e8610491366004613953565b600c602090815260009283526040808420909152908252902080546001820154600283015460039093015463ffffffff80841694600160201b8504909116936001600160a01b03600160401b909104811693169186565b6040805163ffffffff97881681529690951660208701526001600160a01b039384169486019490945291166060840152608083015260a082015260c0016101ee565b61020a61053836600461397f565b6125ef565b61020a61054b36600461397f565b612926565b60025461021f906001600160a01b031681565b60075461021f906001600160a01b031681565b610589610584366004613953565b612c26565b6040516101ee929190613ab1565b61020a612ca3565b61020a6105ad3660046137e3565b612d4d565b6101e46105c0366004613856565b612dc2565b6001600160a01b0382166000908152600d60205260408120548390839081106106095760405162461bcd60e51b815260040161060090613c1b565b60405180910390fd5b6001600160a01b038581166000908152600c6020908152604080832088845290915290819020805460038201549251635dd9258560e01b815260048101939093529092600160401b9091041690635dd9258590602401602060405180830381600087803b15801561067957600080fd5b505af115801561068d573d6000803e3d6000fd5b505050506040513d601f19601f820116820180604052508101906106b19190613a68565b9695505050505050565b6001546001146106dd5760405162461bcd60e51b815260040161060090613b93565b60026001556106ea6118a5565b156107075760405162461bcd60e51b815260040161060090613bf1565b6001600160a01b0383166000908152600d60205260409020548390839081106107425760405162461bcd60e51b815260040161060090613c1b565b6001600160a01b038086166000908152600c602090815260408083208884528252808320815160c081018352815463ffffffff8082168352600160201b82041682860152600160401b900486168184018190526001830154871660608301526002830154608083015260039092015460a08201529084526009909252822054909216906107ce83613119565b60048054604051630eb94ee160e41b81529293506001600160a01b03169163eb94ee10916107fe91869101613a9d565b60206040518083038186803b15801561081657600080fd5b505afa15801561082a573d6000803e3d6000fd5b505050506040513d601f19601f8201168201806040525081019061084e9190613a68565b81101561089a5760405162461bcd60e51b815260206004820152601a6024820152796c69717569646174652f6e6f742d6c6971756964617461626c6560301b6044820152606401610600565b600083604001516001600160a01b03166322867d7833896040518363ffffffff1660e01b81526004016108ce929190613aef565b602060405180830381600087803b1580156108e857600080fd5b505af11580156108fc573d6000803e3d6000fd5b505050506040513d601f19601f820116820180604052508101906109209190613a68565b905060028460a0015160016109359190613c7c565b61093f9190613c94565b81111561098e5760405162461bcd60e51b815260206004820152601e60248201527f6c69717569646174652f746f6f2d6d7563682d6c69717569646174696f6e00006044820152606401610600565b6040808501519051635dd9258560e01b8152600481018390526000916001600160a01b031690635dd9258590602401602060405180830381600087803b1580156109d757600080fd5b505af11580156109eb573d6000803e3d6000fd5b505050506040513d601f19601f82011682018060405250810190610a0f9190613a68565b600354606087015160405163248391ff60e01b81529293506000926001600160a01b039092169163248391ff91610a4d918991908790600401613acb565b602060405180830381600087803b158015610a6757600080fd5b505af1158015610a7b573d6000803e3d6000fd5b505050506040513d601f19601f82011682018060405250810190610a9f9190613a68565b600480546040516339f041ad60e11b8152929350600092610b5892670de0b6b3a7640000926001600160a01b0316916373e0835a91610ae0918c9101613a9d565b60206040518083038186803b158015610af857600080fd5b505afa158015610b0c573d6000803e3d6000fd5b505050506040513d601f19601f82011682018060405250810190610b309190613a68565b610b3a9085613cb6565b610b449190613c94565b610b4e9084613c7c565b8860800151613422565b9050838760a001818151610b6c9190613cd5565b90525060a08701516001600160a01b038d166000908152600c602090815260408083208f8452909152902060030155608087018051829190610baf908390613cd5565b915081815250508660800151600c60008e6001600160a01b03166001600160a01b0316815260200190815260200160002060008d81526020019081526020016000206002018190555080600e600089606001516001600160a01b03166001600160a01b031681526020019081526020016000206000828254610c319190613cd5565b90915550506060870151610c4f906001600160a01b03163383613438565b604080518b8152602081018690529081018290523360608201528b906001600160a01b038e16907fdde0adb27be857d0db946bcab48f6a9f4b90b721fa0672622d5ec3de019bee3e9060800160405180910390a350506001805550505050505050505050565b600054610100900460ff16610cd05760005460ff1615610cd8565b610cd8613493565b610d3b5760405162461bcd60e51b815260206004820152602e60248201527f496e697469616c697a61626c653a20636f6e747261637420697320616c72656160448201526d191e481a5b9a5d1a585b1a5e995960921b6064820152608401610600565b600054610100900460ff16158015610d5d576000805461ffff19166101011790555b6001600160a01b038616610db35760405162461bcd60e51b815260206004820181905260248201527f696e697469616c697a652f676f7665726e6f722d7a65726f2d616464726573736044820152606401610600565b6001600160a01b038516610e095760405162461bcd60e51b815260206004820181905260248201527f696e697469616c697a652f6465706c6f7965722d7a65726f2d616464726573736044820152606401610600565b6001600160a01b038416610e5f5760405162461bcd60e51b815260206004820152601e60248201527f696e697469616c697a652f6f7261636c652d7a65726f2d6164647265737300006044820152606401610600565b6001600160a01b038316610eb55760405162461bcd60e51b815260206004820152601e60248201527f696e697469616c697a652f636f6e6669672d7a65726f2d6164647265737300006044820152606401610600565b6001600160a01b038216610f1a5760405162461bcd60e51b815260206004820152602660248201527f696e697469616c697a652f696e7465726573742d6d6f64656c2d7a65726f2d6160448201526564647265737360d01b6064820152608401610600565b600680546001600160a01b03199081166001600160a01b03898116919091179092556002805482168884161790556003805482168784161790556004805482168684161790556005805490911691841691909117905560018055604051600080516020613de683398151915290610f92908890613a9d565b60405180910390a1600080516020613d8683398151915284604051610fb79190613a9d565b60405180910390a1600080516020613da683398151915283604051610fdc9190613a9d565b60405180910390a1600080516020613dc6833981519152826040516110019190613a9d565b60405180910390a1801561101b576000805461ff00191690555b505050505050565b6006546001600160a01b0316331461104d5760405162461bcd60e51b815260040161060090613b3b565b60015460011461106f5760405162461bcd60e51b815260040161060090613b93565b60026001556001600160a01b03838116600090815260096020526040902054166110d05760405162461bcd60e51b81526020600482015260126024820152713932b1b7bb32b917b737ba16b12a37b5b2b760711b6044820152606401610600565b6040516303d9059760e31b81526001600160a01b03841690631ec82cb89061110090859033908690600401613acb565b600060405180830381600087803b15801561111a57600080fd5b505af115801561112e573d6000803e3d6000fd5b5050600180555050505050565b6006546001600160a01b031633146111655760405162461bcd60e51b815260040161060090613b3b565b6001600160a01b0381166111b45760405162461bcd60e51b8152602060048201526016602482015275736574436f6e6669672f7a65726f2d6164647265737360501b6044820152606401610600565b600480546001600160a01b0319166001600160a01b038316179055604051600080516020613da6833981519152906111ed908390613a9d565b60405180910390a150565b60015460011461121a5760405162461bcd60e51b815260040161060090613b93565b60026001556112276118a5565b156112445760405162461bcd60e51b815260040161060090613bf1565b8261124f813361182d565b61126b5760405162461bcd60e51b815260040161060090613bbc565b6001600160a01b0384166000908152600d60205260409020548490849081106112a65760405162461bcd60e51b815260040161060090613c1b565b6001600160a01b038087166000908152600c60209081526040808320898452825291829020825160c081018452815463ffffffff8082168352600160201b82048116948301859052600160401b90910486169482019490945260018201549094166060850152600281015460808501526003015460a08401524390911614156113615760405162461bcd60e51b815260206004820152600d60248201526c7075742f6261642d626c6f636b60981b6044820152606401610600565b60008082606001516001600160a01b03166370a08231306040518263ffffffff1660e01b81526004016113949190613a9d565b60206040518083038186803b1580156113ac57600080fd5b505afa1580156113c0573d6000803e3d6000fd5b505050506040513d601f19601f820116820180604052508101906113e49190613a68565b6060840151909150611401906001600160a01b031633308a6134a4565b60608301516040516370a0823160e01b81526000916001600160a01b0316906370a0823190611434903090600401613a9d565b60206040518083038186803b15801561144c57600080fd5b505afa158015611460573d6000803e3d6000fd5b505050506040513d601f19601f820116820180604052508101906114849190613a68565b90506114908282613cd5565b9250505080826080018181516114a69190613c7c565b90525060608201516001600160a01b03166000908152600e6020526040812080548392906114d5908490613c7c565b909155505060048054606084015160405163665e2e5360e01b81526001600160a01b039092169263665e2e539261150d929101613a9d565b60206040518083038186803b15801561152557600080fd5b505afa158015611539573d6000803e3d6000fd5b505050506040513d601f19601f8201168201806040525081019061155d9190613a68565b60608301516001600160a01b03166000908152600e602052604090205411156115c25760405162461bcd60e51b81526020600482015260176024820152761c1d5d0bdd1bdbcb5b5d58da0b58dbdb1b185d195c985b604a1b6044820152606401610600565b60808201516001600160a01b0389166000818152600c602090815260408083208c8452909152908190206002810193909355825463ffffffff19164363ffffffff161790925590518891907fa484f5dd35662c7e9a639bb18fd7c87293c82c2ba06dd2ff77536edf523d99f59061163c908a903390613c46565b60405180910390a3505060018055505050505050565b6006546001600160a01b0316331461167c5760405162461bcd60e51b815260040161060090613b3b565b60078054821515600160a01b0260ff60a01b199091161790556040517f1a993cb3baaaeecd4cf09f369bae7bb6a23acba7fdf4c37432a91bbdb4e3963a906111ed90831515815260200190565b6116d16118a5565b6116ed5760405162461bcd60e51b815260040161060090613b65565b6006546001600160a01b031633146117175760405162461bcd60e51b815260040161060090613b3b565b61171f6134c5565b565b6006546001600160a01b0316331461174b5760405162461bcd60e51b815260040161060090613b3b565b60005b828110156118275781600a600086868581811061176d5761176d613d49565b905060200201602081019061178291906137e3565b6001600160a01b031681526020810191909152604001600020805460ff19169115159190911790558383828181106117bc576117bc613d49565b90506020020160208101906117d191906137e3565b6001600160a01b03167f3e3f3513ca57dd2a4694ffe4ff73f0d13635c4793c347f048725832f797430388360405161180d911515815260200190565b60405180910390a28061181f81613d18565b91505061174e565b50505050565b6000816001600160a01b0316836001600160a01b031614801561186857506001600160a01b0383166000908152600b602052604090205460ff165b8061189e57506001600160a01b0383163214801561189e57506001600160a01b0382166000908152600a602052604090205460ff165b9392505050565b60005462010000900460ff1690565b6006546001600160a01b031633146118de5760405162461bcd60e51b815260040161060090613b3b565b6001600160a01b0381166119345760405162461bcd60e51b815260206004820152601d60248201527f736574496e7465726573744d6f64656c2f7a65726f2d616464726573730000006044820152606401610600565b600580546001600160a01b0319166001600160a01b038316179055604051600080516020613dc6833981519152906111ed908390613a9d565b6006546001600160a01b031633146119975760405162461bcd60e51b815260040161060090613b3b565b6001600160a01b0381166119e65760405162461bcd60e51b81526020600482015260166024820152757365744f7261636c652f7a65726f2d6164647265737360501b6044820152606401610600565b600380546001600160a01b0319166001600160a01b038316179055604051600080516020613d86833981519152906111ed908390613a9d565b6001600160a01b0382166000908152600d6020526040812054839083908110611a5a5760405162461bcd60e51b815260040161060090613c1b565b6001600160a01b038086166000908152600c60209081526040808320888452825291829020825160c081018452815463ffffffff8082168352600160201b82041693820193909352600160401b90920484169282019290925260018201549092166060830152600281015460808301526003015460a0820152611adc90613119565b95945050505050565b611aed6118a5565b15611b0a5760405162461bcd60e51b815260040161060090613bf1565b6006546001600160a01b03163314611b345760405162461bcd60e51b815260040161060090613b3b565b61171f613525565b600154600114611b5e5760405162461bcd60e51b815260040161060090613b93565b6002600155611b6b6118a5565b15611b885760405162461bcd60e51b815260040161060090613bf1565b82611b93813361182d565b611baf5760405162461bcd60e51b815260040161060090613bbc565b6001600160a01b0384166000908152600d6020526040902054849084908110611bea5760405162461bcd60e51b815260040161060090613c1b565b6001600160a01b038087166000908152600c60209081526040808320898452825291829020825160c081018452815463ffffffff808216808452600160201b8304821695840195909552600160401b90910486169482019490945260018201549094166060850152600281015460808501526003015460a0840152439091161415611ca95760405162461bcd60e51b815260206004820152600f60248201526e72657061792f6261642d626c6f636b60881b6044820152606401610600565b600081604001516001600160a01b03166322867d7833886040518363ffffffff1660e01b8152600401611cdd929190613aef565b602060405180830381600087803b158015611cf757600080fd5b505af1158015611d0b573d6000803e3d6000fd5b505050506040513d601f19601f82011682018060405250810190611d2f9190613a68565b9050808260a001818151611d439190613cd5565b90525060a08201516001600160a01b0389166000818152600c602090815260408083208c8452909152908190206003810193909355825463ffffffff60201b1916600160201b4363ffffffff16021790925590518891907f09e02f7977f4cd69fd737ff7ee1a723f810d24bac179c0eaa8e5815a795d3ea49061163c908a9086903390613c5d565b6000600154600114611def5760405162461bcd60e51b815260040161060090613b93565b6002600155611dfc6118a5565b15611e195760405162461bcd60e51b815260040161060090613bf1565b600754600160a01b900460ff1680611e3b57506006546001600160a01b031633145b611e7d5760405162461bcd60e51b815260206004820152601360248201527218dc99585d194bdd5b985d5d1a1bdc9a5e9959606a1b6044820152606401610600565b6001600160a01b038216301415611ecd5760405162461bcd60e51b81526020600482015260146024820152736372656174652f6e6f742d6c696b652d7468697360601b6044820152606401610600565b611edf826001600160a01b0316613583565b611f2b5760405162461bcd60e51b815260206004820152601e60248201527f6372656174652f756e6465726c79696e672d6e6f742d636f6e747261637400006044820152606401610600565b6001600160a01b038281166000908152600860205260409020541615611f935760405162461bcd60e51b815260206004820181905260248201527f6372656174652f756e6465726c79696e672d616c72656164792d6578697374736044820152606401610600565b60035460405163353d37f960e21b81526000916001600160a01b03169063d4f4dfe490611fc4908690600401613a9d565b602060405180830381600087803b158015611fde57600080fd5b505af1158015611ff2573d6000803e3d6000fd5b505050506040513d601f19601f820116820180604052508101906120169190613a68565b116120555760405162461bcd60e51b815260206004820152600f60248201526e6372656174652f6e6f2d707269636560881b6044820152606401610600565b600254604051634c96a38960e01b81526001600160a01b0390911690634c96a38990612085908590600401613a9d565b602060405180830381600087803b15801561209f57600080fd5b505af11580156120b3573d6000803e3d6000fd5b505050506040513d601f19601f820116820180604052508101906120d79190613800565b6001600160a01b03808416600081815260086020908152604080832080549587166001600160a01b031996871681179091558352600990915290819020805490931682179092559051919250907f96b5b9b8a7193304150caccf9b80d150675fa3d6af57761d8d8ef1d6f9a1a90990612151908490613a9d565b60405180910390a260018055919050565b6006546001600160a01b0316331461218c5760405162461bcd60e51b815260040161060090613b3b565b60005b828110156118275781600b60008686858181106121ae576121ae613d49565b90506020020160208101906121c391906137e3565b6001600160a01b031681526020810191909152604001600020805460ff19169115159190911790558383828181106121fd576121fd613d49565b905060200201602081019061221291906137e3565b6001600160a01b03167f31713abf7651a5d93dd9702d3bbfdc9bf477ed7a7d4123d818499e7df9f62cc08360405161224e911515815260200190565b60405180910390a28061226081613d18565b91505061218f565b60015460011461228a5760405162461bcd60e51b815260040161060090613b93565b60026001556122976118a5565b156122b45760405162461bcd60e51b815260040161060090613bf1565b826122bf813361182d565b6122db5760405162461bcd60e51b815260040161060090613bbc565b6001600160a01b0384166000908152600d60205260409020548490849081106123165760405162461bcd60e51b815260040161060090613c1b565b6001600160a01b038087166000908152600c60209081526040808320898452825291829020825160c081018452815463ffffffff8082168352600160201b82048116948301859052600160401b90910486169482019490945260018201549094166060850152600281015460808501526003015460a08401524390911614156123d45760405162461bcd60e51b815260206004820152601060248201526f626f72726f772f6261642d626c6f636b60801b6044820152606401610600565b600081604001516001600160a01b0316634b8a352933886040518363ffffffff1660e01b8152600401612408929190613aef565b602060405180830381600087803b15801561242257600080fd5b505af1158015612436573d6000803e3d6000fd5b505050506040513d601f19601f8201168201806040525081019061245a9190613a68565b9050808260a00181815161246e9190613c7c565b90525060a08201516001600160a01b0389166000908152600c602090815260408083208b845290915281206003810192909255815463ffffffff19164363ffffffff16179091556124be83613119565b600480546040808701516001600160a01b03908116600090815260096020528290205491516337ea609360e01b8152949550918216936337ea60939361250993929092169101613a9d565b60206040518083038186803b15801561252157600080fd5b505afa158015612535573d6000803e3d6000fd5b505050506040513d601f19601f820116820180604052508101906125599190613a68565b81111561259a5760405162461bcd60e51b815260206004820152600f60248201526e626f72726f772f6e6f742d7361666560881b6044820152606401610600565b87896001600160a01b03167f66213fb9f1fa2b7f0877f6506f7ce239ede54b92e550c29d9937d2808aeaa7228985336040516125d893929190613c5d565b60405180910390a350506001805550505050505050565b6001546001146126115760405162461bcd60e51b815260040161060090613b93565b600260015561261e6118a5565b1561263b5760405162461bcd60e51b815260040161060090613bf1565b82612646813361182d565b6126625760405162461bcd60e51b815260040161060090613bbc565b6001600160a01b0384166000908152600d602052604090205484908490811061269d5760405162461bcd60e51b815260040161060090613c1b565b6001600160a01b038087166000908152600c60209081526040808320898452825291829020825160c081018452815463ffffffff808216808452600160201b8304821695840195909552600160401b90910486169482019490945260018201549094166060850152600281015460808501526003015460a084015243909116141561275b5760405162461bcd60e51b815260206004820152600e60248201526d74616b652f6261642d626c6f636b60901b6044820152606401610600565b848160800181815161276d9190613cd5565b90525060608101516001600160a01b03166000908152600e60205260408120805487929061279c908490613cd5565b909155505060808101516001600160a01b0388166000908152600c602090815260408083208a845290915281206002810192909255815463ffffffff60201b1916600160201b4363ffffffff1602179091556127f782613119565b600480546040808601516001600160a01b03908116600090815260096020528290205491516337ea609360e01b8152949550918216936337ea60939361284293929092169101613a9d565b60206040518083038186803b15801561285a57600080fd5b505afa15801561286e573d6000803e3d6000fd5b505050506040513d601f19601f820116820180604052508101906128929190613a68565b8111156128d15760405162461bcd60e51b815260206004820152600d60248201526c74616b652f6e6f742d7361666560981b6044820152606401610600565b60608201516128ea906001600160a01b03163388613438565b86886001600160a01b03167f3c494f8e78d173658bbb4fc963723899c35ba01c1c467cfa4123ebec192b8aff883360405161163c929190613c46565b6006546001600160a01b031633146129505760405162461bcd60e51b815260040161060090613b3b565b6001546001146129725760405162461bcd60e51b815260040161060090613b93565b60026001556001600160a01b0383166000908152600d60205260409020548390839081106129b25760405162461bcd60e51b815260040161060090613c1b565b6001600160a01b038086166000908152600c60209081526040808320888452825291829020825160c081018452815463ffffffff8082168352600160201b82041693820193909352600160401b9092048416928201929092526001820154909216606083015260028101546080830181905260039091015460a083015215612a8a5760405162461bcd60e51b815260206004820152602560248201527f73656c666c6573734c69717569646174652f706f7369746976652d636f6c6c616044820152641d195c985b60da1b6064820152608401610600565b600081604001516001600160a01b0316635dd925858360a001516040518263ffffffff1660e01b8152600401612ac291815260200190565b602060405180830381600087803b158015612adc57600080fd5b505af1158015612af0573d6000803e3d6000fd5b505050506040513d601f19601f82011682018060405250810190612b149190613a68565b9050612b208582613422565b9450600082604001516001600160a01b03166322867d7833886040518363ffffffff1660e01b8152600401612b56929190613aef565b602060405180830381600087803b158015612b7057600080fd5b505af1158015612b84573d6000803e3d6000fd5b505050506040513d601f19601f82011682018060405250810190612ba89190613a68565b9050808360a001818151612bbc9190613cd5565b90525060a08301516001600160a01b0389166000818152600c602090815260408083208c8452909152908190206003019290925590518891907fb14890f5eebf05b014f5e9e75f121a47fa260063eb0532e1a38439066bd0c4a19061163c908a9086903390613c5d565b6001600160a01b0382166000908152600d60205260408120548190849084908110612c635760405162461bcd60e51b815260040161060090613c1b565b505050506001600160a01b039182166000908152600c60209081526040808320938352929052206001810154905490821692600160401b90910490911690565b6007546001600160a01b03163314612d095760405162461bcd60e51b815260206004820152602360248201527f616363657074476f7665726e6f722f6e6f742d70656e64696e672d676f7665726044820152623737b960e91b6064820152608401610600565b600780546001600160a01b03199081169091556006805433921682179055604051600080516020613de683398151915291612d4391613a9d565b60405180910390a1565b6006546001600160a01b03163314612d775760405162461bcd60e51b815260040161060090613b3b565b600780546001600160a01b0319166001600160a01b0383161790556040517f964dea888b00b2ab53f13dfe7ca334b46e99338c222ae232d98547a1da019f60906111ed908390613a9d565b6000612dcc6118a5565b15612de95760405162461bcd60e51b815260040161060090613bf1565b83612df4813361182d565b612e105760405162461bcd60e51b815260040161060090613bbc565b6001600160a01b038085166000908152600860205260409020541680612e6e5760405162461bcd60e51b81526020600482015260136024820152726f70656e2f6261642d756e6465726c79696e6760681b6044820152606401610600565b836001600160a01b0316856001600160a01b03161415612ec75760405162461bcd60e51b81526020600482015260146024820152731bdc195b8bdcd95b198b58dbdb1b185d195c985b60621b6044820152606401610600565b6004805460405163486ef95960e11b81526000926001600160a01b03909216916390ddf2b291612ef991899101613a9d565b60206040518083038186803b158015612f1157600080fd5b505afa158015612f25573d6000803e3d6000fd5b505050506040513d601f19601f82011682018060405250810190612f499190613a68565b11612f8c5760405162461bcd60e51b81526020600482015260136024820152721bdc195b8bd898590b58dbdb1b185d195c985b606a1b6044820152606401610600565b60035460405163353d37f960e21b81526000916001600160a01b03169063d4f4dfe490612fbd908890600401613a9d565b602060405180830381600087803b158015612fd757600080fd5b505af1158015612feb573d6000803e3d6000fd5b505050506040513d601f19601f8201168201806040525081019061300f9190613a68565b1161304c5760405162461bcd60e51b815260206004820152600d60248201526c6f70656e2f6e6f2d707269636560981b6044820152606401610600565b6001600160a01b0386166000908152600d6020526040812080549161307083613d18565b909155506001600160a01b038781166000818152600c60209081526040808320868452909152908190208054600160401b600160e01b031916600160401b878616021781556001810180546001600160a01b031916948a16949094179093555192955090918591907fe7ae4268aa398bfe26749e22bfd7a7d50648062474a0422790079e61868a58f8906131079086908a90613ab1565b60405180910390a35050509392505050565b60008160a001516000141561313057506000919050565b60035460048054606085015160405163486ef95960e11b81526001600160a01b03948516946000949316926390ddf2b29261316d92909101613a9d565b60206040518083038186803b15801561318557600080fd5b505afa158015613199573d6000803e3d6000fd5b505050506040513d601f19601f820116820180604052508101906131bd9190613a68565b9050600081116132065760405162461bcd60e51b815260206004820152601460248201527319995d18da0bd898590b58dbdb1b185d195c985b60621b6044820152606401610600565b600084604001516001600160a01b0316635dd925858660a001516040518263ffffffff1660e01b815260040161323e91815260200190565b602060405180830381600087803b15801561325857600080fd5b505af115801561326c573d6000803e3d6000fd5b505050506040513d601f19601f820116820180604052508101906132909190613a68565b6040808701516001600160a01b0390811660009081526009602052828120549251632f5091a160e21b8152939450928187169263bd424684926132da929116908690600401613aef565b602060405180830381600087803b1580156132f457600080fd5b505af1158015613308573d6000803e3d6000fd5b505050506040513d601f19601f8201168201806040525081019061332c9190613a68565b90506000670de0b6b3a76400008488608001516133499190613cb6565b6133539190613c94565b90506000856001600160a01b031663bd4246848960600151846040518363ffffffff1660e01b8152600401613389929190613aef565b602060405180830381600087803b1580156133a357600080fd5b505af11580156133b7573d6000803e3d6000fd5b505050506040513d601f19601f820116820180604052508101906133db9190613a68565b90508083106133f95750670de0b6b3a7640000979650505050505050565b8061340c84670de0b6b3a7640000613cb6565b6134169190613c94565b98975050505050505050565b6000818310613431578161189e565b5090919050565b61348e8363a9059cbb60e01b8484604051602401613457929190613aef565b60408051601f198184030181529190526020810180516001600160e01b03166001600160e01b031990931692909217909152613592565b505050565b600061349e30613583565b15905090565b611827846323b872dd60e01b85858560405160240161345793929190613acb565b6134cd6118a5565b6134e95760405162461bcd60e51b815260040161060090613b65565b6000805462ff0000191690557f5db9ee0a495bf2e6ff9c91a7834c1ba4fdd244a5e8aa4e537bd38aeae4b073aa335b604051612d439190613a9d565b61352d6118a5565b1561354a5760405162461bcd60e51b815260040161060090613bf1565b6000805462ff00001916620100001790557f62e78cea01bee320cd4e420270b5ea74000d11b0c9f74754ebdbfc544b05a2586135183390565b6001600160a01b03163b151590565b60006135e7826040518060400160405280602081526020017f5361666545524332303a206c6f772d6c6576656c2063616c6c206661696c6564815250856001600160a01b03166136649092919063ffffffff16565b80519091501561348e57808060200190518101906136059190613a4b565b61348e5760405162461bcd60e51b815260206004820152602a60248201527f5361666545524332303a204552433230206f7065726174696f6e20646964206e6044820152691bdd081cdd58d8d9595960b21b6064820152608401610600565b6060613673848460008561367b565b949350505050565b6060824710156136dc5760405162461bcd60e51b815260206004820152602660248201527f416464726573733a20696e73756666696369656e742062616c616e636520666f6044820152651c8818d85b1b60d21b6064820152608401610600565b6136e585613583565b6137315760405162461bcd60e51b815260206004820152601d60248201527f416464726573733a2063616c6c20746f206e6f6e2d636f6e74726163740000006044820152606401610600565b600080866001600160a01b0316858760405161374d9190613a81565b60006040518083038185875af1925050503d806000811461378a576040519150601f19603f3d011682016040523d82523d6000602084013e61378f565b606091505b509150915061379f8282866137aa565b979650505050505050565b606083156137b957508161189e565b8251156137c95782518084602001fd5b8160405162461bcd60e51b81526004016106009190613b08565b6000602082840312156137f557600080fd5b813561189e81613d5f565b60006020828403121561381257600080fd5b815161189e81613d5f565b6000806040838503121561383057600080fd5b823561383b81613d5f565b9150602083013561384b81613d5f565b809150509250929050565b60008060006060848603121561386b57600080fd5b833561387681613d5f565b9250602084013561388681613d5f565b9150604084013561389681613d5f565b809150509250925092565b600080600080600060a086880312156138b957600080fd5b85356138c481613d5f565b945060208601356138d481613d5f565b935060408601356138e481613d5f565b925060608601356138f481613d5f565b9150608086013561390481613d5f565b809150509295509295909350565b60008060006060848603121561392757600080fd5b833561393281613d5f565b9250602084013561394281613d5f565b929592945050506040919091013590565b6000806040838503121561396657600080fd5b823561397181613d5f565b946020939093013593505050565b60008060006060848603121561399457600080fd5b833561399f81613d5f565b95602085013595506040909401359392505050565b6000806000604084860312156139c957600080fd5b83356001600160401b03808211156139e057600080fd5b818601915086601f8301126139f457600080fd5b813581811115613a0357600080fd5b8760208260051b8501011115613a1857600080fd5b6020928301955093505084013561389681613d77565b600060208284031215613a4057600080fd5b813561189e81613d77565b600060208284031215613a5d57600080fd5b815161189e81613d77565b600060208284031215613a7a57600080fd5b5051919050565b60008251613a93818460208701613cec565b9190910192915050565b6001600160a01b0391909116815260200190565b6001600160a01b0392831681529116602082015260400190565b6001600160a01b039384168152919092166020820152604081019190915260600190565b6001600160a01b03929092168252602082015260400190565b6020815260008251806020840152613b27816040850160208701613cec565b601f01601f19169190910160400192915050565b60208082526010908201526f2132ba30a130b73597b7b7363ca3b7bb60811b604082015260600190565b60208082526014908201527314185d5cd8589b194e881b9bdd081c185d5cd95960621b604082015260600190565b6020808252600f908201526e10995d1850985b9acbdb1bd8dad959608a1b604082015260600190565b6020808252601b908201527a2132ba30a130b73597b4b9a832b936b4ba3a32b2213ca7bbb732b960291b604082015260600190565b60208082526010908201526f14185d5cd8589b194e881c185d5cd95960821b604082015260600190565b60208082526011908201527010995d1850985b9acbd8da1958dad41251607a1b604082015260600190565b9182526001600160a01b0316602082015260400190565b92835260208301919091526001600160a01b0316604082015260600190565b60008219821115613c8f57613c8f613d33565b500190565b600082613cb157634e487b7160e01b600052601260045260246000fd5b500490565b6000816000190483118215151615613cd057613cd0613d33565b500290565b600082821015613ce757613ce7613d33565b500390565b60005b83811015613d07578181015183820152602001613cef565b838111156118275750506000910152565b6000600019821415613d2c57613d2c613d33565b5060010190565b634e487b7160e01b600052601160045260246000fd5b634e487b7160e01b600052603260045260246000fd5b6001600160a01b0381168114613d7457600080fd5b50565b8015158114613d7457600080fdfed3b5d1e0ffaeff528910f3663f0adace7694ab8241d58e17a91351ced2e08031c5618716db99966ac0bedb011a55472827d54343d73b50c3118c0b03cdf1c75f2f39052eae53bd818667d1ebcc2423988c8ef77de1477853c399e84c774d6b0ebce074c8369e26e70e1ae2f14fc944da352cfe6f52e2de9572f0c9942a24b7fca2646970667358221220a3fb277d36951041088fb25d70603e2b071a655be5f6c7e4d5e0b823eddd69de64736f6c63430008060033",
  "immutableReferences": {},
  "source": "// SPDX-License-Identifier: BUSL-1.1\r\npragma solidity 0.8.6;\r\n\r\nimport \"@openzeppelin/contracts/token/ERC20/IERC20.sol\";\r\nimport \"@openzeppelin/contracts/token/ERC20/utils/SafeERC20.sol\";\r\nimport \"@openzeppelin/contracts/proxy/utils/Initializable.sol\";\r\nimport \"@openzeppelin/contracts/security/Pausable.sol\";\r\nimport \"@openzeppelin/contracts/utils/Address.sol\"; \r\nimport \"@openzeppelin/contracts/utils/math/Math.sol\";\r\n\r\nimport './BToken.sol';\r\nimport './BTokenDeployer.sol';\r\nimport '../interfaces/IBetaBank.sol';\r\nimport '../interfaces/IBetaOracle.sol';\r\n\r\ncontract BetaBank is IBetaBank, Initializable, Pausable {\r\n  using Address for address;\r\n  using SafeERC20 for IERC20;\r\n\r\n  event Create(address indexed underlying, address bToken);\r\n  event Open(address indexed owner, uint indexed pid, address bToken, address collateral);\r\n  event Borrow(address indexed owner, uint indexed pid, uint amount, uint share, address borrower);\r\n  event Repay(address indexed owner, uint indexed pid, uint amount, uint share, address payer);\r\n  event Put(address indexed owner, uint indexed pid, uint amount, address payer);\r\n  event Take(address indexed owner, uint indexed pid, uint amount, address to);\r\n  event Liquidate(\r\n    address indexed owner,\r\n    uint indexed pid,\r\n    uint amount,\r\n    uint share,\r\n    uint reward,\r\n    address caller\r\n  );\r\n  event SelflessLiquidate(\r\n    address indexed owner,\r\n    uint indexed pid,\r\n    uint amount,\r\n    uint share,\r\n    address caller\r\n  );\r\n  event SetGovernor(address governor);\r\n  event SetPendingGovernor(address pendingGovernor);\r\n  event SetOracle(address oracle);\r\n  event SetConfig(address config);\r\n  event SetInterestModel(address interestModel);\r\n  event SetRunnerWhitelist(address indexed runner, bool ok);\r\n  event SetOwnerWhitelist(address indexed owner, bool ok);\r\n  event SetAllowPublicCreate(bool ok);\r\n\r\n  struct Position {\r\n    uint32 blockBorrowPut; // safety check\r\n    uint32 blockRepayTake; // safety check\r\n    address bToken;\r\n    address collateral;\r\n    uint collateralSize;\r\n    uint debtShare;\r\n  }\r\n\r\n  uint private unlocked; // reentrancy variable\r\n  address public deployer; // deployer address\r\n  address public override oracle; // oracle address\r\n  address public override config; // config address\r\n  address public override interestModel; // interest rate model address\r\n  address public governor; // current governor\r\n  address public pendingGovernor; // pending governor\r\n  bool public allowPublicCreate; // allow public to create pool status\r\n\r\n  mapping(address => address) public override bTokens; // mapping from underlying to bToken\r\n  mapping(address => address) public override underlyings; // mapping from bToken to underlying token\r\n  mapping(address => bool) public runnerWhitelists; // whitelist of authorized routers\r\n  mapping(address => bool) public ownerWhitelists; // whitelist of authorized owners\r\n\r\n  mapping(address => mapping(uint => Position)) public positions; // mapping from user to the user's position id to Position info\r\n  mapping(address => uint) public nextPositionIds; // mapping from user to next position id (position count)\r\n  mapping(address => uint) public totalCollaterals; // mapping from token address to amount of collateral\r\n\r\n  /// @dev Reentrancy guard modifier\r\n  modifier lock() {\r\n    require(unlocked == 1, 'BetaBank/locked');\r\n    unlocked = 2;\r\n    _;\r\n    unlocked = 1;\r\n  }\r\n\r\n  /// @dev Only governor is allowed modifier.\r\n  modifier onlyGov() {\r\n    require(msg.sender == governor, 'BetaBank/onlyGov');\r\n    _;\r\n  }\r\n\r\n  /// @dev Check if sender is allowed to perform action on behalf of the owner modifier.\r\n  modifier isPermittedByOwner(address _owner) {\r\n    require(isPermittedCaller(_owner, msg.sender), 'BetaBank/isPermittedByOwner');\r\n    _;\r\n  }\r\n\r\n  /// @dev Check is pool id exist for the owner modifier.\r\n  modifier checkPID(address _owner, uint _pid) {\r\n    require(_pid < nextPositionIds[_owner], 'BetaBank/checkPID');\r\n    _;\r\n  }\r\n\r\n  /// @dev Initializes this smart contract. No constructor to make this upgradable.\r\n  function initialize(\r\n    address _governor,\r\n    address _deployer,\r\n    address _oracle,\r\n    address _config,\r\n    address _interestModel\r\n  ) external initializer {\r\n    require(_governor != address(0), 'initialize/governor-zero-address');\r\n    require(_deployer != address(0), 'initialize/deployer-zero-address');\r\n    require(_oracle != address(0), 'initialize/oracle-zero-address');\r\n    require(_config != address(0), 'initialize/config-zero-address');\r\n    require(_interestModel != address(0), 'initialize/interest-model-zero-address');\r\n    governor = _governor;\r\n    deployer = _deployer;\r\n    oracle = _oracle;\r\n    config = _config;\r\n    interestModel = _interestModel;\r\n    unlocked = 1;\r\n    emit SetGovernor(_governor);\r\n    emit SetOracle(_oracle);\r\n    emit SetConfig(_config);\r\n    emit SetInterestModel(_interestModel);\r\n  }\r\n\r\n  /// @dev Sets the next governor, which will be in effect when they accept.\r\n  /// @param _pendingGovernor The next governor address.\r\n  function setPendingGovernor(address _pendingGovernor) external onlyGov {\r\n    pendingGovernor = _pendingGovernor;\r\n    emit SetPendingGovernor(_pendingGovernor);\r\n  }\r\n\r\n  /// @dev Accepts to become the next governor. Must only be called by the pending governor.\r\n  function acceptGovernor() external {\r\n    require(msg.sender == pendingGovernor, 'acceptGovernor/not-pending-governor');\r\n    pendingGovernor = address(0);\r\n    governor = msg.sender;\r\n    emit SetGovernor(msg.sender);\r\n  }\r\n\r\n  /// @dev Updates the oracle address. Must only be called by the governor.\r\n  function setOracle(address _oracle) external onlyGov {\r\n    require(_oracle != address(0), 'setOracle/zero-address');\r\n    oracle = _oracle;\r\n    emit SetOracle(_oracle);\r\n  }\r\n\r\n  /// @dev Updates the config address. Must only be called by the governor.\r\n  function setConfig(address _config) external onlyGov {\r\n    require(_config != address(0), 'setConfig/zero-address');\r\n    config = _config;\r\n    emit SetConfig(_config);\r\n  }\r\n\r\n  /// @dev Updates the interest model address. Must only be called by the governor.\r\n  function setInterestModel(address _interestModel) external onlyGov {\r\n    require(_interestModel != address(0), 'setInterestModel/zero-address');\r\n    interestModel = _interestModel;\r\n    emit SetInterestModel(_interestModel);\r\n  }\r\n\r\n  /// @dev Sets the whitelist statuses for the given runners. Must only be called by the governor.\r\n  function setRunnerWhitelists(address[] calldata _runners, bool ok) external onlyGov {\r\n    for (uint idx = 0; idx < _runners.length; idx++) {\r\n      runnerWhitelists[_runners[idx]] = ok;\r\n      emit SetRunnerWhitelist(_runners[idx], ok);\r\n    }\r\n  }\r\n\r\n  /// @dev Sets the whitelist statuses for the given owners. Must only be called by the governor.\r\n  function setOwnerWhitelists(address[] calldata _owners, bool ok) external onlyGov {\r\n    for (uint idx = 0; idx < _owners.length; idx++) {\r\n      ownerWhitelists[_owners[idx]] = ok;\r\n      emit SetOwnerWhitelist(_owners[idx], ok);\r\n    }\r\n  }\r\n\r\n  /// @dev Pauses and stops money market-related interactions. Must only be called by the governor.\r\n  function pause() external whenNotPaused onlyGov {\r\n    _pause();\r\n  }\r\n\r\n  /// @dev Unpauses and allows again money market-related interactions. Must only be called by the governor.\r\n  function unpause() external whenPaused onlyGov {\r\n    _unpause();\r\n  }\r\n\r\n  /// @dev Sets whether anyone can create btoken of any token. Must only be called by the governor.\r\n  function setAllowPublicCreate(bool _ok) external onlyGov {\r\n    allowPublicCreate = _ok;\r\n    emit SetAllowPublicCreate(_ok);\r\n  }\r\n\r\n              /*Create Permisional Money Market*/\r\n\r\n  /// @dev Creates a new money market for the given underlying token. Permissionless.\r\n  /// @param _underlying The ERC-20 that is borrowable in the newly created market contract.\r\n  function create(address _underlying) external lock whenNotPaused returns (address bToken) {\r\n    require(allowPublicCreate || msg.sender == governor, 'create/unauthorized');\r\n    require(_underlying != address(this), 'create/not-like-this');\r\n    require(_underlying.isContract(), 'create/underlying-not-contract');\r\n    require(bTokens[_underlying] == address(0), 'create/underlying-already-exists');\r\n    require(IBetaOracle(oracle).getAssetETHPrice(_underlying) > 0, 'create/no-price');\r\n    bToken = BTokenDeployer(deployer).deploy(_underlying);\r\n    bTokens[_underlying] = bToken;\r\n    underlyings[bToken] = _underlying;\r\n    emit Create(_underlying, bToken);\r\n  }\r\n\r\n  /// @dev Returns whether the given sender is allowed to interact with a position of the owner.\r\n  function isPermittedCaller(address _owner, address _sender) public view returns (bool) {\r\n    // ONE OF THE TWO CONDITIONS MUST HOLD:\r\n    // 1. allow if sender is owner and owner is whitelisted.\r\n    // 2. allow if owner is origin tx sender (for extra safety) and sender is globally accepted.\r\n    return ((_owner == _sender && ownerWhitelists[_owner]) ||\r\n      (_owner == tx.origin && runnerWhitelists[_sender]));\r\n  }\r\n\r\n  /// @dev Returns the position's collateral token and BToken.\r\n  function getPositionTokens(address _owner, uint _pid)\r\n    external\r\n    view\r\n    override\r\n    checkPID(_owner, _pid)\r\n    returns (address _collateral, address _bToken)\r\n  {\r\n    Position storage pos = positions[_owner][_pid];\r\n    _collateral = pos.collateral;\r\n    _bToken = pos.bToken;\r\n  }\r\n\r\n  /// @dev Returns the debt of the given position. Can't be view as it needs to call accrue.\r\n  function fetchPositionDebt(address _owner, uint _pid)\r\n    external\r\n    override\r\n    checkPID(_owner, _pid)\r\n    returns (uint)\r\n  {\r\n    Position storage pos = positions[_owner][_pid];\r\n    return BToken(pos.bToken).fetchDebtShareValue(pos.debtShare);\r\n  }\r\n\r\n  /// @dev Returns the LTV of the given position. Can't be view as it needs to call accrue.\r\n  function fetchPositionLTV(address _owner, uint _pid)\r\n    external\r\n    override\r\n    checkPID(_owner, _pid)\r\n    returns (uint)\r\n  {\r\n    return _fetchPositionLTV(positions[_owner][_pid]);\r\n  }\r\n\r\n  /// @dev Opens a new position to borrow a specific token for a specific collateral.\r\n  /// @param _owner The owner of the newly created position. Sender must be allowed to act for.\r\n  /// @param _underlying The token that is allowed to be borrowed in this position.\r\n  /// @param _collateral The token that is used as collateral in this position.\r\n  function open(\r\n    address _owner,\r\n    address _underlying,\r\n    address _collateral\r\n  ) external override whenNotPaused isPermittedByOwner(_owner) returns (uint pid) {\r\n    address bToken = bTokens[_underlying];\r\n    require(bToken != address(0), 'open/bad-underlying');\r\n    require(_underlying != _collateral, 'open/self-collateral');\r\n    require(IBetaConfig(config).getCollFactor(_collateral) > 0, 'open/bad-collateral');\r\n    require(IBetaOracle(oracle).getAssetETHPrice(_collateral) > 0, 'open/no-price');\r\n    pid = nextPositionIds[_owner]++;\r\n    Position storage pos = positions[_owner][pid];\r\n    pos.bToken = bToken;\r\n    pos.collateral = _collateral;\r\n    emit Open(_owner, pid, bToken, _collateral);\r\n  }\r\n\r\n  /// @dev Borrows tokens on the given position. Position must still be safe.\r\n  /// @param _owner The position owner to borrow underlying tokens.\r\n  /// @param _pid The position id to borrow underlying tokens.\r\n  /// @param _amount The amount of underlying tokens to borrow.\r\n  function borrow(\r\n    address _owner,\r\n    uint _pid,\r\n    uint _amount\r\n  ) external override lock whenNotPaused isPermittedByOwner(_owner) checkPID(_owner, _pid) {\r\n    // 1. pre-conditions\r\n    Position memory pos = positions[_owner][_pid];\r\n    require(pos.blockRepayTake != uint32(block.number), 'borrow/bad-block');\r\n    // 2. perform the borrow and update the position\r\n    uint share = BToken(pos.bToken).borrow(msg.sender, _amount);\r\n    pos.debtShare += share;\r\n    positions[_owner][_pid].debtShare = pos.debtShare;\r\n    positions[_owner][_pid].blockBorrowPut = uint32(block.number);\r\n    // 3. make sure the position is still safe\r\n    uint ltv = _fetchPositionLTV(pos);\r\n    require(ltv <= IBetaConfig(config).getSafetyLTV(underlyings[pos.bToken]), 'borrow/not-safe');\r\n    emit Borrow(_owner, _pid, _amount, share, msg.sender);\r\n  }\r\n\r\n  /// @dev Repays tokens on the given position. Payer must be position owner or sender.\r\n  /// @param _owner The position owner to repay underlying tokens.\r\n  /// @param _pid The position id to repay underlying tokens.\r\n  /// @param _amount The amount of underlying tokens to repay.\r\n  function repay(\r\n    address _owner,\r\n    uint _pid,\r\n    uint _amount\r\n  ) external override lock whenNotPaused isPermittedByOwner(_owner) checkPID(_owner, _pid) {\r\n    // 1. pre-conditions\r\n    Position memory pos = positions[_owner][_pid];\r\n    require(pos.blockBorrowPut != uint32(block.number), 'repay/bad-block');\r\n    // 2. perform the repayment and update the position - no collateral check required\r\n    uint share = BToken(pos.bToken).repay(msg.sender, _amount);\r\n    pos.debtShare -= share;\r\n    positions[_owner][_pid].debtShare = pos.debtShare;\r\n    positions[_owner][_pid].blockRepayTake = uint32(block.number);\r\n    emit Repay(_owner, _pid, _amount, share, msg.sender);\r\n  }\r\n\r\n  /// @dev Puts more collateral to the given position. Payer must be position owner or sender.\r\n  /// @param _owner The position owner to put more collateral.\r\n  /// @param _pid The position id to put more collateral.\r\n  /// @param _amount The amount of collateral to put via `transferFrom`.\r\n  function put(\r\n    address _owner,\r\n    uint _pid,\r\n    uint _amount\r\n  ) external override lock whenNotPaused isPermittedByOwner(_owner) checkPID(_owner, _pid) {\r\n    // 1. pre-conditions\r\n    Position memory pos = positions[_owner][_pid];\r\n    require(pos.blockRepayTake != uint32(block.number), 'put/bad-block');\r\n    // 2. transfer collateral tokens in\r\n    uint amount;\r\n    {\r\n      uint balBefore = IERC20(pos.collateral).balanceOf(address(this));\r\n      IERC20(pos.collateral).safeTransferFrom(msg.sender, address(this), _amount);\r\n      uint balAfter = IERC20(pos.collateral).balanceOf(address(this));\r\n      amount = balAfter - balBefore;\r\n    }\r\n    // 3. update the position and total collateral + check global collateral cap\r\n    pos.collateralSize += amount;\r\n    totalCollaterals[pos.collateral] += amount;\r\n    require(\r\n      totalCollaterals[pos.collateral] <= IBetaConfig(config).getCollMaxAmount(pos.collateral),\r\n      'put/too-much-collateral'\r\n    );\r\n    positions[_owner][_pid].collateralSize = pos.collateralSize;\r\n    positions[_owner][_pid].blockBorrowPut = uint32(block.number);\r\n    emit Put(_owner, _pid, _amount, msg.sender);\r\n  }\r\n\r\n  /// @dev Takes some collateral out of the position and send it out. Position must still be safe.\r\n  /// @param _owner The position owner to take collateral out.\r\n  /// @param _pid The position id to take collateral out.\r\n  /// @param _amount The amount of collateral to take via `transfer`.\r\n  function take(\r\n    address _owner,\r\n    uint _pid,\r\n    uint _amount\r\n  ) external override lock whenNotPaused isPermittedByOwner(_owner) checkPID(_owner, _pid) {\r\n    // 1. pre-conditions\r\n    Position memory pos = positions[_owner][_pid];\r\n    require(pos.blockBorrowPut != uint32(block.number), 'take/bad-block');\r\n    // 2. update position collateral size and total collateral\r\n    pos.collateralSize -= _amount;\r\n    totalCollaterals[pos.collateral] -= _amount;\r\n    positions[_owner][_pid].collateralSize = pos.collateralSize;\r\n    positions[_owner][_pid].blockRepayTake = uint32(block.number);\r\n    // 3. make sure the position is still safe\r\n    uint ltv = _fetchPositionLTV(pos);\r\n    require(ltv <= IBetaConfig(config).getSafetyLTV(underlyings[pos.bToken]), 'take/not-safe');\r\n    // 4. transfer collateral tokens out\r\n    IERC20(pos.collateral).safeTransfer(msg.sender, _amount);\r\n    emit Take(_owner, _pid, _amount, msg.sender);\r\n  }\r\n\r\n  /// @dev Liquidates the given position. Can be called by anyone but must be liquidatable.\r\n  /// @param _owner The position owner to be liquidated.\r\n  /// @param _pid The position id to be liquidated.\r\n  /// @param _amount The amount of debt to be repaid by caller. Must not exceed half debt (rounded up).\r\n  function liquidate(\r\n    address _owner,\r\n    uint _pid,\r\n    uint _amount\r\n  ) external override lock whenNotPaused checkPID(_owner, _pid) {\r\n    // 1. check liquidation condition\r\n    Position memory pos = positions[_owner][_pid];\r\n    address underlying = underlyings[pos.bToken];\r\n    uint ltv = _fetchPositionLTV(pos);\r\n    require(ltv >= IBetaConfig(config).getLiquidationLTV(underlying), 'liquidate/not-liquidatable');\r\n    // 2. perform repayment\r\n    uint debtShare = BToken(pos.bToken).repay(msg.sender, _amount);\r\n    require(debtShare <= (pos.debtShare + 1) / 2, 'liquidate/too-much-liquidation');\r\n    // 3. calculate reward and payout\r\n    uint debtValue = BToken(pos.bToken).fetchDebtShareValue(debtShare);\r\n    uint collValue = IBetaOracle(oracle).convert(underlying, pos.collateral, debtValue);\r\n    uint payout = Math.min(\r\n      collValue + (collValue * IBetaConfig(config).getKillBountyRate(underlying)) / 1e18,\r\n      pos.collateralSize\r\n    );\r\n    // 4. update the position and total collateral\r\n    pos.debtShare -= debtShare;\r\n    positions[_owner][_pid].debtShare = pos.debtShare;\r\n    pos.collateralSize -= payout;\r\n    positions[_owner][_pid].collateralSize = pos.collateralSize;\r\n    totalCollaterals[pos.collateral] -= payout;\r\n    // 5. transfer the payout out\r\n    IERC20(pos.collateral).safeTransfer(msg.sender, payout);\r\n    emit Liquidate(_owner, _pid, _amount, debtShare, payout, msg.sender);\r\n  }\r\n\r\n  /// @dev onlyGov selfless liquidation if collateral size = 0\r\n  /// @param _owner The position owner to be liquidated.\r\n  /// @param _pid The position id to be liquidated.\r\n  /// @param _amount The amount of debt to be repaid by caller.\r\n  function selflessLiquidate(\r\n    address _owner,\r\n    uint _pid,\r\n    uint _amount\r\n  ) external onlyGov lock checkPID(_owner, _pid) {\r\n    // 1. check positions collateral size\r\n    Position memory pos = positions[_owner][_pid];\r\n    require(pos.collateralSize == 0, 'selflessLiquidate/positive-collateral');\r\n    // 2. perform debt repayment\r\n    uint debtValue = BToken(pos.bToken).fetchDebtShareValue(pos.debtShare);\r\n    _amount = Math.min(_amount, debtValue);\r\n    uint debtShare = BToken(pos.bToken).repay(msg.sender, _amount);\r\n    pos.debtShare -= debtShare;\r\n    positions[_owner][_pid].debtShare = pos.debtShare;\r\n    emit SelflessLiquidate(_owner, _pid, _amount, debtShare, msg.sender);\r\n  }\r\n\r\n  /// @dev Recovers lost tokens by the governor. This function is extremely powerful so be careful.\r\n  /// @param _bToken The BToken to propagate this recover call.\r\n  /// @param _token The ERC20 token to recover.\r\n  /// @param _amount The amount of tokens to recover.\r\n  function recover(\r\n    address _bToken,\r\n    address _token,\r\n    uint _amount\r\n  ) external onlyGov lock {\r\n    require(underlyings[_bToken] != address(0), 'recover/not-bToken');\r\n    BToken(_bToken).recover(_token, msg.sender, _amount);\r\n  }\r\n\r\n  /// @dev Returns the current LTV of the given position.\r\n  function _fetchPositionLTV(Position memory pos) internal returns (uint) {\r\n    if (pos.debtShare == 0) {\r\n      return 0; // no debt means zero LTV\r\n    }\r\n\r\n    address oracle_ = oracle; // gas saving\r\n    uint collFactor = IBetaConfig(config).getCollFactor(pos.collateral);\r\n    require(collFactor > 0, 'fetch/bad-collateral');\r\n    uint debtSize = BToken(pos.bToken).fetchDebtShareValue(pos.debtShare);\r\n    uint debtValue = IBetaOracle(oracle_).getAssetETHValue(underlyings[pos.bToken], debtSize);\r\n    uint collCred = (pos.collateralSize * collFactor) / 1e18;\r\n    uint collValue = IBetaOracle(oracle_).getAssetETHValue(pos.collateral, collCred);\r\n\r\n    if (debtValue >= collValue) {\r\n      return 1e18; // 100% LTV is very very bad and must always be liquidatable and unsafe\r\n    }\r\n    return (debtValue * 1e18) / collValue;\r\n  }\r\n}\r\n",
  "sourcePath": "C:\\Users\\HP\\PoolContract\\contracts\\BetaBank.sol",
  "compiler": {
    "name": "solc",
    "version": "0.8.6+commit.11564f7e.Emscripten.clang"
  },
  "schemaVersion": "3.4.4",
  "updatedAt": "2022-03-11T12:18:17.767Z",
  "devdoc": {
    "kind": "dev",
    "methods": {
      "acceptGovernor()": {
        "details": "Accepts to become the next governor. Must only be called by the pending governor."
      },
      "borrow(address,uint256,uint256)": {
        "details": "Borrows tokens on the given position. Position must still be safe.",
        "params": {
          "_amount": "The amount of underlying tokens to borrow.",
          "_owner": "The position owner to borrow underlying tokens.",
          "_pid": "The position id to borrow underlying tokens."
        }
      },
      "create(address)": {
        "details": "Creates a new money market for the given underlying token. Permissionless.",
        "params": {
          "_underlying": "The ERC-20 that is borrowable in the newly created market contract."
        }
      },
      "fetchPositionDebt(address,uint256)": {
        "details": "Returns the debt of the given position. Can't be view as it needs to call accrue."
      },
      "fetchPositionLTV(address,uint256)": {
        "details": "Returns the LTV of the given position. Can't be view as it needs to call accrue."
      },
      "getPositionTokens(address,uint256)": {
        "details": "Returns the position's collateral token and BToken."
      },
      "initialize(address,address,address,address,address)": {
        "details": "Initializes this smart contract. No constructor to make this upgradable."
      },
      "isPermittedCaller(address,address)": {
        "details": "Returns whether the given sender is allowed to interact with a position of the owner."
      },
      "liquidate(address,uint256,uint256)": {
        "details": "Liquidates the given position. Can be called by anyone but must be liquidatable.",
        "params": {
          "_amount": "The amount of debt to be repaid by caller. Must not exceed half debt (rounded up).",
          "_owner": "The position owner to be liquidated.",
          "_pid": "The position id to be liquidated."
        }
      },
      "open(address,address,address)": {
        "details": "Opens a new position to borrow a specific token for a specific collateral.",
        "params": {
          "_collateral": "The token that is used as collateral in this position.",
          "_owner": "The owner of the newly created position. Sender must be allowed to act for.",
          "_underlying": "The token that is allowed to be borrowed in this position."
        }
      },
      "pause()": {
        "details": "Pauses and stops money market-related interactions. Must only be called by the governor."
      },
      "paused()": {
        "details": "Returns true if the contract is paused, and false otherwise."
      },
      "put(address,uint256,uint256)": {
        "details": "Puts more collateral to the given position. Payer must be position owner or sender.",
        "params": {
          "_amount": "The amount of collateral to put via `transferFrom`.",
          "_owner": "The position owner to put more collateral.",
          "_pid": "The position id to put more collateral."
        }
      },
      "recover(address,address,uint256)": {
        "details": "Recovers lost tokens by the governor. This function is extremely powerful so be careful.",
        "params": {
          "_amount": "The amount of tokens to recover.",
          "_bToken": "The BToken to propagate this recover call.",
          "_token": "The ERC20 token to recover."
        }
      },
      "repay(address,uint256,uint256)": {
        "details": "Repays tokens on the given position. Payer must be position owner or sender.",
        "params": {
          "_amount": "The amount of underlying tokens to repay.",
          "_owner": "The position owner to repay underlying tokens.",
          "_pid": "The position id to repay underlying tokens."
        }
      },
      "selflessLiquidate(address,uint256,uint256)": {
        "details": "onlyGov selfless liquidation if collateral size = 0",
        "params": {
          "_amount": "The amount of debt to be repaid by caller.",
          "_owner": "The position owner to be liquidated.",
          "_pid": "The position id to be liquidated."
        }
      },
      "setAllowPublicCreate(bool)": {
        "details": "Sets whether anyone can create btoken of any token. Must only be called by the governor."
      },
      "setConfig(address)": {
        "details": "Updates the config address. Must only be called by the governor."
      },
      "setInterestModel(address)": {
        "details": "Updates the interest model address. Must only be called by the governor."
      },
      "setOracle(address)": {
        "details": "Updates the oracle address. Must only be called by the governor."
      },
      "setOwnerWhitelists(address[],bool)": {
        "details": "Sets the whitelist statuses for the given owners. Must only be called by the governor."
      },
      "setPendingGovernor(address)": {
        "details": "Sets the next governor, which will be in effect when they accept.",
        "params": {
          "_pendingGovernor": "The next governor address."
        }
      },
      "setRunnerWhitelists(address[],bool)": {
        "details": "Sets the whitelist statuses for the given runners. Must only be called by the governor."
      },
      "take(address,uint256,uint256)": {
        "details": "Takes some collateral out of the position and send it out. Position must still be safe.",
        "params": {
          "_amount": "The amount of collateral to take via `transfer`.",
          "_owner": "The position owner to take collateral out.",
          "_pid": "The position id to take collateral out."
        }
      },
      "unpause()": {
        "details": "Unpauses and allows again money market-related interactions. Must only be called by the governor."
      }
    },
    "stateVariables": {
      "bTokens": {
        "details": "Returns the address of BToken of the given underlying token, or 0 if not exists."
      },
      "config": {
        "details": "Returns the address of the config contract."
      },
      "interestModel": {
        "details": "Returns the interest rate model smart contract."
      },
      "oracle": {
        "details": "Returns the address of the oracle contract."
      },
      "underlyings": {
        "details": "Returns the address of the underlying of the given BToken, or 0 if not exists."
      }
    },
    "version": 1
  },
  "userdoc": {
    "kind": "user",
    "methods": {},
    "version": 1
  }
}