{
  "contractName": "BetaToken",
  "abi": [
    {
      "anonymous": false,
      "inputs": [
        {
          "indexed": true,
          "internalType": "address",
          "name": "owner",
          "type": "address"
        },
        {
          "indexed": true,
          "internalType": "address",
          "name": "spender",
          "type": "address"
        },
        {
          "indexed": false,
          "internalType": "uint256",
          "name": "value",
          "type": "uint256"
        }
      ],
      "name": "Approval",
      "type": "event"
    },
    {
      "anonymous": false,
      "inputs": [
        {
          "indexed": false,
          "internalType": "address",
          "name": "account",
          "type": "address"
        }
      ],
      "name": "Paused",
      "type": "event"
    },
    {
      "anonymous": false,
      "inputs": [
        {
          "indexed": true,
          "internalType": "bytes32",
          "name": "role",
          "type": "bytes32"
        },
        {
          "indexed": true,
          "internalType": "bytes32",
          "name": "previousAdminRole",
          "type": "bytes32"
        },
        {
          "indexed": true,
          "internalType": "bytes32",
          "name": "newAdminRole",
          "type": "bytes32"
        }
      ],
      "name": "RoleAdminChanged",
      "type": "event"
    },
    {
      "anonymous": false,
      "inputs": [
        {
          "indexed": true,
          "internalType": "bytes32",
          "name": "role",
          "type": "bytes32"
        },
        {
          "indexed": true,
          "internalType": "address",
          "name": "account",
          "type": "address"
        },
        {
          "indexed": true,
          "internalType": "address",
          "name": "sender",
          "type": "address"
        }
      ],
      "name": "RoleGranted",
      "type": "event"
    },
    {
      "anonymous": false,
      "inputs": [
        {
          "indexed": true,
          "internalType": "bytes32",
          "name": "role",
          "type": "bytes32"
        },
        {
          "indexed": true,
          "internalType": "address",
          "name": "account",
          "type": "address"
        },
        {
          "indexed": true,
          "internalType": "address",
          "name": "sender",
          "type": "address"
        }
      ],
      "name": "RoleRevoked",
      "type": "event"
    },
    {
      "anonymous": false,
      "inputs": [
        {
          "indexed": true,
          "internalType": "address",
          "name": "from",
          "type": "address"
        },
        {
          "indexed": true,
          "internalType": "address",
          "name": "to",
          "type": "address"
        },
        {
          "indexed": false,
          "internalType": "uint256",
          "name": "value",
          "type": "uint256"
        }
      ],
      "name": "Transfer",
      "type": "event"
    },
    {
      "anonymous": false,
      "inputs": [
        {
          "indexed": false,
          "internalType": "address",
          "name": "account",
          "type": "address"
        }
      ],
      "name": "Unpaused",
      "type": "event"
    },
    {
      "inputs": [],
      "name": "DEFAULT_ADMIN_ROLE",
      "outputs": [
        {
          "internalType": "bytes32",
          "name": "",
          "type": "bytes32"
        }
      ],
      "stateMutability": "view",
      "type": "function"
    },
    {
      "inputs": [],
      "name": "DOMAIN_SEPARATOR",
      "outputs": [
        {
          "internalType": "bytes32",
          "name": "",
          "type": "bytes32"
        }
      ],
      "stateMutability": "view",
      "type": "function"
    },
    {
      "inputs": [],
      "name": "MINTER_ROLE",
      "outputs": [
        {
          "internalType": "bytes32",
          "name": "",
          "type": "bytes32"
        }
      ],
      "stateMutability": "view",
      "type": "function"
    },
    {
      "inputs": [],
      "name": "PAUSER_ROLE",
      "outputs": [
        {
          "internalType": "bytes32",
          "name": "",
          "type": "bytes32"
        }
      ],
      "stateMutability": "view",
      "type": "function"
    },
    {
      "inputs": [
        {
          "internalType": "address",
          "name": "owner",
          "type": "address"
        },
        {
          "internalType": "address",
          "name": "spender",
          "type": "address"
        }
      ],
      "name": "allowance",
      "outputs": [
        {
          "internalType": "uint256",
          "name": "",
          "type": "uint256"
        }
      ],
      "stateMutability": "view",
      "type": "function"
    },
    {
      "inputs": [
        {
          "internalType": "address",
          "name": "spender",
          "type": "address"
        },
        {
          "internalType": "uint256",
          "name": "amount",
          "type": "uint256"
        }
      ],
      "name": "approve",
      "outputs": [
        {
          "internalType": "bool",
          "name": "",
          "type": "bool"
        }
      ],
      "stateMutability": "nonpayable",
      "type": "function"
    },
    {
      "inputs": [
        {
          "internalType": "address",
          "name": "account",
          "type": "address"
        }
      ],
      "name": "balanceOf",
      "outputs": [
        {
          "internalType": "uint256",
          "name": "",
          "type": "uint256"
        }
      ],
      "stateMutability": "view",
      "type": "function"
    },
    {
      "inputs": [
        {
          "internalType": "uint256",
          "name": "amount",
          "type": "uint256"
        }
      ],
      "name": "burn",
      "outputs": [],
      "stateMutability": "nonpayable",
      "type": "function"
    },
    {
      "inputs": [
        {
          "internalType": "address",
          "name": "account",
          "type": "address"
        },
        {
          "internalType": "uint256",
          "name": "amount",
          "type": "uint256"
        }
      ],
      "name": "burnFrom",
      "outputs": [],
      "stateMutability": "nonpayable",
      "type": "function"
    },
    {
      "inputs": [],
      "name": "decimals",
      "outputs": [
        {
          "internalType": "uint8",
          "name": "",
          "type": "uint8"
        }
      ],
      "stateMutability": "view",
      "type": "function"
    },
    {
      "inputs": [
        {
          "internalType": "address",
          "name": "spender",
          "type": "address"
        },
        {
          "internalType": "uint256",
          "name": "subtractedValue",
          "type": "uint256"
        }
      ],
      "name": "decreaseAllowance",
      "outputs": [
        {
          "internalType": "bool",
          "name": "",
          "type": "bool"
        }
      ],
      "stateMutability": "nonpayable",
      "type": "function"
    },
    {
      "inputs": [
        {
          "internalType": "bytes32",
          "name": "role",
          "type": "bytes32"
        }
      ],
      "name": "getRoleAdmin",
      "outputs": [
        {
          "internalType": "bytes32",
          "name": "",
          "type": "bytes32"
        }
      ],
      "stateMutability": "view",
      "type": "function"
    },
    {
      "inputs": [
        {
          "internalType": "bytes32",
          "name": "role",
          "type": "bytes32"
        },
        {
          "internalType": "uint256",
          "name": "index",
          "type": "uint256"
        }
      ],
      "name": "getRoleMember",
      "outputs": [
        {
          "internalType": "address",
          "name": "",
          "type": "address"
        }
      ],
      "stateMutability": "view",
      "type": "function"
    },
    {
      "inputs": [
        {
          "internalType": "bytes32",
          "name": "role",
          "type": "bytes32"
        }
      ],
      "name": "getRoleMemberCount",
      "outputs": [
        {
          "internalType": "uint256",
          "name": "",
          "type": "uint256"
        }
      ],
      "stateMutability": "view",
      "type": "function"
    },
    {
      "inputs": [
        {
          "internalType": "bytes32",
          "name": "role",
          "type": "bytes32"
        },
        {
          "internalType": "address",
          "name": "account",
          "type": "address"
        }
      ],
      "name": "grantRole",
      "outputs": [],
      "stateMutability": "nonpayable",
      "type": "function"
    },
    {
      "inputs": [
        {
          "internalType": "bytes32",
          "name": "role",
          "type": "bytes32"
        },
        {
          "internalType": "address",
          "name": "account",
          "type": "address"
        }
      ],
      "name": "hasRole",
      "outputs": [
        {
          "internalType": "bool",
          "name": "",
          "type": "bool"
        }
      ],
      "stateMutability": "view",
      "type": "function"
    },
    {
      "inputs": [
        {
          "internalType": "address",
          "name": "spender",
          "type": "address"
        },
        {
          "internalType": "uint256",
          "name": "addedValue",
          "type": "uint256"
        }
      ],
      "name": "increaseAllowance",
      "outputs": [
        {
          "internalType": "bool",
          "name": "",
          "type": "bool"
        }
      ],
      "stateMutability": "nonpayable",
      "type": "function"
    },
    {
      "inputs": [
        {
          "internalType": "address",
          "name": "to",
          "type": "address"
        },
        {
          "internalType": "uint256",
          "name": "amount",
          "type": "uint256"
        }
      ],
      "name": "mint",
      "outputs": [],
      "stateMutability": "nonpayable",
      "type": "function"
    },
    {
      "inputs": [],
      "name": "name",
      "outputs": [
        {
          "internalType": "string",
          "name": "",
          "type": "string"
        }
      ],
      "stateMutability": "view",
      "type": "function"
    },
    {
      "inputs": [
        {
          "internalType": "address",
          "name": "owner",
          "type": "address"
        }
      ],
      "name": "nonces",
      "outputs": [
        {
          "internalType": "uint256",
          "name": "",
          "type": "uint256"
        }
      ],
      "stateMutability": "view",
      "type": "function"
    },
    {
      "inputs": [],
      "name": "pause",
      "outputs": [],
      "stateMutability": "nonpayable",
      "type": "function"
    },
    {
      "inputs": [],
      "name": "paused",
      "outputs": [
        {
          "internalType": "bool",
          "name": "",
          "type": "bool"
        }
      ],
      "stateMutability": "view",
      "type": "function"
    },
    {
      "inputs": [
        {
          "internalType": "address",
          "name": "owner",
          "type": "address"
        },
        {
          "internalType": "address",
          "name": "spender",
          "type": "address"
        },
        {
          "internalType": "uint256",
          "name": "value",
          "type": "uint256"
        },
        {
          "internalType": "uint256",
          "name": "deadline",
          "type": "uint256"
        },
        {
          "internalType": "uint8",
          "name": "v",
          "type": "uint8"
        },
        {
          "internalType": "bytes32",
          "name": "r",
          "type": "bytes32"
        },
        {
          "internalType": "bytes32",
          "name": "s",
          "type": "bytes32"
        }
      ],
      "name": "permit",
      "outputs": [],
      "stateMutability": "nonpayable",
      "type": "function"
    },
    {
      "inputs": [
        {
          "internalType": "bytes32",
          "name": "role",
          "type": "bytes32"
        },
        {
          "internalType": "address",
          "name": "account",
          "type": "address"
        }
      ],
      "name": "renounceRole",
      "outputs": [],
      "stateMutability": "nonpayable",
      "type": "function"
    },
    {
      "inputs": [
        {
          "internalType": "bytes32",
          "name": "role",
          "type": "bytes32"
        },
        {
          "internalType": "address",
          "name": "account",
          "type": "address"
        }
      ],
      "name": "revokeRole",
      "outputs": [],
      "stateMutability": "nonpayable",
      "type": "function"
    },
    {
      "inputs": [
        {
          "internalType": "bytes4",
          "name": "interfaceId",
          "type": "bytes4"
        }
      ],
      "name": "supportsInterface",
      "outputs": [
        {
          "internalType": "bool",
          "name": "",
          "type": "bool"
        }
      ],
      "stateMutability": "view",
      "type": "function"
    },
    {
      "inputs": [],
      "name": "symbol",
      "outputs": [
        {
          "internalType": "string",
          "name": "",
          "type": "string"
        }
      ],
      "stateMutability": "view",
      "type": "function"
    },
    {
      "inputs": [],
      "name": "totalSupply",
      "outputs": [
        {
          "internalType": "uint256",
          "name": "",
          "type": "uint256"
        }
      ],
      "stateMutability": "view",
      "type": "function"
    },
    {
      "inputs": [
        {
          "internalType": "address",
          "name": "to",
          "type": "address"
        },
        {
          "internalType": "uint256",
          "name": "amount",
          "type": "uint256"
        }
      ],
      "name": "transfer",
      "outputs": [
        {
          "internalType": "bool",
          "name": "",
          "type": "bool"
        }
      ],
      "stateMutability": "nonpayable",
      "type": "function"
    },
    {
      "inputs": [
        {
          "internalType": "address",
          "name": "from",
          "type": "address"
        },
        {
          "internalType": "address",
          "name": "to",
          "type": "address"
        },
        {
          "internalType": "uint256",
          "name": "amount",
          "type": "uint256"
        }
      ],
      "name": "transferFrom",
      "outputs": [
        {
          "internalType": "bool",
          "name": "",
          "type": "bool"
        }
      ],
      "stateMutability": "nonpayable",
      "type": "function"
    },
    {
      "inputs": [],
      "name": "unpause",
      "outputs": [],
      "stateMutability": "nonpayable",
      "type": "function"
    }
  ],
  "bytecode": "0x6101606040527f6e71edae12b1b97f4d1f60370fef10105fa2faae0126114a169c64845d6126c9610140523480156200003757600080fd5b506040518060400160405280600581526020016420ad2324a760d91b81525080604051806040016040528060018152602001603160f81b8152506040518060400160405280601081526020016f20992d2324a720a721a2902a37b5b2b760811b8152506040518060400160405280600581526020016420ad2324a760d91b81525081818160059080519060200190620000d29291906200035d565b508051620000e89060069060208401906200035d565b50506007805460ff191690555062000102600033620001f8565b6200012e7f9f2df0fed2c77648de5860a4cc508cd0818c85b8b8a1ab4ceeef8d981c8956a633620001f8565b6200015a7f65d7a28e3265b37a6474929f336521b332c1681b933f6cb9f3376673440d862a33620001f8565b5050815160208084019190912082518383012060e08290526101008190524660a0818152604080517f8b73c3c69bb8fe3d512ecc4cf759cc79239f7b179b0ffacaa9a75d522b39400f81880181905281830187905260608201869052608082019490945230818401528151808203909301835260c00190528051940193909320919290916080523060601b60c0526101205250620004409350505050565b62000204828262000208565b5050565b6200021f82826200024b60201b62000a311760201c565b60008281526001602090815260409091206200024691839062000ab5620002eb821b17901c565b505050565b6000828152602081815260408083206001600160a01b038516845290915290205460ff1662000204576000828152602081815260408083206001600160a01b03851684529091529020805460ff19166001179055620002a73390565b6001600160a01b0316816001600160a01b0316837f2f8788117e7eff1d82e926ec794901d17c78024a50270940304540a733656f0d60405160405180910390a45050565b600062000302836001600160a01b0384166200030b565b90505b92915050565b6000818152600183016020526040812054620003545750815460018181018455600084815260208082209093018490558454848252828601909352604090209190915562000305565b50600062000305565b8280546200036b9062000403565b90600052602060002090601f0160209004810192826200038f5760008555620003da565b82601f10620003aa57805160ff1916838001178555620003da565b82800160010185558215620003da579182015b82811115620003da578251825591602001919060010190620003bd565b50620003e8929150620003ec565b5090565b5b80821115620003e85760008155600101620003ed565b600181811c908216806200041857607f821691505b602082108114156200043a57634e487b7160e01b600052602260045260246000fd5b50919050565b60805160a05160c05160601c60e051610100516101205161014051611f116200049e60003960006108d901526000610f7401526000610fc301526000610f9e01526000610ef701526000610f2101526000610f4b0152611f116000f3fe608060405234801561001057600080fd5b50600436106101755760003560e01c806301ffc9a71461017a57806306fdde03146101a2578063095ea7b3146101b757806318160ddd146101ca57806323b872dd146101dc578063248a9ca3146101ef5780632f2ff15d14610202578063313ce567146102175780633644e5151461022657806336568abe1461022e57806339509351146102415780633f4ba83a1461025457806340c10f191461025c57806342966c681461026f5780635c975abb1461028257806370a082311461028d57806379cc6790146102b65780637ecebe00146102c95780638456cb59146102dc5780639010d07c146102e457806391d148541461030457806395d89b4114610317578063a217fddf1461031f578063a457c2d714610327578063a9059cbb1461033a578063ca15c8731461034d578063d505accf14610360578063d539139314610373578063d547741f14610388578063dd62ed3e1461039b578063e63ab1e9146103ae575b600080fd5b61018d610188366004611c47565b6103c3565b60405190151581526020015b60405180910390f35b6101aa6103ee565b6040516101999190611cf4565b61018d6101c5366004611bbf565b610480565b6004545b604051908152602001610199565b61018d6101ea366004611b10565b610498565b6101ce6101fd366004611be9565b6104bc565b610215610210366004611c02565b6104d1565b005b60405160128152602001610199565b6101ce6104f3565b61021561023c366004611c02565b610502565b61018d61024f366004611bbf565b610585565b6102156105c4565b61021561026a366004611bbf565b610642565b61021561027d366004611be9565b6106bd565b60075460ff1661018d565b6101ce61029b366004611ac2565b6001600160a01b031660009081526002602052604090205490565b6102156102c4366004611bbf565b6106ca565b6101ce6102d7366004611ac2565b6106df565b6102156106fd565b6102f76102f2366004611c25565b610777565b6040516101999190611ce0565b61018d610312366004611c02565b610796565b6101aa6107bf565b6101ce600081565b61018d610335366004611bbf565b6107ce565b61018d610348366004611bbf565b610860565b6101ce61035b366004611be9565b61086e565b61021561036e366004611b4c565b610885565b6101ce600080516020611e9c83398151915281565b610215610396366004611c02565b6109e9565b6101ce6103a9366004611add565b610a06565b6101ce600080516020611e7c83398151915281565b60006001600160e01b03198216635a05180f60e01b14806103e857506103e882610aca565b92915050565b6060600580546103fd90611db8565b80601f016020809104026020016040519081016040528092919081815260200182805461042990611db8565b80156104765780601f1061044b57610100808354040283529160200191610476565b820191906000526020600020905b81548152906001019060200180831161045957829003601f168201915b5050505050905090565b60003361048e818585610aff565b5060019392505050565b6000336104a6858285610c23565b6104b1858585610c9d565b506001949350505050565b60009081526020819052604090206001015490565b6104da826104bc565b6104e48133610e64565b6104ee8383610ec8565b505050565b60006104fd610eea565b905090565b6001600160a01b03811633146105775760405162461bcd60e51b815260206004820152602f60248201527f416363657373436f6e74726f6c3a2063616e206f6e6c792072656e6f756e636560448201526e103937b632b9903337b91039b2b63360891b60648201526084015b60405180910390fd5b6105818282611011565b5050565b3360008181526003602090815260408083206001600160a01b038716845290915281205490919061048e90829086906105bf908790611d27565b610aff565b6105dc600080516020611e7c83398151915233610796565b6106385760405162461bcd60e51b81526020600482015260396024820152600080516020611e5c83398151915260448201527876652070617573657220726f6c6520746f20756e706175736560381b606482015260840161056e565b610640611033565b565b61065a600080516020611e9c83398151915233610796565b6106b35760405162461bcd60e51b81526020600482015260366024820152600080516020611e5c8339815191526044820152751d99481b5a5b9d195c881c9bdb19481d1bc81b5a5b9d60521b606482015260840161056e565b61058182826110c0565b6106c73382611199565b50565b6106d5823383610c23565b6105818282611199565b6001600160a01b0381166000908152600860205260408120546103e8565b610715600080516020611e7c83398151915233610796565b61076f5760405162461bcd60e51b81526020600482015260376024820152600080516020611e5c83398151915260448201527676652070617573657220726f6c6520746f20706175736560481b606482015260840161056e565b6106406112e1565b600082815260016020526040812061078f908361135c565b9392505050565b6000918252602082815260408084206001600160a01b0393909316845291905290205460ff1690565b6060600680546103fd90611db8565b3360008181526003602090815260408083206001600160a01b0387168452909152812054909190838110156108535760405162461bcd60e51b815260206004820152602560248201527f45524332303a2064656372656173656420616c6c6f77616e63652062656c6f77604482015264207a65726f60d81b606482015260840161056e565b6104b18286868403610aff565b60003361048e818585610c9d565b60008181526001602052604081206103e890611368565b834211156108d55760405162461bcd60e51b815260206004820152601d60248201527f45524332305065726d69743a206578706972656420646561646c696e65000000604482015260640161056e565b60007f00000000000000000000000000000000000000000000000000000000000000008888886109048c611372565b6040805160208101969096526001600160a01b0394851690860152929091166060840152608083015260a082015260c0810186905260e001604051602081830303815290604052805190602001209050600061095f8261139a565b9050600061096f828787876113e8565b9050896001600160a01b0316816001600160a01b0316146109d25760405162461bcd60e51b815260206004820152601e60248201527f45524332305065726d69743a20696e76616c6964207369676e61747572650000604482015260640161056e565b6109dd8a8a8a610aff565b50505050505050505050565b6109f2826104bc565b6109fc8133610e64565b6104ee8383611011565b6001600160a01b03918216600090815260036020908152604080832093909416825291909152205490565b610a3b8282610796565b610581576000828152602081815260408083206001600160a01b03851684529091529020805460ff19166001179055610a713390565b6001600160a01b0316816001600160a01b0316837f2f8788117e7eff1d82e926ec794901d17c78024a50270940304540a733656f0d60405160405180910390a45050565b600061078f836001600160a01b038416611410565b60006001600160e01b03198216637965db0b60e01b14806103e857506301ffc9a760e01b6001600160e01b03198316146103e8565b6001600160a01b038316610b615760405162461bcd60e51b8152602060048201526024808201527f45524332303a20617070726f76652066726f6d20746865207a65726f206164646044820152637265737360e01b606482015260840161056e565b6001600160a01b038216610bc25760405162461bcd60e51b815260206004820152602260248201527f45524332303a20617070726f766520746f20746865207a65726f206164647265604482015261737360f01b606482015260840161056e565b6001600160a01b0383811660008181526003602090815260408083209487168084529482529182902085905590518481527f8c5be1e5ebec7d5bd14f71427d1e84f3dd0314c0f7b2291e5b200ac8c7c3b925910160405180910390a3505050565b6000610c2f8484610a06565b90506000198114610c975781811015610c8a5760405162461bcd60e51b815260206004820152601d60248201527f45524332303a20696e73756666696369656e7420616c6c6f77616e6365000000604482015260640161056e565b610c978484848403610aff565b50505050565b6001600160a01b038316610d015760405162461bcd60e51b815260206004820152602560248201527f45524332303a207472616e736665722066726f6d20746865207a65726f206164604482015264647265737360d81b606482015260840161056e565b6001600160a01b038216610d635760405162461bcd60e51b815260206004820152602360248201527f45524332303a207472616e7366657220746f20746865207a65726f206164647260448201526265737360e81b606482015260840161056e565b610d6e83838361145f565b6001600160a01b03831660009081526002602052604090205481811015610de65760405162461bcd60e51b815260206004820152602660248201527f45524332303a207472616e7366657220616d6f756e7420657863656564732062604482015265616c616e636560d01b606482015260840161056e565b6001600160a01b03808516600090815260026020526040808220858503905591851681529081208054849290610e1d908490611d27565b92505081905550826001600160a01b0316846001600160a01b0316600080516020611ebc83398151915284604051610e5791815260200190565b60405180910390a3610c97565b610e6e8282610796565b61058157610e86816001600160a01b0316601461146a565b610e9183602061146a565b604051602001610ea2929190611c71565b60408051601f198184030181529082905262461bcd60e51b825261056e91600401611cf4565b610ed28282610a31565b60008281526001602052604090206104ee9082610ab5565b6000306001600160a01b037f000000000000000000000000000000000000000000000000000000000000000016148015610f4357507f000000000000000000000000000000000000000000000000000000000000000046145b15610f6d57507f000000000000000000000000000000000000000000000000000000000000000090565b50604080517f00000000000000000000000000000000000000000000000000000000000000006020808301919091527f0000000000000000000000000000000000000000000000000000000000000000828401527f000000000000000000000000000000000000000000000000000000000000000060608301524660808301523060a0808401919091528351808403909101815260c0909201909252805191012090565b61101b8282611605565b60008281526001602052604090206104ee908261166a565b60075460ff1661107c5760405162461bcd60e51b815260206004820152601460248201527314185d5cd8589b194e881b9bdd081c185d5cd95960621b604482015260640161056e565b6007805460ff191690557f5db9ee0a495bf2e6ff9c91a7834c1ba4fdd244a5e8aa4e537bd38aeae4b073aa335b6040516110b69190611ce0565b60405180910390a1565b6001600160a01b0382166111165760405162461bcd60e51b815260206004820152601f60248201527f45524332303a206d696e7420746f20746865207a65726f206164647265737300604482015260640161056e565b6111226000838361145f565b80600460008282546111349190611d27565b90915550506001600160a01b03821660009081526002602052604081208054839290611161908490611d27565b90915550506040518181526001600160a01b03831690600090600080516020611ebc8339815191529060200160405180910390a35050565b6001600160a01b0382166111f95760405162461bcd60e51b815260206004820152602160248201527f45524332303a206275726e2066726f6d20746865207a65726f206164647265736044820152607360f81b606482015260840161056e565b6112058260008361145f565b6001600160a01b038216600090815260026020526040902054818110156112795760405162461bcd60e51b815260206004820152602260248201527f45524332303a206275726e20616d6f756e7420657863656564732062616c616e604482015261636560f01b606482015260840161056e565b6001600160a01b03831660009081526002602052604081208383039055600480548492906112a8908490611d5e565b90915550506040518281526000906001600160a01b03851690600080516020611ebc8339815191529060200160405180910390a3505050565b60075460ff16156113275760405162461bcd60e51b815260206004820152601060248201526f14185d5cd8589b194e881c185d5cd95960821b604482015260640161056e565b6007805460ff191660011790557f62e78cea01bee320cd4e420270b5ea74000d11b0c9f74754ebdbfc544b05a2586110a93390565b600061078f838361167f565b60006103e8825490565b6001600160a01b03811660009081526008602052604090208054600181018255905b50919050565b60006103e86113a7610eea565b8360405161190160f01b6020820152602281018390526042810182905260009060620160405160208183030381529060405280519060200120905092915050565b60008060006113f9878787876116a9565b915091506114068161178c565b5095945050505050565b6000818152600183016020526040812054611457575081546001818101845560008481526020808220909301849055845484825282860190935260409020919091556103e8565b5060006103e8565b6104ee838383611942565b60606000611479836002611d3f565b611484906002611d27565b6001600160401b0381111561149b5761149b611e45565b6040519080825280601f01601f1916602001820160405280156114c5576020820181803683370190505b509050600360fc1b816000815181106114e0576114e0611e2f565b60200101906001600160f81b031916908160001a905350600f60fb1b8160018151811061150f5761150f611e2f565b60200101906001600160f81b031916908160001a9053506000611533846002611d3f565b61153e906001611d27565b90505b60018111156115b6576f181899199a1a9b1b9c1cb0b131b232b360811b85600f166010811061157257611572611e2f565b1a60f81b82828151811061158857611588611e2f565b60200101906001600160f81b031916908160001a90535060049490941c936115af81611da1565b9050611541565b50831561078f5760405162461bcd60e51b815260206004820181905260248201527f537472696e67733a20686578206c656e67746820696e73756666696369656e74604482015260640161056e565b61160f8282610796565b15610581576000828152602081815260408083206001600160a01b0385168085529252808320805460ff1916905551339285917ff6391f5c32d9c69d2a47ea670b442974b53935d1edc7fd64eb21e047a839171b9190a45050565b600061078f836001600160a01b03841661194d565b600082600001828154811061169657611696611e2f565b9060005260206000200154905092915050565b6000806fa2a8918ca85bafe22016d0b997e4df60600160ff1b038311156116d65750600090506003611783565b8460ff16601b141580156116ee57508460ff16601c14155b156116ff5750600090506004611783565b6040805160008082526020820180845289905260ff881692820192909252606081018690526080810185905260019060a0016020604051602081039080840390855afa158015611753573d6000803e3d6000fd5b5050604051601f1901519150506001600160a01b03811661177c57600060019250925050611783565b9150600090505b94509492505050565b60008160048111156117a0576117a0611e03565b14156117a95750565b60018160048111156117bd576117bd611e03565b14156118065760405162461bcd60e51b815260206004820152601860248201527745434453413a20696e76616c6964207369676e617475726560401b604482015260640161056e565b600281600481111561181a5761181a611e03565b14156118685760405162461bcd60e51b815260206004820152601f60248201527f45434453413a20696e76616c6964207369676e6174757265206c656e67746800604482015260640161056e565b600381600481111561187c5761187c611e03565b14156118d55760405162461bcd60e51b815260206004820152602260248201527f45434453413a20696e76616c6964207369676e6174757265202773272076616c604482015261756560f01b606482015260840161056e565b60048160048111156118e9576118e9611e03565b14156106c75760405162461bcd60e51b815260206004820152602260248201527f45434453413a20696e76616c6964207369676e6174757265202776272076616c604482015261756560f01b606482015260840161056e565b6104ee838383611a40565b60008181526001830160205260408120548015611a36576000611971600183611d5e565b855490915060009061198590600190611d5e565b90508181146119ea5760008660000182815481106119a5576119a5611e2f565b90600052602060002001549050808760000184815481106119c8576119c8611e2f565b6000918252602080832090910192909255918252600188019052604090208390555b85548690806119fb576119fb611e19565b6001900381819060005260206000200160009055905585600101600086815260200190815260200160002060009055600193505050506103e8565b60009150506103e8565b60075460ff16156104ee5760405162461bcd60e51b815260206004820152602a60248201527f45524332305061757361626c653a20746f6b656e207472616e736665722077686044820152691a5b19481c185d5cd95960b21b606482015260840161056e565b80356001600160a01b0381168114611abd57600080fd5b919050565b600060208284031215611ad457600080fd5b61078f82611aa6565b60008060408385031215611af057600080fd5b611af983611aa6565b9150611b0760208401611aa6565b90509250929050565b600080600060608486031215611b2557600080fd5b611b2e84611aa6565b9250611b3c60208501611aa6565b9150604084013590509250925092565b600080600080600080600060e0888a031215611b6757600080fd5b611b7088611aa6565b9650611b7e60208901611aa6565b95506040880135945060608801359350608088013560ff81168114611ba257600080fd5b9699959850939692959460a0840135945060c09093013592915050565b60008060408385031215611bd257600080fd5b611bdb83611aa6565b946020939093013593505050565b600060208284031215611bfb57600080fd5b5035919050565b60008060408385031215611c1557600080fd5b82359150611b0760208401611aa6565b60008060408385031215611c3857600080fd5b50508035926020909101359150565b600060208284031215611c5957600080fd5b81356001600160e01b03198116811461078f57600080fd5b76020b1b1b2b9b9a1b7b73a3937b61d1030b1b1b7bab73a1604d1b815260008351611ca3816017850160208801611d75565b7001034b99036b4b9b9b4b733903937b6329607d1b6017918401918201528351611cd4816028840160208801611d75565b01602801949350505050565b6001600160a01b0391909116815260200190565b6020815260008251806020840152611d13816040850160208701611d75565b601f01601f19169190910160400192915050565b60008219821115611d3a57611d3a611ded565b500190565b6000816000190483118215151615611d5957611d59611ded565b500290565b600082821015611d7057611d70611ded565b500390565b60005b83811015611d90578181015183820152602001611d78565b83811115610c975750506000910152565b600081611db057611db0611ded565b506000190190565b600181811c90821680611dcc57607f821691505b6020821081141561139457634e487b7160e01b600052602260045260246000fd5b634e487b7160e01b600052601160045260246000fd5b634e487b7160e01b600052602160045260246000fd5b634e487b7160e01b600052603160045260246000fd5b634e487b7160e01b600052603260045260246000fd5b634e487b7160e01b600052604160045260246000fdfe45524332305072657365744d696e7465725061757365723a206d75737420686165d7a28e3265b37a6474929f336521b332c1681b933f6cb9f3376673440d862a9f2df0fed2c77648de5860a4cc508cd0818c85b8b8a1ab4ceeef8d981c8956a6ddf252ad1be2c89b69c2b068fc378daa952ba7f163c4a11628f55a4df523b3efa2646970667358221220586b34934a3f3f7b0e532418e8a56a6ac7bac831ac5693e6e7d8a720ff016aa764736f6c63430008060033",
  "immutableReferences": {
    "1537": [
      {
        "length": 32,
        "start": 2265
      }
    ],
    "3081": [
      {
        "length": 32,
        "start": 3915
      }
    ],
    "3083": [
      {
        "length": 32,
        "start": 3873
      }
    ],
    "3085": [
      {
        "length": 32,
        "start": 3831
      }
    ],
    "3087": [
      {
        "length": 32,
        "start": 3998
      }
    ],
    "3089": [
      {
        "length": 32,
        "start": 4035
      }
    ],
    "3091": [
      {
        "length": 32,
        "start": 3956
      }
    ]
  },
  "source": "// SPDX-License-Identifier: BUSL-1.1\r\npragma solidity 0.8.6;\r\n\r\nimport \"@openzeppelin/contracts/token/ERC20/presets/ERC20PresetMinterPauser.sol\";\r\nimport \"@openzeppelin/contracts/token/ERC20/extensions/draft-ERC20Permit.sol\";\r\n\r\ncontract BetaToken is ERC20PresetMinterPauser('A2ZFINANCE Token', 'AZFIN'), ERC20Permit('AZFIN') {\r\n  function _beforeTokenTransfer(\r\n    address from,\r\n    address to,\r\n    uint amount\r\n  ) internal virtual override(ERC20, ERC20PresetMinterPauser) {\r\n    ERC20PresetMinterPauser._beforeTokenTransfer(from, to, amount);\r\n  }\r\n}\r\n",
  "sourcePath": "C:\\Users\\HP\\PoolContract\\contracts\\BetaToken.sol",
  "compiler": {
    "name": "solc",
    "version": "0.8.6+commit.11564f7e.Emscripten.clang"
  },
  "schemaVersion": "3.4.4",
  "updatedAt": "2022-03-12T18:46:58.292Z",
  "devdoc": {
    "kind": "dev",
    "methods": {
      "DOMAIN_SEPARATOR()": {
        "details": "See {IERC20Permit-DOMAIN_SEPARATOR}."
      },
      "allowance(address,address)": {
        "details": "See {IERC20-allowance}."
      },
      "approve(address,uint256)": {
        "details": "See {IERC20-approve}. NOTE: If `amount` is the maximum `uint256`, the allowance is not updated on `transferFrom`. This is semantically equivalent to an infinite approval. Requirements: - `spender` cannot be the zero address."
      },
      "balanceOf(address)": {
        "details": "See {IERC20-balanceOf}."
      },
      "burn(uint256)": {
        "details": "Destroys `amount` tokens from the caller. See {ERC20-_burn}."
      },
      "burnFrom(address,uint256)": {
        "details": "Destroys `amount` tokens from `account`, deducting from the caller's allowance. See {ERC20-_burn} and {ERC20-allowance}. Requirements: - the caller must have allowance for ``accounts``'s tokens of at least `amount`."
      },
      "decimals()": {
        "details": "Returns the number of decimals used to get its user representation. For example, if `decimals` equals `2`, a balance of `505` tokens should be displayed to a user as `5.05` (`505 / 10 ** 2`). Tokens usually opt for a value of 18, imitating the relationship between Ether and Wei. This is the value {ERC20} uses, unless this function is overridden; NOTE: This information is only used for _display_ purposes: it in no way affects any of the arithmetic of the contract, including {IERC20-balanceOf} and {IERC20-transfer}."
      },
      "decreaseAllowance(address,uint256)": {
        "details": "Atomically decreases the allowance granted to `spender` by the caller. This is an alternative to {approve} that can be used as a mitigation for problems described in {IERC20-approve}. Emits an {Approval} event indicating the updated allowance. Requirements: - `spender` cannot be the zero address. - `spender` must have allowance for the caller of at least `subtractedValue`."
      },
      "getRoleAdmin(bytes32)": {
        "details": "Returns the admin role that controls `role`. See {grantRole} and {revokeRole}. To change a role's admin, use {_setRoleAdmin}."
      },
      "getRoleMember(bytes32,uint256)": {
        "details": "Returns one of the accounts that have `role`. `index` must be a value between 0 and {getRoleMemberCount}, non-inclusive. Role bearers are not sorted in any particular way, and their ordering may change at any point. WARNING: When using {getRoleMember} and {getRoleMemberCount}, make sure you perform all queries on the same block. See the following https://forum.openzeppelin.com/t/iterating-over-elements-on-enumerableset-in-openzeppelin-contracts/2296[forum post] for more information."
      },
      "getRoleMemberCount(bytes32)": {
        "details": "Returns the number of accounts that have `role`. Can be used together with {getRoleMember} to enumerate all bearers of a role."
      },
      "grantRole(bytes32,address)": {
        "details": "Grants `role` to `account`. If `account` had not been already granted `role`, emits a {RoleGranted} event. Requirements: - the caller must have ``role``'s admin role."
      },
      "hasRole(bytes32,address)": {
        "details": "Returns `true` if `account` has been granted `role`."
      },
      "increaseAllowance(address,uint256)": {
        "details": "Atomically increases the allowance granted to `spender` by the caller. This is an alternative to {approve} that can be used as a mitigation for problems described in {IERC20-approve}. Emits an {Approval} event indicating the updated allowance. Requirements: - `spender` cannot be the zero address."
      },
      "mint(address,uint256)": {
        "details": "Creates `amount` new tokens for `to`. See {ERC20-_mint}. Requirements: - the caller must have the `MINTER_ROLE`."
      },
      "name()": {
        "details": "Returns the name of the token."
      },
      "nonces(address)": {
        "details": "See {IERC20Permit-nonces}."
      },
      "pause()": {
        "details": "Pauses all token transfers. See {ERC20Pausable} and {Pausable-_pause}. Requirements: - the caller must have the `PAUSER_ROLE`."
      },
      "paused()": {
        "details": "Returns true if the contract is paused, and false otherwise."
      },
      "permit(address,address,uint256,uint256,uint8,bytes32,bytes32)": {
        "details": "See {IERC20Permit-permit}."
      },
      "renounceRole(bytes32,address)": {
        "details": "Revokes `role` from the calling account. Roles are often managed via {grantRole} and {revokeRole}: this function's purpose is to provide a mechanism for accounts to lose their privileges if they are compromised (such as when a trusted device is misplaced). If the calling account had been revoked `role`, emits a {RoleRevoked} event. Requirements: - the caller must be `account`."
      },
      "revokeRole(bytes32,address)": {
        "details": "Revokes `role` from `account`. If `account` had been granted `role`, emits a {RoleRevoked} event. Requirements: - the caller must have ``role``'s admin role."
      },
      "supportsInterface(bytes4)": {
        "details": "See {IERC165-supportsInterface}."
      },
      "symbol()": {
        "details": "Returns the symbol of the token, usually a shorter version of the name."
      },
      "totalSupply()": {
        "details": "See {IERC20-totalSupply}."
      },
      "transfer(address,uint256)": {
        "details": "See {IERC20-transfer}. Requirements: - `to` cannot be the zero address. - the caller must have a balance of at least `amount`."
      },
      "transferFrom(address,address,uint256)": {
        "details": "See {IERC20-transferFrom}. Emits an {Approval} event indicating the updated allowance. This is not required by the EIP. See the note at the beginning of {ERC20}. NOTE: Does not update the allowance if the current allowance is the maximum `uint256`. Requirements: - `from` and `to` cannot be the zero address. - `from` must have a balance of at least `amount`. - the caller must have allowance for ``from``'s tokens of at least `amount`."
      },
      "unpause()": {
        "details": "Unpauses all token transfers. See {ERC20Pausable} and {Pausable-_unpause}. Requirements: - the caller must have the `PAUSER_ROLE`."
      }
    },
    "version": 1
  },
  "userdoc": {
    "kind": "user",
    "methods": {},
    "version": 1
  }
}