{
  "contractName": "BToken",
  "abi": [
    {
      "inputs": [
        {
          "internalType": "address",
          "name": "_betaBank",
          "type": "address"
        },
        {
          "internalType": "address",
          "name": "_underlying",
          "type": "address"
        }
      ],
      "stateMutability": "nonpayable",
      "type": "constructor"
    },
    {
      "anonymous": false,
      "inputs": [
        {
          "indexed": false,
          "internalType": "uint256",
          "name": "interest",
          "type": "uint256"
        }
      ],
      "name": "Accrue",
      "type": "event"
    },
    {
      "anonymous": false,
      "inputs": [
        {
          "indexed": true,
          "internalType": "address",
          "name": "owner",
          "type": "address"
        },
        {
          "indexed": true,
          "internalType": "address",
          "name": "spender",
          "type": "address"
        },
        {
          "indexed": false,
          "internalType": "uint256",
          "name": "value",
          "type": "uint256"
        }
      ],
      "name": "Approval",
      "type": "event"
    },
    {
      "anonymous": false,
      "inputs": [
        {
          "indexed": true,
          "internalType": "address",
          "name": "caller",
          "type": "address"
        },
        {
          "indexed": true,
          "internalType": "address",
          "name": "to",
          "type": "address"
        },
        {
          "indexed": false,
          "internalType": "uint256",
          "name": "amount",
          "type": "uint256"
        },
        {
          "indexed": false,
          "internalType": "uint256",
          "name": "credit",
          "type": "uint256"
        }
      ],
      "name": "Burn",
      "type": "event"
    },
    {
      "anonymous": false,
      "inputs": [
        {
          "indexed": true,
          "internalType": "address",
          "name": "caller",
          "type": "address"
        },
        {
          "indexed": true,
          "internalType": "address",
          "name": "to",
          "type": "address"
        },
        {
          "indexed": false,
          "internalType": "uint256",
          "name": "amount",
          "type": "uint256"
        },
        {
          "indexed": false,
          "internalType": "uint256",
          "name": "credit",
          "type": "uint256"
        }
      ],
      "name": "Mint",
      "type": "event"
    },
    {
      "anonymous": false,
      "inputs": [
        {
          "indexed": true,
          "internalType": "address",
          "name": "from",
          "type": "address"
        },
        {
          "indexed": true,
          "internalType": "address",
          "name": "to",
          "type": "address"
        },
        {
          "indexed": false,
          "internalType": "uint256",
          "name": "value",
          "type": "uint256"
        }
      ],
      "name": "Transfer",
      "type": "event"
    },
    {
      "inputs": [],
      "name": "DOMAIN_SEPARATOR",
      "outputs": [
        {
          "internalType": "bytes32",
          "name": "",
          "type": "bytes32"
        }
      ],
      "stateMutability": "view",
      "type": "function"
    },
    {
      "inputs": [],
      "name": "MINIMUM_LIQUIDITY",
      "outputs": [
        {
          "internalType": "uint256",
          "name": "",
          "type": "uint256"
        }
      ],
      "stateMutability": "view",
      "type": "function"
    },
    {
      "inputs": [
        {
          "internalType": "address",
          "name": "owner",
          "type": "address"
        },
        {
          "internalType": "address",
          "name": "spender",
          "type": "address"
        }
      ],
      "name": "allowance",
      "outputs": [
        {
          "internalType": "uint256",
          "name": "",
          "type": "uint256"
        }
      ],
      "stateMutability": "view",
      "type": "function"
    },
    {
      "inputs": [
        {
          "internalType": "address",
          "name": "spender",
          "type": "address"
        },
        {
          "internalType": "uint256",
          "name": "amount",
          "type": "uint256"
        }
      ],
      "name": "approve",
      "outputs": [
        {
          "internalType": "bool",
          "name": "",
          "type": "bool"
        }
      ],
      "stateMutability": "nonpayable",
      "type": "function"
    },
    {
      "inputs": [
        {
          "internalType": "address",
          "name": "account",
          "type": "address"
        }
      ],
      "name": "balanceOf",
      "outputs": [
        {
          "internalType": "uint256",
          "name": "",
          "type": "uint256"
        }
      ],
      "stateMutability": "view",
      "type": "function"
    },
    {
      "inputs": [],
      "name": "betaBank",
      "outputs": [
        {
          "internalType": "address",
          "name": "",
          "type": "address"
        }
      ],
      "stateMutability": "view",
      "type": "function"
    },
    {
      "inputs": [
        {
          "internalType": "address",
          "name": "spender",
          "type": "address"
        },
        {
          "internalType": "uint256",
          "name": "subtractedValue",
          "type": "uint256"
        }
      ],
      "name": "decreaseAllowance",
      "outputs": [
        {
          "internalType": "bool",
          "name": "",
          "type": "bool"
        }
      ],
      "stateMutability": "nonpayable",
      "type": "function"
    },
    {
      "inputs": [
        {
          "internalType": "address",
          "name": "spender",
          "type": "address"
        },
        {
          "internalType": "uint256",
          "name": "addedValue",
          "type": "uint256"
        }
      ],
      "name": "increaseAllowance",
      "outputs": [
        {
          "internalType": "bool",
          "name": "",
          "type": "bool"
        }
      ],
      "stateMutability": "nonpayable",
      "type": "function"
    },
    {
      "inputs": [],
      "name": "interestRate",
      "outputs": [
        {
          "internalType": "uint256",
          "name": "",
          "type": "uint256"
        }
      ],
      "stateMutability": "view",
      "type": "function"
    },
    {
      "inputs": [],
      "name": "lastAccrueTime",
      "outputs": [
        {
          "internalType": "uint256",
          "name": "",
          "type": "uint256"
        }
      ],
      "stateMutability": "view",
      "type": "function"
    },
    {
      "inputs": [
        {
          "internalType": "address",
          "name": "owner",
          "type": "address"
        }
      ],
      "name": "nonces",
      "outputs": [
        {
          "internalType": "uint256",
          "name": "",
          "type": "uint256"
        }
      ],
      "stateMutability": "view",
      "type": "function"
    },
    {
      "inputs": [
        {
          "internalType": "address",
          "name": "owner",
          "type": "address"
        },
        {
          "internalType": "address",
          "name": "spender",
          "type": "address"
        },
        {
          "internalType": "uint256",
          "name": "value",
          "type": "uint256"
        },
        {
          "internalType": "uint256",
          "name": "deadline",
          "type": "uint256"
        },
        {
          "internalType": "uint8",
          "name": "v",
          "type": "uint8"
        },
        {
          "internalType": "bytes32",
          "name": "r",
          "type": "bytes32"
        },
        {
          "internalType": "bytes32",
          "name": "s",
          "type": "bytes32"
        }
      ],
      "name": "permit",
      "outputs": [],
      "stateMutability": "nonpayable",
      "type": "function"
    },
    {
      "inputs": [],
      "name": "totalDebtShare",
      "outputs": [
        {
          "internalType": "uint256",
          "name": "",
          "type": "uint256"
        }
      ],
      "stateMutability": "view",
      "type": "function"
    },
    {
      "inputs": [],
      "name": "totalLoan",
      "outputs": [
        {
          "internalType": "uint256",
          "name": "",
          "type": "uint256"
        }
      ],
      "stateMutability": "view",
      "type": "function"
    },
    {
      "inputs": [],
      "name": "totalLoanable",
      "outputs": [
        {
          "internalType": "uint256",
          "name": "",
          "type": "uint256"
        }
      ],
      "stateMutability": "view",
      "type": "function"
    },
    {
      "inputs": [],
      "name": "totalSupply",
      "outputs": [
        {
          "internalType": "uint256",
          "name": "",
          "type": "uint256"
        }
      ],
      "stateMutability": "view",
      "type": "function"
    },
    {
      "inputs": [
        {
          "internalType": "address",
          "name": "to",
          "type": "address"
        },
        {
          "internalType": "uint256",
          "name": "amount",
          "type": "uint256"
        }
      ],
      "name": "transfer",
      "outputs": [
        {
          "internalType": "bool",
          "name": "",
          "type": "bool"
        }
      ],
      "stateMutability": "nonpayable",
      "type": "function"
    },
    {
      "inputs": [
        {
          "internalType": "address",
          "name": "from",
          "type": "address"
        },
        {
          "internalType": "address",
          "name": "to",
          "type": "address"
        },
        {
          "internalType": "uint256",
          "name": "amount",
          "type": "uint256"
        }
      ],
      "name": "transferFrom",
      "outputs": [
        {
          "internalType": "bool",
          "name": "",
          "type": "bool"
        }
      ],
      "stateMutability": "nonpayable",
      "type": "function"
    },
    {
      "inputs": [],
      "name": "underlying",
      "outputs": [
        {
          "internalType": "address",
          "name": "",
          "type": "address"
        }
      ],
      "stateMutability": "view",
      "type": "function"
    },
    {
      "inputs": [],
      "name": "name",
      "outputs": [
        {
          "internalType": "string",
          "name": "",
          "type": "string"
        }
      ],
      "stateMutability": "view",
      "type": "function"
    },
    {
      "inputs": [],
      "name": "symbol",
      "outputs": [
        {
          "internalType": "string",
          "name": "",
          "type": "string"
        }
      ],
      "stateMutability": "view",
      "type": "function"
    },
    {
      "inputs": [],
      "name": "decimals",
      "outputs": [
        {
          "internalType": "uint8",
          "name": "",
          "type": "uint8"
        }
      ],
      "stateMutability": "view",
      "type": "function"
    },
    {
      "inputs": [],
      "name": "accrue",
      "outputs": [],
      "stateMutability": "nonpayable",
      "type": "function"
    },
    {
      "inputs": [
        {
          "internalType": "uint256",
          "name": "_debtShare",
          "type": "uint256"
        }
      ],
      "name": "fetchDebtShareValue",
      "outputs": [
        {
          "internalType": "uint256",
          "name": "",
          "type": "uint256"
        }
      ],
      "stateMutability": "nonpayable",
      "type": "function"
    },
    {
      "inputs": [
        {
          "internalType": "address",
          "name": "_to",
          "type": "address"
        },
        {
          "internalType": "uint256",
          "name": "_amount",
          "type": "uint256"
        }
      ],
      "name": "mint",
      "outputs": [
        {
          "internalType": "uint256",
          "name": "credit",
          "type": "uint256"
        }
      ],
      "stateMutability": "nonpayable",
      "type": "function"
    },
    {
      "inputs": [
        {
          "internalType": "address",
          "name": "_to",
          "type": "address"
        },
        {
          "internalType": "uint256",
          "name": "_credit",
          "type": "uint256"
        }
      ],
      "name": "burn",
      "outputs": [
        {
          "internalType": "uint256",
          "name": "amount",
          "type": "uint256"
        }
      ],
      "stateMutability": "nonpayable",
      "type": "function"
    },
    {
      "inputs": [
        {
          "internalType": "address",
          "name": "_to",
          "type": "address"
        },
        {
          "internalType": "uint256",
          "name": "_amount",
          "type": "uint256"
        }
      ],
      "name": "borrow",
      "outputs": [
        {
          "internalType": "uint256",
          "name": "debtShare",
          "type": "uint256"
        }
      ],
      "stateMutability": "nonpayable",
      "type": "function"
    },
    {
      "inputs": [
        {
          "internalType": "address",
          "name": "_from",
          "type": "address"
        },
        {
          "internalType": "uint256",
          "name": "_amount",
          "type": "uint256"
        }
      ],
      "name": "repay",
      "outputs": [
        {
          "internalType": "uint256",
          "name": "debtShare",
          "type": "uint256"
        }
      ],
      "stateMutability": "nonpayable",
      "type": "function"
    },
    {
      "inputs": [
        {
          "internalType": "address",
          "name": "_token",
          "type": "address"
        },
        {
          "internalType": "address",
          "name": "_to",
          "type": "address"
        },
        {
          "internalType": "uint256",
          "name": "_amount",
          "type": "uint256"
        }
      ],
      "name": "recover",
      "outputs": [],
      "stateMutability": "nonpayable",
      "type": "function"
    }
  ],
  "bytecode": "0x6101a06040527f6e71edae12b1b97f4d1f60370fef10105fa2faae0126114a169c64845d6126c9610140523480156200003757600080fd5b5060405162003092380380620030928339810160408190526200005a9162000474565b6040518060400160405280600b81526020016a20ad2324a7102a37b5b2b760a91b81525080604051806040016040528060018152602001603160f81b8152506040518060400160405280600b81526020016a20ad2324a7102a37b5b2b760a91b8152506040518060400160405280600681526020016530a0ad2324a760d11b8152508160039080519060200190620000f49291906200038c565b5080516200010a9060049060208401906200038c565b5050825160208085019190912083518483012060e08290526101008190524660a0818152604080517f8b73c3c69bb8fe3d512ecc4cf759cc79239f7b179b0ffacaa9a75d522b39400f81880181905281830187905260608201869052608082019490945230818401528151808203909301835260c0019052805194019390932091935091906080523060601b60c05261012052505060016006555050506001600160a01b0382166200020d5760405162461bcd60e51b815260206004820152602160248201527f636f6e7374727563746f722f6265746162616e6b2d7a65726f2d6164647265736044820152607360f81b60648201526084015b60405180910390fd5b6001600160a01b038116620002715760405162461bcd60e51b815260206004820152602360248201527f636f6e7374727563746f722f756e6465726c79696e672d7a65726f2d6164647260448201526265737360e81b606482015260840162000204565b6001600160601b0319606083811b82166101605282901b16610180526040805163560b2ebd60e11b815290516001600160a01b0384169163ac165d7a916004808301926020929190829003018186803b158015620002ce57600080fd5b505afa158015620002e3573d6000803e3d6000fd5b505050506040513d601f19601f820116820180604052508101906200030991906200044f565b6001600160a01b0316639e51051f6040518163ffffffff1660e01b815260040160206040518083038186803b1580156200034257600080fd5b505afa15801562000357573d6000803e3d6000fd5b505050506040513d601f19601f820116820180604052508101906200037d9190620004ac565b60075550504260085562000503565b8280546200039a90620004c6565b90600052602060002090601f016020900481019282620003be576000855562000409565b82601f10620003d957805160ff191683800117855562000409565b8280016001018555821562000409579182015b8281111562000409578251825591602001919060010190620003ec565b50620004179291506200041b565b5090565b5b808211156200041757600081556001016200041c565b80516001600160a01b03811681146200044a57600080fd5b919050565b6000602082840312156200046257600080fd5b6200046d8262000432565b9392505050565b600080604083850312156200048857600080fd5b620004938362000432565b9150620004a36020840162000432565b90509250929050565b600060208284031215620004bf57600080fd5b5051919050565b600181811c90821680620004db57607f821691505b60208210811415620004fd57634e487b7160e01b600052602260045260246000fd5b50919050565b60805160a05160c05160601c60e0516101005161012051610140516101605160601c6101805160601c612a9e620005f4600039600081816102ab015281816103a10152818161069801528181610741015281816107830152818161095101528181610a9d01528181610b4601528181610b8801528181610e3101528181610f1f01526110d701526000818161025b015281816104e90152818161062901528181610db9015281816113ad015281816114a101526115260152600061124f01526000611d3101526000611d8001526000611d5b01526000611cb401526000611cde01526000611d080152612a9e6000f3fe608060405234801561001057600080fd5b506004361061015f5760003560e01c806306fdde0314610164578063095ea7b31461018257806318160ddd146101a55780631ec82cb8146101b757806322867d78146101cc57806323b872dd146101df578063313ce567146101f25780633644e5151461020c578063395093511461021457806340c10f1914610227578063453b1a8b1461023a5780634b8a352914610243578063550ba367146102565780635dd925851461028a578063684b51d41461029d5780636f307dc3146102a657806370a08231146102cd5780637c3a00fd146102f65780637ecebe00146102ff57806395d89b41146103125780639dc29fac1461031a5780639ffe79731461032d578063a457c2d714610336578063a9059cbb14610349578063ba9a7a561461035c578063d505accf14610366578063d8a0ac2614610379578063dd62ed3e14610382578063f8ba4cff14610395575b600080fd5b61016c61039d565b604051610179919061288b565b60405180910390f35b6101956101903660046126ca565b610495565b6040519015158152602001610179565b6002545b604051908152602001610179565b6101ca6101c5366004612618565b6104ad565b005b6101a96101da3660046126ca565b6105f4565b6101956101ed366004612618565b610927565b6101fa61094d565b60405160ff9091168152602001610179565b6101a9610a18565b6101956102223660046126ca565b610a27565b6101a96102353660046126ca565b610a66565b6101a9600a5481565b6101a96102513660046126ca565b610d84565b61027d7f000000000000000000000000000000000000000000000000000000000000000081565b6040516101799190612877565b6101a96102983660046127b9565b610ec7565b6101a9600b5481565b61027d7f000000000000000000000000000000000000000000000000000000000000000081565b6101a96102db3660046125a5565b6001600160a01b031660009081526020819052604090205490565b6101a960075481565b6101a961030d3660046125a5565b610efd565b61016c610f1b565b6101a96103283660046126ca565b610ff8565b6101a960085481565b6101956103443660046126ca565b611150565b6101956103573660046126ca565b6111ed565b6101a9620f424081565b6101ca610374366004612659565b6111fb565b6101a960095481565b6101a96103903660046125df565b61135f565b6101ca61138a565b60607f00000000000000000000000000000000000000000000000000000000000000006001600160a01b03166306fdde036040518163ffffffff1660e01b815260040160006040518083038186803b1580156103f857600080fd5b505afa92505050801561042d57506040513d6000823e601f3d908101601f1916820160405261042a9190810190612718565b60015b61046f573d80801561045b576040519150601f19603f3d011682016040523d82523d6000602084013e610460565b606091505b5061046961181b565b91505090565b80604051602001610480919061284d565b60405160208183030381529060405291505090565b6000336104a38185856118ad565b5060019392505050565b600260065414156104d95760405162461bcd60e51b81526004016104d0906128be565b60405180910390fd5b6002600655336001600160a01b037f0000000000000000000000000000000000000000000000000000000000000000161461054d5760405162461bcd60e51b81526020600482015260146024820152737265636f7665722f6e6f742d4265746142616e6b60601b60448201526064016104d0565b6000198114156105d6576040516370a0823160e01b81526001600160a01b038416906370a0823190610583903090600401612877565b60206040518083038186803b15801561059b57600080fd5b505afa1580156105af573d6000803e3d6000fd5b505050506040513d601f19601f820116820180604052508101906105d391906127d2565b90505b6105ea6001600160a01b03841683836119d1565b5050600160065550565b6000600260065414156106195760405162461bcd60e51b81526004016104d0906128be565b6002600655336001600160a01b037f0000000000000000000000000000000000000000000000000000000000000000161461068b5760405162461bcd60e51b815260206004820152601260248201527172657061792f6e6f742d4265746142616e6b60701b60448201526064016104d0565b61069361138a565b6000807f00000000000000000000000000000000000000000000000000000000000000006001600160a01b03166370a08231306040518263ffffffff1660e01b81526004016106e29190612877565b60206040518083038186803b1580156106fa57600080fd5b505afa15801561070e573d6000803e3d6000fd5b505050506040513d601f19601f8201168201806040525081019061073291906127d2565b90506107696001600160a01b037f000000000000000000000000000000000000000000000000000000000000000016863087611a39565b6040516370a0823160e01b81526000906001600160a01b037f000000000000000000000000000000000000000000000000000000000000000016906370a08231906107b8903090600401612877565b60206040518083038186803b1580156107d057600080fd5b505afa1580156107e4573d6000803e3d6000fd5b505050506040513d601f19601f8201168201806040525081019061080891906127d2565b90506108148282612940565b92505050600a548111156108625760405162461bcd60e51b81526020600482015260156024820152740e4cae0c2f25ec2dadeeadce85ae8dede5ad0d2ced605b1b60448201526064016104d0565b600a54600b546108729083612921565b61087c919061290d565b9150806009600082825461089091906128f5565b9250508190555080600a60008282546108a99190612940565b9250508190555081600b60008282546108c29190612940565b9091555050600b54620f4240111561091b5760405162461bcd60e51b815260206004820152601c60248201527b72657061792f746f6f2d6c6f772d73756d2d646562742d736861726560201b60448201526064016104d0565b50600160065592915050565b600033610935858285611a77565b610940858585611aeb565b60019150505b9392505050565b60007f00000000000000000000000000000000000000000000000000000000000000006001600160a01b031663313ce5676040518163ffffffff1660e01b815260040160206040518083038186803b1580156109a857600080fd5b505afa9250505080156109d8575060408051601f3d908101601f191682019092526109d5918101906127eb565b60015b610a13573d808015610a06576040519150601f19603f3d011682016040523d82523d6000602084013e610a0b565b606091505b506012610469565b919050565b6000610a22611ca7565b905090565b3360008181526001602090815260408083206001600160a01b03871684529091528120549091906104a39082908690610a619087906128f5565b6118ad565b600060026006541415610a8b5760405162461bcd60e51b81526004016104d0906128be565b6002600655610a9861138a565b6000807f00000000000000000000000000000000000000000000000000000000000000006001600160a01b03166370a08231306040518263ffffffff1660e01b8152600401610ae79190612877565b60206040518083038186803b158015610aff57600080fd5b505afa158015610b13573d6000803e3d6000fd5b505050506040513d601f19601f82011682018060405250810190610b3791906127d2565b9050610b6e6001600160a01b037f000000000000000000000000000000000000000000000000000000000000000016333087611a39565b6040516370a0823160e01b81526000906001600160a01b037f000000000000000000000000000000000000000000000000000000000000000016906370a0823190610bbd903090600401612877565b60206040518083038186803b158015610bd557600080fd5b505afa158015610be9573d6000803e3d6000fd5b505050506040513d601f19601f82011682018060405250810190610c0d91906127d2565b9050610c198282612940565b925050506000610c2860025490565b905080610ca157610c3c620f424083612940565b92508260096000828254610c5091906128f5565b92505081905550620f4240600a6000828254610c6c91906128f5565b92505081905550620f4240600b6000828254610c8891906128f5565b90915550610c9c90506001620f4240611dce565b610cdf565b600a54600954610cb191906128f5565b610cbb8284612921565b610cc5919061290d565b92508160096000828254610cd991906128f5565b90915550505b60008311610d275760405162461bcd60e51b81526020600482015260156024820152741b5a5b9d0bdb9bcb58dc99591a5d0b5b5a5b9d1959605a1b60448201526064016104d0565b610d318584611dce565b60408051858152602081018590526001600160a01b0387169133917f2f00e3cdd69a77be7ed215ec7b2a36784dd158f921fca79ac29deffa353fe6ee910160405180910390a35050600160065592915050565b600060026006541415610da95760405162461bcd60e51b81526004016104d0906128be565b6002600655336001600160a01b037f00000000000000000000000000000000000000000000000000000000000000001614610e1c5760405162461bcd60e51b8152602060048201526013602482015272626f72726f772f6e6f742d4265746142616e6b60681b60448201526064016104d0565b610e2461138a565b610e586001600160a01b037f00000000000000000000000000000000000000000000000000000000000000001684846119d1565b610e71600b5483610e699190612921565b600a54611e9b565b90508160096000828254610e859190612940565b9250508190555081600a6000828254610e9e91906128f5565b9250508190555080600b6000828254610eb791906128f5565b9091555050600160065592915050565b6000610ed161138a565b81610ede57506000919050565b610ef7600a5483610eef9190612921565b600b54611e9b565b92915050565b6001600160a01b038116600090815260056020526040812054610ef7565b60607f00000000000000000000000000000000000000000000000000000000000000006001600160a01b03166395d89b416040518163ffffffff1660e01b815260040160006040518083038186803b158015610f7657600080fd5b505afa925050508015610fab57506040513d6000823e601f3d908101601f19168201604052610fa89190810190612718565b60015b610fe7573d808015610fd9576040519150601f19603f3d011682016040523d82523d6000602084013e610fde565b606091505b50610469611ecd565b806040516020016104809190612824565b60006002600654141561101d5760405162461bcd60e51b81526004016104d0906128be565b600260065561102a61138a565b600061103560025490565b905080600a5460095461104891906128f5565b6110529085612921565b61105c919061290d565b9150600082116110a85760405162461bcd60e51b8152602060048201526017602482015276189d5c9b8bdb9bcb585b5bdd5b9d0b5c995d1d5c9b9959604a1b60448201526064016104d0565b81600960008282546110ba9190612940565b909155506110ca90503384611edc565b6110fe6001600160a01b037f00000000000000000000000000000000000000000000000000000000000000001685846119d1565b60408051838152602081018590526001600160a01b0386169133917f5d624aa9c148153ab3446c1b154f660ee7701e549fe9b62dab7171b1c80e6fa2910160405180910390a350600160065592915050565b3360008181526001602090815260408083206001600160a01b0387168452909152812054909190838110156111d55760405162461bcd60e51b815260206004820152602560248201527f45524332303a2064656372656173656420616c6c6f77616e63652062656c6f77604482015264207a65726f60d81b60648201526084016104d0565b6111e282868684036118ad565b506001949350505050565b6000336104a3818585611aeb565b8342111561124b5760405162461bcd60e51b815260206004820152601d60248201527f45524332305065726d69743a206578706972656420646561646c696e6500000060448201526064016104d0565b60007f000000000000000000000000000000000000000000000000000000000000000088888861127a8c612018565b6040805160208101969096526001600160a01b0394851690860152929091166060840152608083015260a082015260c0810186905260e00160405160208183030381529060405280519060200120905060006112d582612040565b905060006112e58287878761208e565b9050896001600160a01b0316816001600160a01b0316146113485760405162461bcd60e51b815260206004820152601e60248201527f45524332305065726d69743a20696e76616c6964207369676e6174757265000060448201526064016104d0565b6113538a8a8a6118ad565b50505050505050505050565b6001600160a01b03918216600090815260016020908152604080832093909416825291909152205490565b60006008544261139a9190612940565b9050806113a45750565b426008819055507f00000000000000000000000000000000000000000000000000000000000000006001600160a01b0316635c975abb6040518163ffffffff1660e01b815260040160206040518083038186803b15801561140457600080fd5b505afa158015611418573d6000803e3d6000fd5b505050506040513d601f19601f8201168201806040525081019061143c91906126f6565b1561147b5760405162461bcd60e51b815260206004820152600f60248201526e10995d1850985b9acbdc185d5cd959608a1b60448201526064016104d0565b600a54600954600754604080516379502c5560e01b815290516000916001600160a01b037f000000000000000000000000000000000000000000000000000000000000000016916379502c5591600480820192602092909190829003018186803b1580156114e857600080fd5b505afa1580156114fc573d6000803e3d6000fd5b505050506040513d601f19601f8201168201806040525081019061152091906125c2565b905060007f00000000000000000000000000000000000000000000000000000000000000006001600160a01b031663ac165d7a6040518163ffffffff1660e01b815260040160206040518083038186803b15801561157d57600080fd5b505afa158015611591573d6000803e3d6000fd5b505050506040513d601f19601f820116820180604052508101906115b591906125c2565b90506000670de0b6b3a76400006301e13380886115d28988612921565b6115dc9190612921565b6115e6919061290d565b6115f0919061290d565b90506115fc81876128f5565b600a81905560405163fae7f00d60e01b8152600481018690526024810187905260448101829052606481018990529096506001600160a01b0383169063fae7f00d9060840160206040518083038186803b15801561165957600080fd5b505afa15801561166d573d6000803e3d6000fd5b505050506040513d601f19601f8201168201806040525081019061169191906127d2565b6007558015611812576000836001600160a01b03166358d7bf806040518163ffffffff1660e01b815260040160206040518083038186803b1580156116d557600080fd5b505afa1580156116e9573d6000803e3d6000fd5b505050506040513d601f19601f8201168201806040525081019061170d91906127d2565b905080156117dd576000670de0b6b3a764000061172a8385612921565b611734919061290d565b90506117db856001600160a01b031663914870eb6040518163ffffffff1660e01b815260040160206040518083038186803b15801561177257600080fd5b505afa158015611786573d6000803e3d6000fd5b505050506040513d601f19601f820116820180604052508101906117aa91906125c2565b826117b58a8c6128f5565b6117bf9190612940565b6002546117cc9085612921565b6117d6919061290d565b611dce565b505b6040518281527f184f65042d0acee3fe9a2216428397968211b66a6f53244a44eb13ae62bc72359060200160405180910390a1505b50505050505050565b60606003805461182a90612983565b80601f016020809104026020016040519081016040528092919081815260200182805461185690612983565b80156118a35780601f10611878576101008083540402835291602001916118a3565b820191906000526020600020905b81548152906001019060200180831161188657829003601f168201915b5050505050905090565b6001600160a01b03831661190f5760405162461bcd60e51b8152602060048201526024808201527f45524332303a20617070726f76652066726f6d20746865207a65726f206164646044820152637265737360e01b60648201526084016104d0565b6001600160a01b0382166119705760405162461bcd60e51b815260206004820152602260248201527f45524332303a20617070726f766520746f20746865207a65726f206164647265604482015261737360f01b60648201526084016104d0565b6001600160a01b0383811660008181526001602090815260408083209487168084529482529182902085905590518481527f8c5be1e5ebec7d5bd14f71427d1e84f3dd0314c0f7b2291e5b200ac8c7c3b925910160405180910390a3505050565b6040516001600160a01b038316602482015260448101829052611a3490849063a9059cbb60e01b906064015b60408051601f198184030181529190526020810180516001600160e01b03166001600160e01b0319909316929092179091526120b6565b505050565b6040516001600160a01b0380851660248301528316604482015260648101829052611a719085906323b872dd60e01b906084016119fd565b50505050565b6000611a83848461135f565b90506000198114611a715781811015611ade5760405162461bcd60e51b815260206004820152601d60248201527f45524332303a20696e73756666696369656e7420616c6c6f77616e636500000060448201526064016104d0565b611a7184848484036118ad565b6001600160a01b038316611b4f5760405162461bcd60e51b815260206004820152602560248201527f45524332303a207472616e736665722066726f6d20746865207a65726f206164604482015264647265737360d81b60648201526084016104d0565b6001600160a01b038216611bb15760405162461bcd60e51b815260206004820152602360248201527f45524332303a207472616e7366657220746f20746865207a65726f206164647260448201526265737360e81b60648201526084016104d0565b6001600160a01b03831660009081526020819052604090205481811015611c295760405162461bcd60e51b815260206004820152602660248201527f45524332303a207472616e7366657220616d6f756e7420657863656564732062604482015265616c616e636560d01b60648201526084016104d0565b6001600160a01b03808516600090815260208190526040808220858503905591851681529081208054849290611c609084906128f5565b92505081905550826001600160a01b0316846001600160a01b0316600080516020612a4983398151915284604051611c9a91815260200190565b60405180910390a3611a71565b6000306001600160a01b037f000000000000000000000000000000000000000000000000000000000000000016148015611d0057507f000000000000000000000000000000000000000000000000000000000000000046145b15611d2a57507f000000000000000000000000000000000000000000000000000000000000000090565b50604080517f00000000000000000000000000000000000000000000000000000000000000006020808301919091527f0000000000000000000000000000000000000000000000000000000000000000828401527f000000000000000000000000000000000000000000000000000000000000000060608301524660808301523060a0808401919091528351808403909101815260c0909201909252805191012090565b6001600160a01b038216611e245760405162461bcd60e51b815260206004820152601f60248201527f45524332303a206d696e7420746f20746865207a65726f20616464726573730060448201526064016104d0565b8060026000828254611e3691906128f5565b90915550506001600160a01b03821660009081526020819052604081208054839290611e639084906128f5565b90915550506040518181526001600160a01b03831690600090600080516020612a498339815191529060200160405180910390a35050565b6000611ea782846129b8565b15611eb3576001611eb6565b60005b60ff16611ec3838561290d565b61094691906128f5565b60606004805461182a90612983565b6001600160a01b038216611f3c5760405162461bcd60e51b815260206004820152602160248201527f45524332303a206275726e2066726f6d20746865207a65726f206164647265736044820152607360f81b60648201526084016104d0565b6001600160a01b03821660009081526020819052604090205481811015611fb05760405162461bcd60e51b815260206004820152602260248201527f45524332303a206275726e20616d6f756e7420657863656564732062616c616e604482015261636560f01b60648201526084016104d0565b6001600160a01b0383166000908152602081905260408120838303905560028054849290611fdf908490612940565b90915550506040518281526000906001600160a01b03851690600080516020612a498339815191529060200160405180910390a3505050565b6001600160a01b03811660009081526005602052604090208054600181018255905b50919050565b6000610ef761204d611ca7565b8360405161190160f01b6020820152602281018390526042810182905260009060620160405160208183030381529060405280519060200120905092915050565b600080600061209f87878787612188565b915091506120ac8161226b565b5095945050505050565b600061210b826040518060400160405280602081526020017f5361666545524332303a206c6f772d6c6576656c2063616c6c206661696c6564815250856001600160a01b03166124249092919063ffffffff16565b805190915015611a34578080602001905181019061212991906126f6565b611a345760405162461bcd60e51b815260206004820152602a60248201527f5361666545524332303a204552433230206f7065726174696f6e20646964206e6044820152691bdd081cdd58d8d9595960b21b60648201526084016104d0565b6000806fa2a8918ca85bafe22016d0b997e4df60600160ff1b038311156121b55750600090506003612262565b8460ff16601b141580156121cd57508460ff16601c14155b156121de5750600090506004612262565b6040805160008082526020820180845289905260ff881692820192909252606081018690526080810185905260019060a0016020604051602081039080840390855afa158015612232573d6000803e3d6000fd5b5050604051601f1901519150506001600160a01b03811661225b57600060019250925050612262565b9150600090505b94509492505050565b600081600481111561227f5761227f6129f8565b14156122885750565b600181600481111561229c5761229c6129f8565b14156122e55760405162461bcd60e51b815260206004820152601860248201527745434453413a20696e76616c6964207369676e617475726560401b60448201526064016104d0565b60028160048111156122f9576122f96129f8565b14156123475760405162461bcd60e51b815260206004820152601f60248201527f45434453413a20696e76616c6964207369676e6174757265206c656e6774680060448201526064016104d0565b600381600481111561235b5761235b6129f8565b14156123b45760405162461bcd60e51b815260206004820152602260248201527f45434453413a20696e76616c6964207369676e6174757265202773272076616c604482015261756560f01b60648201526084016104d0565b60048160048111156123c8576123c86129f8565b14156124215760405162461bcd60e51b815260206004820152602260248201527f45434453413a20696e76616c6964207369676e6174757265202776272076616c604482015261756560f01b60648201526084016104d0565b50565b6060612433848460008561243b565b949350505050565b60608247101561249c5760405162461bcd60e51b815260206004820152602660248201527f416464726573733a20696e73756666696369656e742062616c616e636520666f6044820152651c8818d85b1b60d21b60648201526084016104d0565b6001600160a01b0385163b6124f35760405162461bcd60e51b815260206004820152601d60248201527f416464726573733a2063616c6c20746f206e6f6e2d636f6e747261637400000060448201526064016104d0565b600080866001600160a01b0316858760405161250f9190612808565b60006040518083038185875af1925050503d806000811461254c576040519150601f19603f3d011682016040523d82523d6000602084013e612551565b606091505b509150915061256182828661256c565b979650505050505050565b6060831561257b575081610946565b82511561258b5782518084602001fd5b8160405162461bcd60e51b81526004016104d0919061288b565b6000602082840312156125b757600080fd5b813561094681612a24565b6000602082840312156125d457600080fd5b815161094681612a24565b600080604083850312156125f257600080fd5b82356125fd81612a24565b9150602083013561260d81612a24565b809150509250929050565b60008060006060848603121561262d57600080fd5b833561263881612a24565b9250602084013561264881612a24565b929592945050506040919091013590565b600080600080600080600060e0888a03121561267457600080fd5b873561267f81612a24565b9650602088013561268f81612a24565b9550604088013594506060880135935060808801356126ad81612a39565b9699959850939692959460a0840135945060c09093013592915050565b600080604083850312156126dd57600080fd5b82356126e881612a24565b946020939093013593505050565b60006020828403121561270857600080fd5b8151801515811461094657600080fd5b60006020828403121561272a57600080fd5b81516001600160401b038082111561274157600080fd5b818401915084601f83011261275557600080fd5b81518181111561276757612767612a0e565b604051601f8201601f19908116603f0116810190838211818310171561278f5761278f612a0e565b816040528281528760208487010111156127a857600080fd5b612561836020830160208801612957565b6000602082840312156127cb57600080fd5b5035919050565b6000602082840312156127e457600080fd5b5051919050565b6000602082840312156127fd57600080fd5b815161094681612a39565b6000825161281a818460208701612957565b9190910192915050565b606160f81b815260008251612840816001850160208701612957565b9190910160010192915050565b61020960f51b81526000825161286a816002850160208701612957565b9190910160020192915050565b6001600160a01b0391909116815260200190565b60208152600082518060208401526128aa816040850160208701612957565b601f01601f19169190910160400192915050565b6020808252601f908201527f5265656e7472616e637947756172643a207265656e7472616e742063616c6c00604082015260600190565b60008219821115612908576129086129cc565b500190565b60008261291c5761291c6129e2565b500490565b600081600019048311821515161561293b5761293b6129cc565b500290565b600082821015612952576129526129cc565b500390565b60005b8381101561297257818101518382015260200161295a565b83811115611a715750506000910152565b600181811c9082168061299757607f821691505b6020821081141561203a57634e487b7160e01b600052602260045260246000fd5b6000826129c7576129c76129e2565b500690565b634e487b7160e01b600052601160045260246000fd5b634e487b7160e01b600052601260045260246000fd5b634e487b7160e01b600052602160045260246000fd5b634e487b7160e01b600052604160045260246000fd5b6001600160a01b038116811461242157600080fd5b60ff8116811461242157600080fdfeddf252ad1be2c89b69c2b068fc378daa952ba7f163c4a11628f55a4df523b3efa2646970667358221220610b96ef865d5b19448f904e6f92ddfa2010307778b95b59b344d49cfdb88fe064736f6c63430008060033",
  "immutableReferences": {
    "1537": [
      {
        "length": 32,
        "start": 4687
      }
    ],
    "3081": [
      {
        "length": 32,
        "start": 7432
      }
    ],
    "3083": [
      {
        "length": 32,
        "start": 7390
      }
    ],
    "3085": [
      {
        "length": 32,
        "start": 7348
      }
    ],
    "3087": [
      {
        "length": 32,
        "start": 7515
      }
    ],
    "3089": [
      {
        "length": 32,
        "start": 7552
      }
    ],
    "3091": [
      {
        "length": 32,
        "start": 7473
      }
    ],
    "4001": [
      {
        "length": 32,
        "start": 603
      },
      {
        "length": 32,
        "start": 1257
      },
      {
        "length": 32,
        "start": 1577
      },
      {
        "length": 32,
        "start": 3513
      },
      {
        "length": 32,
        "start": 5037
      },
      {
        "length": 32,
        "start": 5281
      },
      {
        "length": 32,
        "start": 5414
      }
    ],
    "4003": [
      {
        "length": 32,
        "start": 683
      },
      {
        "length": 32,
        "start": 929
      },
      {
        "length": 32,
        "start": 1688
      },
      {
        "length": 32,
        "start": 1857
      },
      {
        "length": 32,
        "start": 1923
      },
      {
        "length": 32,
        "start": 2385
      },
      {
        "length": 32,
        "start": 2717
      },
      {
        "length": 32,
        "start": 2886
      },
      {
        "length": 32,
        "start": 2952
      },
      {
        "length": 32,
        "start": 3633
      },
      {
        "length": 32,
        "start": 3871
      },
      {
        "length": 32,
        "start": 4311
      }
    ]
  },
  "source": "// SPDX-License-Identifier: BUSL-1.1\r\npragma solidity 0.8.6;\r\n\r\nimport \"@openzeppelin/contracts/token/ERC20/extensions/draft-ERC20Permit.sol\";\r\nimport \"@openzeppelin/contracts/token/ERC20/utils/SafeERC20.sol\";\r\nimport \"@openzeppelin/contracts/security/ReentrancyGuard.sol\";\r\nimport \"@openzeppelin/contracts/security/Pausable.sol\";\r\nimport \"@openzeppelin/contracts/utils/math/Math.sol\";\r\n\r\nimport '../interfaces/IBetaBank.sol';\r\nimport '../interfaces/IBetaConfig.sol';\r\nimport '../interfaces/IBetaInterestModel.sol';\r\n\r\ncontract BToken is ERC20Permit, ReentrancyGuard {\r\n  using SafeERC20 for IERC20;\r\n\r\n  event Accrue(uint interest);\r\n  event Mint(address indexed caller, address indexed to, uint amount, uint credit);\r\n  event Burn(address indexed caller, address indexed to, uint amount, uint credit);\r\n\r\n  uint public constant MINIMUM_LIQUIDITY = 10**6; // minimum liquidity to be locked in the pool when first mint occurs\r\n\r\n  address public immutable betaBank; // BetaBank address\r\n  address public immutable underlying; // the underlying token\r\n\r\n  uint public interestRate; // current interest rate\r\n  uint public lastAccrueTime; // last interest accrual timestamp\r\n  uint public totalLoanable; // total asset amount available to be borrowed\r\n  uint public totalLoan; // total amount of loan\r\n  uint public totalDebtShare; // total amount of debt share\r\n\r\n  /// @dev Initializes the BToken contract.\r\n  /// @param _betaBank BetaBank address.\r\n  /// @param _underlying The underlying token address for the bToken.\r\n  constructor(address _betaBank, address _underlying)\r\n    ERC20Permit('AZFIN Token')\r\n    ERC20('AZFIN Token', 'aAZFIN')\r\n  {\r\n    require(_betaBank != address(0), 'constructor/betabank-zero-address');\r\n    require(_underlying != address(0), 'constructor/underlying-zero-address');\r\n    betaBank = _betaBank;\r\n    underlying = _underlying;\r\n    interestRate = IBetaInterestModel(IBetaBank(_betaBank).interestModel()).initialRate();\r\n    lastAccrueTime = block.timestamp;\r\n  }\r\n\r\n  /// @dev Returns the name of the token.\r\n  function name() public view override returns (string memory) {\r\n    try IERC20Metadata(underlying).name() returns (string memory data) {\r\n      return string(abi.encodePacked('A ', data));\r\n    } catch (bytes memory) {\r\n      return ERC20.name();\r\n    }\r\n  }\r\n\r\n  /// @dev Returns the symbol of the token.\r\n  function symbol() public view override returns (string memory) {\r\n    try IERC20Metadata(underlying).symbol() returns (string memory data) {\r\n      return string(abi.encodePacked('a', data));\r\n    } catch (bytes memory) {\r\n      return ERC20.symbol();\r\n    }\r\n  }\r\n\r\n  /// @dev Returns the decimal places of the token.\r\n  function decimals() public view override returns (uint8) {\r\n    try IERC20Metadata(underlying).decimals() returns (uint8 data) {\r\n      return data;\r\n    } catch (bytes memory) {\r\n      return ERC20.decimals();\r\n    }\r\n  }\r\n\r\n  /// @dev Accrues interest rate and adjusts the rate. Can be called by anyone at any time.\r\n  function accrue() public {\r\n    // 1. Check time past condition\r\n    uint timePassed = block.timestamp - lastAccrueTime;\r\n    if (timePassed == 0) return;\r\n    lastAccrueTime = block.timestamp;\r\n    // 2. Check bank pause condition\r\n    require(!Pausable(betaBank).paused(), 'BetaBank/paused');\r\n    // 3. Compute the accrued interest value over the past time\r\n    (uint totalLoan_, uint totalLoanable_, uint interestRate_) = (\r\n      totalLoan,\r\n      totalLoanable,\r\n      interestRate\r\n    ); // gas saving by avoiding multiple SLOADs\r\n    IBetaConfig config = IBetaConfig(IBetaBank(betaBank).config());\r\n    IBetaInterestModel model = IBetaInterestModel(IBetaBank(betaBank).interestModel());\r\n    uint interest = (interestRate_ * totalLoan_ * timePassed) / (365 days) / 1e18;\r\n    // 4. Update total loan and next interest rate\r\n    totalLoan_ += interest;\r\n    totalLoan = totalLoan_;\r\n    interestRate = model.getNextInterestRate(interestRate_, totalLoanable_, totalLoan_, timePassed);\r\n    // 5. Send a portion of collected interest to the beneficiary\r\n    if (interest > 0) {\r\n      uint reserveRate = config.reserveRate();\r\n      if (reserveRate > 0) {\r\n        uint toReserve = (interest * reserveRate) / 1e18;\r\n        _mint(\r\n          config.reserveBeneficiary(),\r\n          (toReserve * totalSupply()) / (totalLoan_ + totalLoanable_ - toReserve)\r\n        );\r\n      }\r\n      emit Accrue(interest);\r\n    }\r\n  }\r\n\r\n  /// @dev Returns the debt value for the given debt share. Automatically calls accrue.\r\n  function fetchDebtShareValue(uint _debtShare) external returns (uint) {\r\n    accrue();\r\n    if (_debtShare == 0) {\r\n      return 0;\r\n    }\r\n    return Math.ceilDiv(_debtShare * totalLoan, totalDebtShare); // round up\r\n  }\r\n\r\n  /// @dev Mints new bToken to the given address.\r\n  /// @param _to The address to mint new bToken for.\r\n  /// @param _amount The amount of underlying tokens to deposit via `transferFrom`.\r\n  /// @return credit The amount of bToken minted.\r\n  function mint(address _to, uint _amount) external nonReentrant returns (uint credit) {\r\n    accrue();\r\n    uint amount;\r\n    {\r\n      uint balBefore = IERC20(underlying).balanceOf(address(this));\r\n      IERC20(underlying).safeTransferFrom(msg.sender, address(this), _amount);\r\n      uint balAfter = IERC20(underlying).balanceOf(address(this));\r\n      amount = balAfter - balBefore;\r\n    }\r\n    uint supply = totalSupply();\r\n    if (supply == 0) {\r\n      credit = amount - MINIMUM_LIQUIDITY;\r\n      // Permanently lock the first MINIMUM_LIQUIDITY tokens\r\n      totalLoanable += credit;\r\n      totalLoan += MINIMUM_LIQUIDITY;\r\n      totalDebtShare += MINIMUM_LIQUIDITY;\r\n      _mint(address(1), MINIMUM_LIQUIDITY); // OpenZeppelin ERC20 does not allow minting to 0\r\n    } else {\r\n      credit = (amount * supply) / (totalLoanable + totalLoan);\r\n      totalLoanable += amount;\r\n    }\r\n    require(credit > 0, 'mint/no-credit-minted');\r\n    _mint(_to, credit);\r\n    emit Mint(msg.sender, _to, _amount, credit);\r\n  }\r\n\r\n  /// @dev Burns the given bToken for the proportional amount of underlying tokens.\r\n  /// @param _to The address to send the underlying tokens to.\r\n  /// @param _credit The amount of bToken to burn.\r\n  /// @return amount The amount of underlying tokens getting transferred out.\r\n  function burn(address _to, uint _credit) external nonReentrant returns (uint amount) {\r\n    accrue();\r\n    uint supply = totalSupply();\r\n    amount = (_credit * (totalLoanable + totalLoan)) / supply;\r\n    require(amount > 0, 'burn/no-amount-returned');\r\n    totalLoanable -= amount;\r\n    _burn(msg.sender, _credit);\r\n    IERC20(underlying).safeTransfer(_to, amount);\r\n    emit Burn(msg.sender, _to, amount, _credit);\r\n  }\r\n\r\n  /// @dev Borrows the funds for the given address. Must only be called by BetaBank.\r\n  /// @param _to The address to borrow the funds for.\r\n  /// @param _amount The amount to borrow.\r\n  /// @return debtShare The amount of new debt share minted.\r\n  function borrow(address _to, uint _amount) external nonReentrant returns (uint debtShare) {\r\n    require(msg.sender == betaBank, 'borrow/not-BetaBank');\r\n    accrue();\r\n    IERC20(underlying).safeTransfer(_to, _amount);\r\n    debtShare = Math.ceilDiv(_amount * totalDebtShare, totalLoan); // round up\r\n    totalLoanable -= _amount;\r\n    totalLoan += _amount;\r\n    totalDebtShare += debtShare;\r\n  }\r\n\r\n  /// @dev Repays the debt using funds from the given address. Must only be called by BetaBank.\r\n  /// @param _from The address to drain the funds to repay.\r\n  /// @param _amount The amount of funds to call via `transferFrom`.\r\n  /// @return debtShare The amount of debt share repaid.\r\n  function repay(address _from, uint _amount) external nonReentrant returns (uint debtShare) {\r\n    require(msg.sender == betaBank, 'repay/not-BetaBank');\r\n    accrue();\r\n    uint amount;\r\n    {\r\n      uint balBefore = IERC20(underlying).balanceOf(address(this));\r\n      IERC20(underlying).safeTransferFrom(_from, address(this), _amount);\r\n      uint balAfter = IERC20(underlying).balanceOf(address(this));\r\n      amount = balAfter - balBefore;\r\n    }\r\n    require(amount <= totalLoan, 'repay/amount-too-high');\r\n    debtShare = (amount * totalDebtShare) / totalLoan; // round down\r\n    totalLoanable += amount;\r\n    totalLoan -= amount;\r\n    totalDebtShare -= debtShare;\r\n    require(totalDebtShare >= MINIMUM_LIQUIDITY, 'repay/too-low-sum-debt-share');\r\n  }\r\n\r\n  /// @dev Recovers tokens in this contract. EMERGENCY ONLY. Full trust in BetaBank.\r\n  /// @param _token The token to recover, can even be underlying so please be careful.\r\n  /// @param _to The address to recover tokens to.\r\n  /// @param _amount The amount of tokens to recover, or MAX_UINT256 if whole balance.\r\n  function recover(\r\n    address _token,\r\n    address _to,\r\n    uint _amount\r\n  ) external nonReentrant {\r\n    require(msg.sender == betaBank, 'recover/not-BetaBank');\r\n    if (_amount == type(uint).max) {\r\n      _amount = IERC20(_token).balanceOf(address(this));\r\n    }\r\n    IERC20(_token).safeTransfer(_to, _amount);\r\n  }\r\n}\r\n",
  "sourcePath": "C:\\Users\\HP\\PoolContract\\contracts\\BToken.sol",
  "compiler": {
    "name": "solc",
    "version": "0.8.6+commit.11564f7e.Emscripten.clang"
  },
  "schemaVersion": "3.4.4",
  "updatedAt": "2022-03-11T12:18:17.564Z",
  "devdoc": {
    "kind": "dev",
    "methods": {
      "DOMAIN_SEPARATOR()": {
        "details": "See {IERC20Permit-DOMAIN_SEPARATOR}."
      },
      "accrue()": {
        "details": "Accrues interest rate and adjusts the rate. Can be called by anyone at any time."
      },
      "allowance(address,address)": {
        "details": "See {IERC20-allowance}."
      },
      "approve(address,uint256)": {
        "details": "See {IERC20-approve}. NOTE: If `amount` is the maximum `uint256`, the allowance is not updated on `transferFrom`. This is semantically equivalent to an infinite approval. Requirements: - `spender` cannot be the zero address."
      },
      "balanceOf(address)": {
        "details": "See {IERC20-balanceOf}."
      },
      "borrow(address,uint256)": {
        "details": "Borrows the funds for the given address. Must only be called by BetaBank.",
        "params": {
          "_amount": "The amount to borrow.",
          "_to": "The address to borrow the funds for."
        },
        "returns": {
          "debtShare": "The amount of new debt share minted."
        }
      },
      "burn(address,uint256)": {
        "details": "Burns the given bToken for the proportional amount of underlying tokens.",
        "params": {
          "_credit": "The amount of bToken to burn.",
          "_to": "The address to send the underlying tokens to."
        },
        "returns": {
          "amount": "The amount of underlying tokens getting transferred out."
        }
      },
      "constructor": {
        "details": "Initializes the BToken contract.",
        "params": {
          "_betaBank": "BetaBank address.",
          "_underlying": "The underlying token address for the bToken."
        }
      },
      "decimals()": {
        "details": "Returns the decimal places of the token."
      },
      "decreaseAllowance(address,uint256)": {
        "details": "Atomically decreases the allowance granted to `spender` by the caller. This is an alternative to {approve} that can be used as a mitigation for problems described in {IERC20-approve}. Emits an {Approval} event indicating the updated allowance. Requirements: - `spender` cannot be the zero address. - `spender` must have allowance for the caller of at least `subtractedValue`."
      },
      "fetchDebtShareValue(uint256)": {
        "details": "Returns the debt value for the given debt share. Automatically calls accrue."
      },
      "increaseAllowance(address,uint256)": {
        "details": "Atomically increases the allowance granted to `spender` by the caller. This is an alternative to {approve} that can be used as a mitigation for problems described in {IERC20-approve}. Emits an {Approval} event indicating the updated allowance. Requirements: - `spender` cannot be the zero address."
      },
      "mint(address,uint256)": {
        "details": "Mints new bToken to the given address.",
        "params": {
          "_amount": "The amount of underlying tokens to deposit via `transferFrom`.",
          "_to": "The address to mint new bToken for."
        },
        "returns": {
          "credit": "The amount of bToken minted."
        }
      },
      "name()": {
        "details": "Returns the name of the token."
      },
      "nonces(address)": {
        "details": "See {IERC20Permit-nonces}."
      },
      "permit(address,address,uint256,uint256,uint8,bytes32,bytes32)": {
        "details": "See {IERC20Permit-permit}."
      },
      "recover(address,address,uint256)": {
        "details": "Recovers tokens in this contract. EMERGENCY ONLY. Full trust in BetaBank.",
        "params": {
          "_amount": "The amount of tokens to recover, or MAX_UINT256 if whole balance.",
          "_to": "The address to recover tokens to.",
          "_token": "The token to recover, can even be underlying so please be careful."
        }
      },
      "repay(address,uint256)": {
        "details": "Repays the debt using funds from the given address. Must only be called by BetaBank.",
        "params": {
          "_amount": "The amount of funds to call via `transferFrom`.",
          "_from": "The address to drain the funds to repay."
        },
        "returns": {
          "debtShare": "The amount of debt share repaid."
        }
      },
      "symbol()": {
        "details": "Returns the symbol of the token."
      },
      "totalSupply()": {
        "details": "See {IERC20-totalSupply}."
      },
      "transfer(address,uint256)": {
        "details": "See {IERC20-transfer}. Requirements: - `to` cannot be the zero address. - the caller must have a balance of at least `amount`."
      },
      "transferFrom(address,address,uint256)": {
        "details": "See {IERC20-transferFrom}. Emits an {Approval} event indicating the updated allowance. This is not required by the EIP. See the note at the beginning of {ERC20}. NOTE: Does not update the allowance if the current allowance is the maximum `uint256`. Requirements: - `from` and `to` cannot be the zero address. - `from` must have a balance of at least `amount`. - the caller must have allowance for ``from``'s tokens of at least `amount`."
      }
    },
    "version": 1
  },
  "userdoc": {
    "kind": "user",
    "methods": {},
    "version": 1
  }
}