{
  "contractName": "WETHGateway",
  "abi": [
    {
      "inputs": [
        {
          "internalType": "address",
          "name": "_bweth",
          "type": "address"
        }
      ],
      "stateMutability": "nonpayable",
      "type": "constructor"
    },
    {
      "inputs": [],
      "name": "bweth",
      "outputs": [
        {
          "internalType": "address",
          "name": "",
          "type": "address"
        }
      ],
      "stateMutability": "view",
      "type": "function"
    },
    {
      "inputs": [],
      "name": "weth",
      "outputs": [
        {
          "internalType": "address",
          "name": "",
          "type": "address"
        }
      ],
      "stateMutability": "view",
      "type": "function"
    },
    {
      "stateMutability": "payable",
      "type": "receive"
    },
    {
      "inputs": [
        {
          "internalType": "address",
          "name": "_to",
          "type": "address"
        }
      ],
      "name": "mint",
      "outputs": [
        {
          "internalType": "uint256",
          "name": "credit",
          "type": "uint256"
        }
      ],
      "stateMutability": "payable",
      "type": "function"
    },
    {
      "inputs": [
        {
          "internalType": "address",
          "name": "_to",
          "type": "address"
        },
        {
          "internalType": "uint256",
          "name": "_credit",
          "type": "uint256"
        }
      ],
      "name": "burn",
      "outputs": [
        {
          "internalType": "uint256",
          "name": "amount",
          "type": "uint256"
        }
      ],
      "stateMutability": "nonpayable",
      "type": "function"
    },
    {
      "inputs": [
        {
          "internalType": "address",
          "name": "_to",
          "type": "address"
        },
        {
          "internalType": "uint256",
          "name": "_credit",
          "type": "uint256"
        },
        {
          "internalType": "uint256",
          "name": "_approve",
          "type": "uint256"
        },
        {
          "internalType": "uint256",
          "name": "_deadline",
          "type": "uint256"
        },
        {
          "internalType": "uint8",
          "name": "_v",
          "type": "uint8"
        },
        {
          "internalType": "bytes32",
          "name": "_r",
          "type": "bytes32"
        },
        {
          "internalType": "bytes32",
          "name": "_s",
          "type": "bytes32"
        }
      ],
      "name": "burnWithPermit",
      "outputs": [
        {
          "internalType": "uint256",
          "name": "amount",
          "type": "uint256"
        }
      ],
      "stateMutability": "nonpayable",
      "type": "function"
    }
  ],
  "bytecode": "0x60c06040523480156200001157600080fd5b5060405162001157380380620011578339810160408190526200003491620004c9565b6000816001600160a01b0316636f307dc36040518163ffffffff1660e01b815260040160206040518083038186803b1580156200007057600080fd5b505afa15801562000085573d6000803e3d6000fd5b505050506040513d601f19601f82011682018060405250810190620000ab9190620004c9565b9050620000d482600019836001600160a01b0316620000f360201b62000590179092919060201c565b6001600160601b0319606092831b8116608052911b1660a052620005b8565b801580620001815750604051636eb1769f60e11b81523060048201526001600160a01b03838116602483015284169063dd62ed3e9060440160206040518083038186803b1580156200014457600080fd5b505afa15801562000159573d6000803e3d6000fd5b505050506040513d601f19601f820116820180604052508101906200017f919062000518565b155b620001f95760405162461bcd60e51b815260206004820152603660248201527f5361666545524332303a20617070726f76652066726f6d206e6f6e2d7a65726f60448201527f20746f206e6f6e2d7a65726f20616c6c6f77616e63650000000000000000000060648201526084015b60405180910390fd5b604080516001600160a01b038416602482015260448082018490528251808303909101815260649091019091526020810180516001600160e01b0390811663095ea7b360e01b17909152620002519185916200025616565b505050565b6000620002b2826040518060400160405280602081526020017f5361666545524332303a206c6f772d6c6576656c2063616c6c206661696c6564815250856001600160a01b03166200033460201b620006df179092919060201c565b805190915015620002515780806020019051810190620002d39190620004f4565b620002515760405162461bcd60e51b815260206004820152602a60248201527f5361666545524332303a204552433230206f7065726174696f6e20646964206e6044820152691bdd081cdd58d8d9595960b21b6064820152608401620001f0565b60606200034584846000856200034f565b90505b9392505050565b606082471015620003b25760405162461bcd60e51b815260206004820152602660248201527f416464726573733a20696e73756666696369656e742062616c616e636520666f6044820152651c8818d85b1b60d21b6064820152608401620001f0565b6001600160a01b0385163b6200040b5760405162461bcd60e51b815260206004820152601d60248201527f416464726573733a2063616c6c20746f206e6f6e2d636f6e74726163740000006044820152606401620001f0565b600080866001600160a01b0316858760405162000429919062000532565b60006040518083038185875af1925050503d806000811462000468576040519150601f19603f3d011682016040523d82523d6000602084013e6200046d565b606091505b509092509050620004808282866200048b565b979650505050505050565b606083156200049c57508162000348565b825115620004ad5782518084602001fd5b8160405162461bcd60e51b8152600401620001f0919062000550565b600060208284031215620004dc57600080fd5b81516001600160a01b03811681146200034857600080fd5b6000602082840312156200050757600080fd5b815180151581146200034857600080fd5b6000602082840312156200052b57600080fd5b5051919050565b600082516200054681846020870162000585565b9190910192915050565b60208152600082518060208401526200057181604085016020870162000585565b601f01601f19169190910160400192915050565b60005b83811015620005a257818101518382015260200162000588565b83811115620005b2576000848401525b50505050565b60805160601c60a05160601c610b446200061360003960008181605e0152818160d101528181610266015261046e015260008181610183015281816101e8015281816102ec0152818161038d01526103cc0152610b446000f3fe60806040526004361061004e5760003560e01c80633fc8cef3146100bf57806361359f69146101105780636a6278421461013e5780639dc29fac14610151578063eb06ca931461017157600080fd5b366100ba57336001600160a01b037f000000000000000000000000000000000000000000000000000000000000000016146100b85760405162461bcd60e51b8152602060048201526005602482015264042eecae8d60db1b60448201526064015b60405180910390fd5b005b600080fd5b3480156100cb57600080fd5b506100f37f000000000000000000000000000000000000000000000000000000000000000081565b6040516001600160a01b0390911681526020015b60405180910390f35b34801561011c57600080fd5b5061013061012b3660046109d3565b6101a5565b604051908152602001610107565b61013061014c36600461098e565b610262565b34801561015d57600080fd5b5061013061016c3660046109a9565b61037e565b34801561017d57600080fd5b506100f37f000000000000000000000000000000000000000000000000000000000000000081565b60405163d505accf60e01b8152336004820152306024820152604481018690526064810185905260ff8416608482015260a4810183905260c481018290526000907f00000000000000000000000000000000000000000000000000000000000000006001600160a01b03169063d505accf9060e401600060405180830381600087803b15801561023457600080fd5b505af1158015610248573d6000803e3d6000fd5b50505050610256888861037e565b98975050505050505050565b60007f00000000000000000000000000000000000000000000000000000000000000006001600160a01b031663d0e30db0346040518263ffffffff1660e01b81526004016000604051808303818588803b1580156102bf57600080fd5b505af11580156102d3573d6000803e3d6000fd5b50506040516340c10f1960e01b81526001600160a01b037f00000000000000000000000000000000000000000000000000000000000000001693506340c10f199250610326915085903490600401610a96565b602060405180830381600087803b15801561034057600080fd5b505af1158015610354573d6000803e3d6000fd5b505050506040513d601f19601f820116820180604052508101906103789190610a61565b92915050565b60006103b56001600160a01b037f0000000000000000000000000000000000000000000000000000000000000000163330856106f8565b604051632770a7eb60e21b81526001600160a01b037f00000000000000000000000000000000000000000000000000000000000000001690639dc29fac906104039030908690600401610a96565b602060405180830381600087803b15801561041d57600080fd5b505af1158015610431573d6000803e3d6000fd5b505050506040513d601f19601f820116820180604052508101906104559190610a61565b604051632e1a7d4d60e01b8152600481018290529091507f00000000000000000000000000000000000000000000000000000000000000006001600160a01b031690632e1a7d4d90602401600060405180830381600087803b1580156104ba57600080fd5b505af11580156104ce573d6000803e3d6000fd5b5050604080516000808252602082019283905293506001600160a01b038716925084916104fb9190610a7a565b60006040518083038185875af1925050503d8060008114610538576040519150601f19603f3d011682016040523d82523d6000602084013e61053d565b606091505b50509050806105895760405162461bcd60e51b8152602060048201526018602482015277189d5c9b8bd95d1a0b5d1c985b9cd9995c8b59985a5b195960421b60448201526064016100af565b5092915050565b8015806106195750604051636eb1769f60e11b81523060048201526001600160a01b03838116602483015284169063dd62ed3e9060440160206040518083038186803b1580156105df57600080fd5b505afa1580156105f3573d6000803e3d6000fd5b505050506040513d601f19601f820116820180604052508101906106179190610a61565b155b6106845760405162461bcd60e51b815260206004820152603660248201527f5361666545524332303a20617070726f76652066726f6d206e6f6e2d7a65726f60448201527520746f206e6f6e2d7a65726f20616c6c6f77616e636560501b60648201526084016100af565b6106da8363095ea7b360e01b84846040516024016106a3929190610a96565b60408051601f198184030181529190526020810180516001600160e01b03166001600160e01b031990931692909217909152610736565b505050565b60606106ee8484600085610808565b90505b9392505050565b6040516001600160a01b03808516602483015283166044820152606481018290526107309085906323b872dd60e01b906084016106a3565b50505050565b600061078b826040518060400160405280602081526020017f5361666545524332303a206c6f772d6c6576656c2063616c6c206661696c6564815250856001600160a01b03166106df9092919063ffffffff16565b8051909150156106da57808060200190518101906107a99190610a3f565b6106da5760405162461bcd60e51b815260206004820152602a60248201527f5361666545524332303a204552433230206f7065726174696f6e20646964206e6044820152691bdd081cdd58d8d9595960b21b60648201526084016100af565b6060824710156108695760405162461bcd60e51b815260206004820152602660248201527f416464726573733a20696e73756666696369656e742062616c616e636520666f6044820152651c8818d85b1b60d21b60648201526084016100af565b6001600160a01b0385163b6108c05760405162461bcd60e51b815260206004820152601d60248201527f416464726573733a2063616c6c20746f206e6f6e2d636f6e747261637400000060448201526064016100af565b600080866001600160a01b031685876040516108dc9190610a7a565b60006040518083038185875af1925050503d8060008114610919576040519150601f19603f3d011682016040523d82523d6000602084013e61091e565b606091505b509150915061092e828286610939565b979650505050505050565b606083156109485750816106f1565b8251156109585782518084602001fd5b8160405162461bcd60e51b81526004016100af9190610aaf565b80356001600160a01b038116811461098957600080fd5b919050565b6000602082840312156109a057600080fd5b6106f182610972565b600080604083850312156109bc57600080fd5b6109c583610972565b946020939093013593505050565b600080600080600080600060e0888a0312156109ee57600080fd5b6109f788610972565b9650602088013595506040880135945060608801359350608088013560ff81168114610a2257600080fd5b9699959850939692959460a0840135945060c09093013592915050565b600060208284031215610a5157600080fd5b815180151581146106f157600080fd5b600060208284031215610a7357600080fd5b5051919050565b60008251610a8c818460208701610ae2565b9190910192915050565b6001600160a01b03929092168252602082015260400190565b6020815260008251806020840152610ace816040850160208701610ae2565b601f01601f19169190910160400192915050565b60005b83811015610afd578181015183820152602001610ae5565b83811115610730575050600091015256fea26469706673582212201dd95835a1d655b22af1f3e55a1306f345eb9fcfe5b52b7a6766dbd45078d26064736f6c63430008060033",
  "immutableReferences": {
    "8341": [
      {
        "length": 32,
        "start": 387
      },
      {
        "length": 32,
        "start": 488
      },
      {
        "length": 32,
        "start": 748
      },
      {
        "length": 32,
        "start": 909
      },
      {
        "length": 32,
        "start": 972
      }
    ],
    "8343": [
      {
        "length": 32,
        "start": 94
      },
      {
        "length": 32,
        "start": 209
      },
      {
        "length": 32,
        "start": 614
      },
      {
        "length": 32,
        "start": 1134
      }
    ]
  },
  "source": "// SPDX-License-Identifier: BUSL-1.1\r\npragma solidity 0.8.6;\r\n\r\nimport \"@openzeppelin/contracts/token/ERC20/utils/SafeERC20.sol\";\r\n\r\nimport './BToken.sol';\r\nimport '../interfaces/IWETH.sol';\r\n\r\ncontract WETHGateway {\r\n  using SafeERC20 for IERC20;\r\n\r\n  address public immutable bweth;\r\n  address public immutable weth;\r\n\r\n  /// @dev Initializes the BWETH contract\r\n  /// @param _bweth BWETH token address\r\n  constructor(address _bweth) {\r\n    address _weth = BToken(_bweth).underlying();\r\n    IERC20(_weth).safeApprove(_bweth, type(uint).max);\r\n    bweth = _bweth;\r\n    weth = _weth;\r\n  }\r\n\r\n  /// @dev Wraps the given ETH to WETH and calls mint action on BWETH for the caller.\r\n  /// @param _to The address to receive BToken.\r\n  /// @return credit The BWETH amount minted to the caller.\r\n  function mint(address _to) external payable returns (uint credit) {\r\n    IWETH(weth).deposit{value: msg.value}();\r\n    credit = BToken(bweth).mint(_to, msg.value);\r\n  }\r\n\r\n  /// @dev Performs burn action on BWETH and unwraps WETH back to ETH for the caller.\r\n  /// @param _to The address to send ETH to.\r\n  /// @param _credit The amount of BToken to burn.\r\n  /// @return amount The amount of ETH to be received.\r\n  function burn(address _to, uint _credit) public returns (uint amount) {\r\n    IERC20(bweth).safeTransferFrom(msg.sender, address(this), _credit);\r\n    amount = BToken(bweth).burn(address(this), _credit);\r\n    IWETH(weth).withdraw(amount);\r\n    (bool success, ) = _to.call{value: amount}(new bytes(0));\r\n    require(success, 'burn/eth-transfer-failed');\r\n  }\r\n\r\n  /// @dev Similar to burn function, but with an additional call to BToken's EIP712 permit.\r\n  function burnWithPermit(\r\n    address _to,\r\n    uint _credit,\r\n    uint _approve,\r\n    uint _deadline,\r\n    uint8 _v,\r\n    bytes32 _r,\r\n    bytes32 _s\r\n  ) external returns (uint amount) {\r\n    BToken(bweth).permit(msg.sender, address(this), _approve, _deadline, _v, _r, _s);\r\n    amount = burn(_to, _credit);\r\n  }\r\n\r\n  receive() external payable {\r\n    require(msg.sender == weth, '!weth');\r\n  }\r\n}\r\n",
  "sourcePath": "C:\\Users\\HP\\PoolContract\\contracts\\WETHGateway.sol",
  "compiler": {
    "name": "solc",
    "version": "0.8.6+commit.11564f7e.Emscripten.clang"
  },
  "schemaVersion": "3.4.4",
  "updatedAt": "2022-03-11T12:18:17.891Z",
  "devdoc": {
    "kind": "dev",
    "methods": {
      "burn(address,uint256)": {
        "details": "Performs burn action on BWETH and unwraps WETH back to ETH for the caller.",
        "params": {
          "_credit": "The amount of BToken to burn.",
          "_to": "The address to send ETH to."
        },
        "returns": {
          "amount": "The amount of ETH to be received."
        }
      },
      "burnWithPermit(address,uint256,uint256,uint256,uint8,bytes32,bytes32)": {
        "details": "Similar to burn function, but with an additional call to BToken's EIP712 permit."
      },
      "constructor": {
        "details": "Initializes the BWETH contract",
        "params": {
          "_bweth": "BWETH token address"
        }
      },
      "mint(address)": {
        "details": "Wraps the given ETH to WETH and calls mint action on BWETH for the caller.",
        "params": {
          "_to": "The address to receive BToken."
        },
        "returns": {
          "credit": "The BWETH amount minted to the caller."
        }
      }
    },
    "version": 1
  },
  "userdoc": {
    "kind": "user",
    "methods": {},
    "version": 1
  }
}